{
	"contracts/Voting.sol": {
		"Voting": {
			"abi": [
				{
					"inputs": [],
					"stateMutability": "nonpayable",
					"type": "constructor"
				},
				{
					"inputs": [
						{
							"internalType": "string",
							"name": "msg",
							"type": "string"
						}
					],
					"name": "AlreadyVotedError",
					"type": "error"
				},
				{
					"anonymous": false,
					"inputs": [
						{
							"indexed": false,
							"internalType": "uint256",
							"name": "voters",
							"type": "uint256"
						},
						{
							"indexed": false,
							"internalType": "string",
							"name": "voteType",
							"type": "string"
						},
						{
							"indexed": false,
							"internalType": "uint256",
							"name": "topicId",
							"type": "uint256"
						}
					],
					"name": "VoteCast",
					"type": "event"
				},
				{
					"inputs": [
						{
							"internalType": "uint256",
							"name": "_topicId",
							"type": "uint256"
						}
					],
					"name": "closeVoting",
					"outputs": [],
					"stateMutability": "nonpayable",
					"type": "function"
				},
				{
					"inputs": [
						{
							"internalType": "string",
							"name": "_topic",
							"type": "string"
						}
					],
					"name": "createTopic",
					"outputs": [
						{
							"internalType": "bool",
							"name": "",
							"type": "bool"
						}
					],
					"stateMutability": "nonpayable",
					"type": "function"
				},
				{
					"inputs": [],
					"name": "creator",
					"outputs": [
						{
							"internalType": "address",
							"name": "",
							"type": "address"
						}
					],
					"stateMutability": "view",
					"type": "function"
				},
				{
					"inputs": [
						{
							"internalType": "uint256",
							"name": "_topicId",
							"type": "uint256"
						}
					],
					"name": "getAcceptedVotesByTopicId",
					"outputs": [
						{
							"internalType": "uint256",
							"name": "",
							"type": "uint256"
						}
					],
					"stateMutability": "view",
					"type": "function"
				},
				{
					"inputs": [
						{
							"internalType": "uint256",
							"name": "_topicId",
							"type": "uint256"
						}
					],
					"name": "getMetadata",
					"outputs": [
						{
							"components": [
								{
									"components": [
										{
											"internalType": "uint256",
											"name": "id",
											"type": "uint256"
										},
										{
											"internalType": "string",
											"name": "topic",
											"type": "string"
										}
									],
									"internalType": "struct Voting.Topic",
									"name": "topic",
									"type": "tuple"
								},
								{
									"internalType": "uint256",
									"name": "accepted",
									"type": "uint256"
								},
								{
									"internalType": "uint256",
									"name": "rejected",
									"type": "uint256"
								},
								{
									"internalType": "bool",
									"name": "isOpen",
									"type": "bool"
								}
							],
							"internalType": "struct Voting.VoteMetadata",
							"name": "",
							"type": "tuple"
						}
					],
					"stateMutability": "view",
					"type": "function"
				},
				{
					"inputs": [
						{
							"internalType": "uint256",
							"name": "_topicId",
							"type": "uint256"
						}
					],
					"name": "getRejectedVotesByTopicId",
					"outputs": [
						{
							"internalType": "uint256",
							"name": "",
							"type": "uint256"
						}
					],
					"stateMutability": "view",
					"type": "function"
				},
				{
					"inputs": [
						{
							"internalType": "uint256",
							"name": "_topicId",
							"type": "uint256"
						}
					],
					"name": "getTopicApproval",
					"outputs": [
						{
							"internalType": "bool",
							"name": "",
							"type": "bool"
						}
					],
					"stateMutability": "view",
					"type": "function"
				},
				{
					"inputs": [],
					"name": "numberOfVoters",
					"outputs": [
						{
							"internalType": "uint256",
							"name": "",
							"type": "uint256"
						}
					],
					"stateMutability": "view",
					"type": "function"
				},
				{
					"inputs": [
						{
							"internalType": "string",
							"name": "_voteType",
							"type": "string"
						},
						{
							"internalType": "uint256",
							"name": "_topicId",
							"type": "uint256"
						}
					],
					"name": "vote",
					"outputs": [],
					"stateMutability": "nonpayable",
					"type": "function"
				}
			],
			"devdoc": {
				"kind": "dev",
				"methods": {},
				"version": 1
			},
			"evm": {
				"assembly": "    /* \"contracts/Voting.sol\":59:3339  contract Voting{... */\n  mstore(0x40, 0x80)\n    /* \"contracts/Voting.sol\":197:198  0 */\n  0x00\n    /* \"contracts/Voting.sol\":168:198  uint public numberOfVoters = 0 */\n  0x02\n  sstore\n    /* \"contracts/Voting.sol\":327:398  constructor(){... */\n  callvalue\n  dup1\n  iszero\n  tag_1\n  jumpi\n  0x00\n  dup1\n  revert\ntag_1:\n  pop\n    /* \"contracts/Voting.sol\":360:370  msg.sender */\n  caller\n    /* \"contracts/Voting.sol\":350:357  creator */\n  0x00\n  dup1\n    /* \"contracts/Voting.sol\":350:370  creator = msg.sender */\n  0x0100\n  exp\n  dup2\n  sload\n  dup2\n  0xffffffffffffffffffffffffffffffffffffffff\n  mul\n  not\n  and\n  swap1\n  dup4\n  0xffffffffffffffffffffffffffffffffffffffff\n  and\n  mul\n  or\n  swap1\n  sstore\n  pop\n    /* \"contracts/Voting.sol\":390:391  1 */\n  0x01\n    /* \"contracts/Voting.sol\":380:387  topicId */\n  dup1\n    /* \"contracts/Voting.sol\":380:391  topicId = 1 */\n  dup2\n  swap1\n  sstore\n  pop\n    /* \"contracts/Voting.sol\":59:3339  contract Voting{... */\n  dataSize(sub_0)\n  dup1\n  dataOffset(sub_0)\n  0x00\n  codecopy\n  0x00\n  return\nstop\n\nsub_0: assembly {\n        /* \"contracts/Voting.sol\":59:3339  contract Voting{... */\n      mstore(0x40, 0x80)\n      callvalue\n      dup1\n      iszero\n      tag_1\n      jumpi\n      0x00\n      dup1\n      revert\n    tag_1:\n      pop\n      jumpi(tag_2, lt(calldatasize, 0x04))\n      shr(0xe0, calldataload(0x00))\n      dup1\n      0x9bcc3361\n      gt\n      tag_12\n      jumpi\n      dup1\n      0x9bcc3361\n      eq\n      tag_7\n      jumpi\n      dup1\n      0xa574cea4\n      eq\n      tag_8\n      jumpi\n      dup1\n      0xa6385803\n      eq\n      tag_9\n      jumpi\n      dup1\n      0xd2111a72\n      eq\n      tag_10\n      jumpi\n      dup1\n      0xe120bd55\n      eq\n      tag_11\n      jumpi\n      jump(tag_2)\n    tag_12:\n      dup1\n      0x02d05d3f\n      eq\n      tag_3\n      jumpi\n      dup1\n      0x7b84a88e\n      eq\n      tag_4\n      jumpi\n      dup1\n      0x8f33f4bd\n      eq\n      tag_5\n      jumpi\n      dup1\n      0x91ec31ef\n      eq\n      tag_6\n      jumpi\n    tag_2:\n      0x00\n      dup1\n      revert\n        /* \"contracts/Voting.sol\":122:144  address public creator */\n    tag_3:\n      tag_13\n      tag_14\n      jump\t// in\n    tag_13:\n      mload(0x40)\n      tag_15\n      swap2\n      swap1\n      tag_16\n      jump\t// in\n    tag_15:\n      mload(0x40)\n      dup1\n      swap2\n      sub\n      swap1\n      return\n        /* \"contracts/Voting.sol\":2292:2532  function createTopic(string calldata _topic) public isCreator returns(bool){... */\n    tag_4:\n      tag_17\n      0x04\n      dup1\n      calldatasize\n      sub\n      dup2\n      add\n      swap1\n      tag_18\n      swap2\n      swap1\n      tag_19\n      jump\t// in\n    tag_18:\n      tag_20\n      jump\t// in\n    tag_17:\n      mload(0x40)\n      tag_21\n      swap2\n      swap1\n      tag_22\n      jump\t// in\n    tag_21:\n      mload(0x40)\n      dup1\n      swap2\n      sub\n      swap1\n      return\n        /* \"contracts/Voting.sol\":2131:2286  function getTopicApproval(uint _topicId) public view returns(bool){... */\n    tag_5:\n      tag_23\n      0x04\n      dup1\n      calldatasize\n      sub\n      dup2\n      add\n      swap1\n      tag_24\n      swap2\n      swap1\n      tag_25\n      jump\t// in\n    tag_24:\n      tag_26\n      jump\t// in\n    tag_23:\n      mload(0x40)\n      tag_27\n      swap2\n      swap1\n      tag_22\n      jump\t// in\n    tag_27:\n      mload(0x40)\n      dup1\n      swap2\n      sub\n      swap1\n      return\n        /* \"contracts/Voting.sol\":1857:1988  function getAcceptedVotesByTopicId(uint _topicId) public view returns (uint){... */\n    tag_6:\n      tag_28\n      0x04\n      dup1\n      calldatasize\n      sub\n      dup2\n      add\n      swap1\n      tag_29\n      swap2\n      swap1\n      tag_25\n      jump\t// in\n    tag_29:\n      tag_30\n      jump\t// in\n    tag_28:\n      mload(0x40)\n      tag_31\n      swap2\n      swap1\n      tag_32\n      jump\t// in\n    tag_31:\n      mload(0x40)\n      dup1\n      swap2\n      sub\n      swap1\n      return\n        /* \"contracts/Voting.sol\":168:198  uint public numberOfVoters = 0 */\n    tag_7:\n      tag_33\n      tag_34\n      jump\t// in\n    tag_33:\n      mload(0x40)\n      tag_35\n      swap2\n      swap1\n      tag_32\n      jump\t// in\n    tag_35:\n      mload(0x40)\n      dup1\n      swap2\n      sub\n      swap1\n      return\n        /* \"contracts/Voting.sol\":1729:1851  function getMetadata(uint _topicId) public view returns(VoteMetadata memory){... */\n    tag_8:\n      tag_36\n      0x04\n      dup1\n      calldatasize\n      sub\n      dup2\n      add\n      swap1\n      tag_37\n      swap2\n      swap1\n      tag_25\n      jump\t// in\n    tag_37:\n      tag_38\n      jump\t// in\n    tag_36:\n      mload(0x40)\n      tag_39\n      swap2\n      swap1\n      tag_40\n      jump\t// in\n    tag_39:\n      mload(0x40)\n      dup1\n      swap2\n      sub\n      swap1\n      return\n        /* \"contracts/Voting.sol\":1102:1723  function vote(string calldata _voteType, uint _topicId) public hasNotVoted(_topicId) {... */\n    tag_9:\n      tag_41\n      0x04\n      dup1\n      calldatasize\n      sub\n      dup2\n      add\n      swap1\n      tag_42\n      swap2\n      swap1\n      tag_43\n      jump\t// in\n    tag_42:\n      tag_44\n      jump\t// in\n    tag_41:\n      stop\n        /* \"contracts/Voting.sol\":2538:2644  function closeVoting(uint _topicId) public isCreator{... */\n    tag_10:\n      tag_45\n      0x04\n      dup1\n      calldatasize\n      sub\n      dup2\n      add\n      swap1\n      tag_46\n      swap2\n      swap1\n      tag_25\n      jump\t// in\n    tag_46:\n      tag_47\n      jump\t// in\n    tag_45:\n      stop\n        /* \"contracts/Voting.sol\":1994:2125  function getRejectedVotesByTopicId(uint _topicId) public view returns (uint){... */\n    tag_11:\n      tag_48\n      0x04\n      dup1\n      calldatasize\n      sub\n      dup2\n      add\n      swap1\n      tag_49\n      swap2\n      swap1\n      tag_25\n      jump\t// in\n    tag_49:\n      tag_50\n      jump\t// in\n    tag_48:\n      mload(0x40)\n      tag_51\n      swap2\n      swap1\n      tag_32\n      jump\t// in\n    tag_51:\n      mload(0x40)\n      dup1\n      swap2\n      sub\n      swap1\n      return\n        /* \"contracts/Voting.sol\":122:144  address public creator */\n    tag_14:\n      0x00\n      dup1\n      sload\n      swap1\n      0x0100\n      exp\n      swap1\n      div\n      0xffffffffffffffffffffffffffffffffffffffff\n      and\n      dup2\n      jump\t// out\n        /* \"contracts/Voting.sol\":2292:2532  function createTopic(string calldata _topic) public isCreator returns(bool){... */\n    tag_20:\n        /* \"contracts/Voting.sol\":2362:2366  bool */\n      0x00\n        /* \"contracts/Voting.sol\":456:463  creator */\n      dup1\n      0x00\n      swap1\n      sload\n      swap1\n      0x0100\n      exp\n      swap1\n      div\n      0xffffffffffffffffffffffffffffffffffffffff\n      and\n        /* \"contracts/Voting.sol\":442:463  msg.sender == creator */\n      0xffffffffffffffffffffffffffffffffffffffff\n      and\n        /* \"contracts/Voting.sol\":442:452  msg.sender */\n      caller\n        /* \"contracts/Voting.sol\":442:463  msg.sender == creator */\n      0xffffffffffffffffffffffffffffffffffffffff\n      and\n      eq\n        /* \"contracts/Voting.sol\":434:502  require(msg.sender == creator, \"You have insufficient permissions.\") */\n      tag_53\n      jumpi\n      mload(0x40)\n      0x08c379a000000000000000000000000000000000000000000000000000000000\n      dup2\n      mstore\n      0x04\n      add\n      tag_54\n      swap1\n      tag_55\n      jump\t// in\n    tag_54:\n      mload(0x40)\n      dup1\n      swap2\n      sub\n      swap1\n      revert\n    tag_53:\n        /* \"contracts/Voting.sol\":2377:2395  Topic memory topic */\n      0x00\n        /* \"contracts/Voting.sol\":2398:2420  Topic(topicId, _topic) */\n      mload(0x40)\n      dup1\n      0x40\n      add\n      0x40\n      mstore\n      dup1\n        /* \"contracts/Voting.sol\":2404:2411  topicId */\n      sload(0x01)\n        /* \"contracts/Voting.sol\":2398:2420  Topic(topicId, _topic) */\n      dup2\n      mstore\n      0x20\n      add\n        /* \"contracts/Voting.sol\":2413:2419  _topic */\n      dup6\n      dup6\n        /* \"contracts/Voting.sol\":2398:2420  Topic(topicId, _topic) */\n      dup1\n      dup1\n      0x1f\n      add\n      0x20\n      dup1\n      swap2\n      div\n      mul\n      0x20\n      add\n      mload(0x40)\n      swap1\n      dup2\n      add\n      0x40\n      mstore\n      dup1\n      swap4\n      swap3\n      swap2\n      swap1\n      dup2\n      dup2\n      mstore\n      0x20\n      add\n      dup4\n      dup4\n      dup1\n      dup3\n      dup5\n      calldatacopy\n      0x00\n      dup2\n      dup5\n      add\n      mstore\n      not(0x1f)\n      0x1f\n      dup3\n      add\n      and\n      swap1\n      pop\n      dup1\n      dup4\n      add\n      swap3\n      pop\n      pop\n      pop\n      pop\n      pop\n      pop\n      pop\n      dup2\n      mstore\n      pop\n        /* \"contracts/Voting.sol\":2377:2420  Topic memory topic = Topic(topicId, _topic) */\n      swap1\n      pop\n        /* \"contracts/Voting.sol\":2454:2485  VoteMetadata(topic, 0, 0, true) */\n      mload(0x40)\n      dup1\n      0x80\n      add\n      0x40\n      mstore\n      dup1\n        /* \"contracts/Voting.sol\":2467:2472  topic */\n      dup3\n        /* \"contracts/Voting.sol\":2454:2485  VoteMetadata(topic, 0, 0, true) */\n      dup2\n      mstore\n      0x20\n      add\n        /* \"contracts/Voting.sol\":2474:2475  0 */\n      0x00\n        /* \"contracts/Voting.sol\":2454:2485  VoteMetadata(topic, 0, 0, true) */\n      dup2\n      mstore\n      0x20\n      add\n        /* \"contracts/Voting.sol\":2477:2478  0 */\n      0x00\n        /* \"contracts/Voting.sol\":2454:2485  VoteMetadata(topic, 0, 0, true) */\n      dup2\n      mstore\n      0x20\n      add\n        /* \"contracts/Voting.sol\":2480:2484  true */\n      0x01\n        /* \"contracts/Voting.sol\":2454:2485  VoteMetadata(topic, 0, 0, true) */\n      iszero\n      iszero\n      dup2\n      mstore\n      pop\n        /* \"contracts/Voting.sol\":2430:2442  voteMetadata */\n      0x05\n        /* \"contracts/Voting.sol\":2430:2451  voteMetadata[topicId] */\n      0x00\n        /* \"contracts/Voting.sol\":2443:2450  topicId */\n      sload(0x01)\n        /* \"contracts/Voting.sol\":2430:2451  voteMetadata[topicId] */\n      dup2\n      mstore\n      0x20\n      add\n      swap1\n      dup2\n      mstore\n      0x20\n      add\n      0x00\n      keccak256\n        /* \"contracts/Voting.sol\":2430:2485  voteMetadata[topicId] = VoteMetadata(topic, 0, 0, true) */\n      0x00\n      dup3\n      add\n      mload\n      dup2\n      0x00\n      add\n      0x00\n      dup3\n      add\n      mload\n      dup2\n      0x00\n      add\n      sstore\n      0x20\n      dup3\n      add\n      mload\n      dup2\n      0x01\n      add\n      swap1\n      dup2\n      tag_57\n      swap2\n      swap1\n      tag_58\n      jump\t// in\n    tag_57:\n      pop\n      pop\n      pop\n      0x20\n      dup3\n      add\n      mload\n      dup2\n      0x02\n      add\n      sstore\n      0x40\n      dup3\n      add\n      mload\n      dup2\n      0x03\n      add\n      sstore\n      0x60\n      dup3\n      add\n      mload\n      dup2\n      0x04\n      add\n      exp(0x0100, 0x00)\n      dup2\n      sload\n      dup2\n      0xff\n      mul\n      not\n      and\n      swap1\n      dup4\n      iszero\n      iszero\n      mul\n      or\n      swap1\n      sstore\n      pop\n      swap1\n      pop\n      pop\n        /* \"contracts/Voting.sol\":2495:2502  topicId */\n      0x01\n      0x00\n        /* \"contracts/Voting.sol\":2495:2504  topicId++ */\n      dup2\n      sload\n      dup1\n      swap3\n      swap2\n      swap1\n      tag_59\n      swap1\n      tag_60\n      jump\t// in\n    tag_59:\n      swap2\n      swap1\n      pop\n      sstore\n      pop\n        /* \"contracts/Voting.sol\":2521:2525  true */\n      0x01\n        /* \"contracts/Voting.sol\":2514:2525  return true */\n      swap2\n      pop\n      pop\n        /* \"contracts/Voting.sol\":2292:2532  function createTopic(string calldata _topic) public isCreator returns(bool){... */\n      swap3\n      swap2\n      pop\n      pop\n      jump\t// out\n        /* \"contracts/Voting.sol\":2131:2286  function getTopicApproval(uint _topicId) public view returns(bool){... */\n    tag_26:\n        /* \"contracts/Voting.sol\":2192:2196  bool */\n      0x00\n        /* \"contracts/Voting.sol\":2248:2260  voteMetadata */\n      0x05\n        /* \"contracts/Voting.sol\":2248:2270  voteMetadata[_topicId] */\n      0x00\n        /* \"contracts/Voting.sol\":2261:2269  _topicId */\n      dup4\n        /* \"contracts/Voting.sol\":2248:2270  voteMetadata[_topicId] */\n      dup2\n      mstore\n      0x20\n      add\n      swap1\n      dup2\n      mstore\n      0x20\n      add\n      0x00\n      keccak256\n        /* \"contracts/Voting.sol\":2248:2279  voteMetadata[_topicId].rejected */\n      0x03\n      add\n      sload\n        /* \"contracts/Voting.sol\":2214:2226  voteMetadata */\n      0x05\n        /* \"contracts/Voting.sol\":2214:2236  voteMetadata[_topicId] */\n      0x00\n        /* \"contracts/Voting.sol\":2227:2235  _topicId */\n      dup5\n        /* \"contracts/Voting.sol\":2214:2236  voteMetadata[_topicId] */\n      dup2\n      mstore\n      0x20\n      add\n      swap1\n      dup2\n      mstore\n      0x20\n      add\n      0x00\n      keccak256\n        /* \"contracts/Voting.sol\":2214:2245  voteMetadata[_topicId].accepted */\n      0x02\n      add\n      sload\n        /* \"contracts/Voting.sol\":2214:2279  voteMetadata[_topicId].accepted > voteMetadata[_topicId].rejected */\n      gt\n        /* \"contracts/Voting.sol\":2207:2279  return voteMetadata[_topicId].accepted > voteMetadata[_topicId].rejected */\n      swap1\n      pop\n        /* \"contracts/Voting.sol\":2131:2286  function getTopicApproval(uint _topicId) public view returns(bool){... */\n      swap2\n      swap1\n      pop\n      jump\t// out\n        /* \"contracts/Voting.sol\":1857:1988  function getAcceptedVotesByTopicId(uint _topicId) public view returns (uint){... */\n    tag_30:\n        /* \"contracts/Voting.sol\":1928:1932  uint */\n      0x00\n        /* \"contracts/Voting.sol\":1950:1962  voteMetadata */\n      0x05\n        /* \"contracts/Voting.sol\":1950:1972  voteMetadata[_topicId] */\n      0x00\n        /* \"contracts/Voting.sol\":1963:1971  _topicId */\n      dup4\n        /* \"contracts/Voting.sol\":1950:1972  voteMetadata[_topicId] */\n      dup2\n      mstore\n      0x20\n      add\n      swap1\n      dup2\n      mstore\n      0x20\n      add\n      0x00\n      keccak256\n        /* \"contracts/Voting.sol\":1950:1981  voteMetadata[_topicId].accepted */\n      0x02\n      add\n      sload\n        /* \"contracts/Voting.sol\":1943:1981  return voteMetadata[_topicId].accepted */\n      swap1\n      pop\n        /* \"contracts/Voting.sol\":1857:1988  function getAcceptedVotesByTopicId(uint _topicId) public view returns (uint){... */\n      swap2\n      swap1\n      pop\n      jump\t// out\n        /* \"contracts/Voting.sol\":168:198  uint public numberOfVoters = 0 */\n    tag_34:\n      sload(0x02)\n      dup2\n      jump\t// out\n        /* \"contracts/Voting.sol\":1729:1851  function getMetadata(uint _topicId) public view returns(VoteMetadata memory){... */\n    tag_38:\n        /* \"contracts/Voting.sol\":1785:1804  VoteMetadata memory */\n      tag_63\n      tag_64\n      jump\t// in\n    tag_63:\n        /* \"contracts/Voting.sol\":1822:1834  voteMetadata */\n      0x05\n        /* \"contracts/Voting.sol\":1822:1844  voteMetadata[_topicId] */\n      0x00\n        /* \"contracts/Voting.sol\":1835:1843  _topicId */\n      dup4\n        /* \"contracts/Voting.sol\":1822:1844  voteMetadata[_topicId] */\n      dup2\n      mstore\n      0x20\n      add\n      swap1\n      dup2\n      mstore\n      0x20\n      add\n      0x00\n      keccak256\n        /* \"contracts/Voting.sol\":1815:1844  return voteMetadata[_topicId] */\n      mload(0x40)\n      dup1\n      0x80\n      add\n      0x40\n      mstore\n      swap1\n      dup2\n      0x00\n      dup3\n      add\n      mload(0x40)\n      dup1\n      0x40\n      add\n      0x40\n      mstore\n      swap1\n      dup2\n      0x00\n      dup3\n      add\n      sload\n      dup2\n      mstore\n      0x20\n      add\n      0x01\n      dup3\n      add\n      dup1\n      sload\n      tag_66\n      swap1\n      tag_67\n      jump\t// in\n    tag_66:\n      dup1\n      0x1f\n      add\n      0x20\n      dup1\n      swap2\n      div\n      mul\n      0x20\n      add\n      mload(0x40)\n      swap1\n      dup2\n      add\n      0x40\n      mstore\n      dup1\n      swap3\n      swap2\n      swap1\n      dup2\n      dup2\n      mstore\n      0x20\n      add\n      dup3\n      dup1\n      sload\n      tag_68\n      swap1\n      tag_67\n      jump\t// in\n    tag_68:\n      dup1\n      iszero\n      tag_69\n      jumpi\n      dup1\n      0x1f\n      lt\n      tag_70\n      jumpi\n      0x0100\n      dup1\n      dup4\n      sload\n      div\n      mul\n      dup4\n      mstore\n      swap2\n      0x20\n      add\n      swap2\n      jump(tag_69)\n    tag_70:\n      dup3\n      add\n      swap2\n      swap1\n      0x00\n      mstore\n      keccak256(0x00, 0x20)\n      swap1\n    tag_71:\n      dup2\n      sload\n      dup2\n      mstore\n      swap1\n      0x01\n      add\n      swap1\n      0x20\n      add\n      dup1\n      dup4\n      gt\n      tag_71\n      jumpi\n      dup3\n      swap1\n      sub\n      0x1f\n      and\n      dup3\n      add\n      swap2\n    tag_69:\n      pop\n      pop\n      pop\n      pop\n      pop\n      dup2\n      mstore\n      pop\n      pop\n      dup2\n      mstore\n      0x20\n      add\n      0x02\n      dup3\n      add\n      sload\n      dup2\n      mstore\n      0x20\n      add\n      0x03\n      dup3\n      add\n      sload\n      dup2\n      mstore\n      0x20\n      add\n      0x04\n      dup3\n      add\n      0x00\n      swap1\n      sload\n      swap1\n      0x0100\n      exp\n      swap1\n      div\n      0xff\n      and\n      iszero\n      iszero\n      iszero\n      iszero\n      dup2\n      mstore\n      pop\n      pop\n      swap1\n      pop\n        /* \"contracts/Voting.sol\":1729:1851  function getMetadata(uint _topicId) public view returns(VoteMetadata memory){... */\n      swap2\n      swap1\n      pop\n      jump\t// out\n        /* \"contracts/Voting.sol\":1102:1723  function vote(string calldata _voteType, uint _topicId) public hasNotVoted(_topicId) {... */\n    tag_44:\n        /* \"contracts/Voting.sol\":1177:1185  _topicId */\n      dup1\n        /* \"contracts/Voting.sol\":575:581  uint i */\n      0x00\n        /* \"contracts/Voting.sol\":571:760  for(uint i = 0; i < voters[_topicId].length; i++){... */\n    tag_73:\n        /* \"contracts/Voting.sol\":591:597  voters */\n      0x03\n        /* \"contracts/Voting.sol\":591:607  voters[_topicId] */\n      0x00\n        /* \"contracts/Voting.sol\":598:606  _topicId */\n      dup4\n        /* \"contracts/Voting.sol\":591:607  voters[_topicId] */\n      dup2\n      mstore\n      0x20\n      add\n      swap1\n      dup2\n      mstore\n      0x20\n      add\n      0x00\n      keccak256\n        /* \"contracts/Voting.sol\":591:614  voters[_topicId].length */\n      dup1\n      sload\n      swap1\n      pop\n        /* \"contracts/Voting.sol\":587:588  i */\n      dup2\n        /* \"contracts/Voting.sol\":587:614  i < voters[_topicId].length */\n      lt\n        /* \"contracts/Voting.sol\":571:760  for(uint i = 0; i < voters[_topicId].length; i++){... */\n      iszero\n      tag_74\n      jumpi\n        /* \"contracts/Voting.sol\":660:670  msg.sender */\n      caller\n        /* \"contracts/Voting.sol\":637:670  voters[_topicId][i] == msg.sender */\n      0xffffffffffffffffffffffffffffffffffffffff\n      and\n        /* \"contracts/Voting.sol\":637:643  voters */\n      0x03\n        /* \"contracts/Voting.sol\":637:653  voters[_topicId] */\n      0x00\n        /* \"contracts/Voting.sol\":644:652  _topicId */\n      dup5\n        /* \"contracts/Voting.sol\":637:653  voters[_topicId] */\n      dup2\n      mstore\n      0x20\n      add\n      swap1\n      dup2\n      mstore\n      0x20\n      add\n      0x00\n      keccak256\n        /* \"contracts/Voting.sol\":654:655  i */\n      dup3\n        /* \"contracts/Voting.sol\":637:656  voters[_topicId][i] */\n      dup2\n      sload\n      dup2\n      lt\n      tag_76\n      jumpi\n      tag_77\n      tag_78\n      jump\t// in\n    tag_77:\n    tag_76:\n      swap1\n      0x00\n      mstore\n      keccak256(0x00, 0x20)\n      add\n      0x00\n      swap1\n      sload\n      swap1\n      0x0100\n      exp\n      swap1\n      div\n      0xffffffffffffffffffffffffffffffffffffffff\n      and\n        /* \"contracts/Voting.sol\":637:670  voters[_topicId][i] == msg.sender */\n      0xffffffffffffffffffffffffffffffffffffffff\n      and\n      sub\n        /* \"contracts/Voting.sol\":634:750  if(voters[_topicId][i] == msg.sender){... */\n      tag_80\n      jumpi\n        /* \"contracts/Voting.sol\":696:735  AlreadyVotedError(\"User already voted\") */\n      mload(0x40)\n      0xa1805f1a00000000000000000000000000000000000000000000000000000000\n      dup2\n      mstore\n      0x04\n      add\n      tag_81\n      swap1\n      tag_82\n      jump\t// in\n    tag_81:\n      mload(0x40)\n      dup1\n      swap2\n      sub\n      swap1\n      revert\n        /* \"contracts/Voting.sol\":634:750  if(voters[_topicId][i] == msg.sender){... */\n    tag_80:\n        /* \"contracts/Voting.sol\":616:619  i++ */\n      dup1\n      dup1\n      tag_83\n      swap1\n      tag_60\n      jump\t// in\n    tag_83:\n      swap2\n      pop\n      pop\n        /* \"contracts/Voting.sol\":571:760  for(uint i = 0; i < voters[_topicId].length; i++){... */\n      jump(tag_73)\n    tag_74:\n      pop\n        /* \"contracts/Voting.sol\":1205:1217  voteMetadata */\n      0x05\n        /* \"contracts/Voting.sol\":1205:1227  voteMetadata[_topicId] */\n      0x00\n        /* \"contracts/Voting.sol\":1218:1226  _topicId */\n      dup4\n        /* \"contracts/Voting.sol\":1205:1227  voteMetadata[_topicId] */\n      dup2\n      mstore\n      0x20\n      add\n      swap1\n      dup2\n      mstore\n      0x20\n      add\n      0x00\n      keccak256\n        /* \"contracts/Voting.sol\":1205:1234  voteMetadata[_topicId].isOpen */\n      0x04\n      add\n      0x00\n      swap1\n      sload\n      swap1\n      0x0100\n      exp\n      swap1\n      div\n      0xff\n      and\n        /* \"contracts/Voting.sol\":1197:1255  require(voteMetadata[_topicId].isOpen, \"Voting is closed\") */\n      tag_85\n      jumpi\n      mload(0x40)\n      0x08c379a000000000000000000000000000000000000000000000000000000000\n      dup2\n      mstore\n      0x04\n      add\n      tag_86\n      swap1\n      tag_87\n      jump\t// in\n    tag_86:\n      mload(0x40)\n      dup1\n      swap2\n      sub\n      swap1\n      revert\n    tag_85:\n        /* \"contracts/Voting.sol\":1266:1272  voters */\n      0x03\n        /* \"contracts/Voting.sol\":1266:1282  voters[_topicId] */\n      0x00\n        /* \"contracts/Voting.sol\":1273:1281  _topicId */\n      dup4\n        /* \"contracts/Voting.sol\":1266:1282  voters[_topicId] */\n      dup2\n      mstore\n      0x20\n      add\n      swap1\n      dup2\n      mstore\n      0x20\n      add\n      0x00\n      keccak256\n        /* \"contracts/Voting.sol\":1288:1298  msg.sender */\n      caller\n        /* \"contracts/Voting.sol\":1266:1299  voters[_topicId].push(msg.sender) */\n      swap1\n      dup1\n      0x01\n      dup2\n      sload\n      add\n      dup1\n      dup3\n      sstore\n      dup1\n      swap2\n      pop\n      pop\n      0x01\n      swap1\n      sub\n      swap1\n      0x00\n      mstore\n      keccak256(0x00, 0x20)\n      add\n      0x00\n      swap1\n      swap2\n      swap1\n      swap2\n      swap1\n      swap2\n      0x0100\n      exp\n      dup2\n      sload\n      dup2\n      0xffffffffffffffffffffffffffffffffffffffff\n      mul\n      not\n      and\n      swap1\n      dup4\n      0xffffffffffffffffffffffffffffffffffffffff\n      and\n      mul\n      or\n      swap1\n      sstore\n      pop\n        /* \"contracts/Voting.sol\":1326:1332  voters */\n      0x03\n        /* \"contracts/Voting.sol\":1326:1342  voters[_topicId] */\n      0x00\n        /* \"contracts/Voting.sol\":1333:1341  _topicId */\n      dup4\n        /* \"contracts/Voting.sol\":1326:1342  voters[_topicId] */\n      dup2\n      mstore\n      0x20\n      add\n      swap1\n      dup2\n      mstore\n      0x20\n      add\n      0x00\n      keccak256\n        /* \"contracts/Voting.sol\":1326:1349  voters[_topicId].length */\n      dup1\n      sload\n      swap1\n      pop\n        /* \"contracts/Voting.sol\":1309:1323  numberOfVoters */\n      0x02\n        /* \"contracts/Voting.sol\":1309:1349  numberOfVoters = voters[_topicId].length */\n      dup2\n      swap1\n      sstore\n      pop\n        /* \"contracts/Voting.sol\":1359:1386  VoteType voteTypeFromString */\n      0x00\n        /* \"contracts/Voting.sol\":1389:1425  parseStringToVoteTypeEnum(_voteType) */\n      tag_89\n        /* \"contracts/Voting.sol\":1415:1424  _voteType */\n      dup6\n      dup6\n        /* \"contracts/Voting.sol\":1389:1414  parseStringToVoteTypeEnum */\n      tag_90\n        /* \"contracts/Voting.sol\":1389:1425  parseStringToVoteTypeEnum(_voteType) */\n      jump\t// in\n    tag_89:\n        /* \"contracts/Voting.sol\":1359:1425  VoteType voteTypeFromString = parseStringToVoteTypeEnum(_voteType) */\n      swap1\n      pop\n        /* \"contracts/Voting.sol\":1435:1440  votes */\n      0x04\n        /* \"contracts/Voting.sol\":1435:1450  votes[_topicId] */\n      0x00\n        /* \"contracts/Voting.sol\":1441:1449  _topicId */\n      dup5\n        /* \"contracts/Voting.sol\":1435:1450  votes[_topicId] */\n      dup2\n      mstore\n      0x20\n      add\n      swap1\n      dup2\n      mstore\n      0x20\n      add\n      0x00\n      keccak256\n        /* \"contracts/Voting.sol\":1456:1492  Vote(msg.sender, voteTypeFromString) */\n      mload(0x40)\n      dup1\n      0x40\n      add\n      0x40\n      mstore\n      dup1\n        /* \"contracts/Voting.sol\":1461:1471  msg.sender */\n      caller\n        /* \"contracts/Voting.sol\":1456:1492  Vote(msg.sender, voteTypeFromString) */\n      0xffffffffffffffffffffffffffffffffffffffff\n      and\n      dup2\n      mstore\n      0x20\n      add\n        /* \"contracts/Voting.sol\":1473:1491  voteTypeFromString */\n      dup4\n        /* \"contracts/Voting.sol\":1456:1492  Vote(msg.sender, voteTypeFromString) */\n      0x01\n      dup2\n      gt\n      iszero\n      tag_91\n      jumpi\n      tag_92\n      tag_93\n      jump\t// in\n    tag_92:\n    tag_91:\n      dup2\n      mstore\n      pop\n        /* \"contracts/Voting.sol\":1435:1493  votes[_topicId].push(Vote(msg.sender, voteTypeFromString)) */\n      swap1\n      dup1\n      0x01\n      dup2\n      sload\n      add\n      dup1\n      dup3\n      sstore\n      dup1\n      swap2\n      pop\n      pop\n      0x01\n      swap1\n      sub\n      swap1\n      0x00\n      mstore\n      keccak256(0x00, 0x20)\n      add\n      0x00\n      swap1\n      swap2\n      swap1\n      swap2\n      swap1\n      swap2\n      pop\n      0x00\n      dup3\n      add\n      mload\n      dup2\n      0x00\n      add\n      exp(0x0100, 0x00)\n      dup2\n      sload\n      dup2\n      0xffffffffffffffffffffffffffffffffffffffff\n      mul\n      not\n      and\n      swap1\n      dup4\n      0xffffffffffffffffffffffffffffffffffffffff\n      and\n      mul\n      or\n      swap1\n      sstore\n      pop\n      0x20\n      dup3\n      add\n      mload\n      dup2\n      0x00\n      add\n      exp(0x0100, 0x14)\n      dup2\n      sload\n      dup2\n      0xff\n      mul\n      not\n      and\n      swap1\n      dup4\n      0x01\n      dup2\n      gt\n      iszero\n      tag_95\n      jumpi\n      tag_96\n      tag_93\n      jump\t// in\n    tag_96:\n    tag_95:\n      mul\n      or\n      swap1\n      sstore\n      pop\n      pop\n      pop\n        /* \"contracts/Voting.sol\":1529:1546  VoteType.Accepted */\n      0x00\n        /* \"contracts/Voting.sol\":1507:1546  voteTypeFromString == VoteType.Accepted */\n      0x01\n      dup2\n      gt\n      iszero\n      tag_97\n      jumpi\n      tag_98\n      tag_93\n      jump\t// in\n    tag_98:\n    tag_97:\n        /* \"contracts/Voting.sol\":1507:1525  voteTypeFromString */\n      dup2\n        /* \"contracts/Voting.sol\":1507:1546  voteTypeFromString == VoteType.Accepted */\n      0x01\n      dup2\n      gt\n      iszero\n      tag_99\n      jumpi\n      tag_100\n      tag_93\n      jump\t// in\n    tag_100:\n    tag_99:\n      sub\n        /* \"contracts/Voting.sol\":1504:1717  if(voteTypeFromString == VoteType.Accepted){... */\n      tag_101\n      jumpi\n        /* \"contracts/Voting.sol\":1596:1597  1 */\n      0x01\n        /* \"contracts/Voting.sol\":1561:1573  voteMetadata */\n      0x05\n        /* \"contracts/Voting.sol\":1561:1583  voteMetadata[_topicId] */\n      0x00\n        /* \"contracts/Voting.sol\":1574:1582  _topicId */\n      dup6\n        /* \"contracts/Voting.sol\":1561:1583  voteMetadata[_topicId] */\n      dup2\n      mstore\n      0x20\n      add\n      swap1\n      dup2\n      mstore\n      0x20\n      add\n      0x00\n      keccak256\n        /* \"contracts/Voting.sol\":1561:1592  voteMetadata[_topicId].accepted */\n      0x02\n      add\n      0x00\n        /* \"contracts/Voting.sol\":1561:1597  voteMetadata[_topicId].accepted += 1 */\n      dup3\n      dup3\n      sload\n      tag_102\n      swap2\n      swap1\n      tag_103\n      jump\t// in\n    tag_102:\n      swap3\n      pop\n      pop\n      dup2\n      swap1\n      sstore\n      pop\n        /* \"contracts/Voting.sol\":1504:1717  if(voteTypeFromString == VoteType.Accepted){... */\n      jump(tag_104)\n    tag_101:\n        /* \"contracts/Voting.sol\":1638:1655  VoteType.Rejected */\n      0x01\n        /* \"contracts/Voting.sol\":1616:1655  voteTypeFromString == VoteType.Rejected */\n      dup1\n      dup2\n      gt\n      iszero\n      tag_105\n      jumpi\n      tag_106\n      tag_93\n      jump\t// in\n    tag_106:\n    tag_105:\n        /* \"contracts/Voting.sol\":1616:1634  voteTypeFromString */\n      dup2\n        /* \"contracts/Voting.sol\":1616:1655  voteTypeFromString == VoteType.Rejected */\n      0x01\n      dup2\n      gt\n      iszero\n      tag_107\n      jumpi\n      tag_108\n      tag_93\n      jump\t// in\n    tag_108:\n    tag_107:\n      sub\n        /* \"contracts/Voting.sol\":1613:1717  if(voteTypeFromString == VoteType.Rejected){... */\n      tag_109\n      jumpi\n        /* \"contracts/Voting.sol\":1705:1706  1 */\n      0x01\n        /* \"contracts/Voting.sol\":1670:1682  voteMetadata */\n      0x05\n        /* \"contracts/Voting.sol\":1670:1692  voteMetadata[_topicId] */\n      0x00\n        /* \"contracts/Voting.sol\":1683:1691  _topicId */\n      dup6\n        /* \"contracts/Voting.sol\":1670:1692  voteMetadata[_topicId] */\n      dup2\n      mstore\n      0x20\n      add\n      swap1\n      dup2\n      mstore\n      0x20\n      add\n      0x00\n      keccak256\n        /* \"contracts/Voting.sol\":1670:1701  voteMetadata[_topicId].rejected */\n      0x03\n      add\n      0x00\n        /* \"contracts/Voting.sol\":1670:1706  voteMetadata[_topicId].rejected += 1 */\n      dup3\n      dup3\n      sload\n      tag_110\n      swap2\n      swap1\n      tag_103\n      jump\t// in\n    tag_110:\n      swap3\n      pop\n      pop\n      dup2\n      swap1\n      sstore\n      pop\n        /* \"contracts/Voting.sol\":1613:1717  if(voteTypeFromString == VoteType.Rejected){... */\n    tag_109:\n        /* \"contracts/Voting.sol\":1504:1717  if(voteTypeFromString == VoteType.Accepted){... */\n    tag_104:\n        /* \"contracts/Voting.sol\":1187:1723  {... */\n      pop\n        /* \"contracts/Voting.sol\":1102:1723  function vote(string calldata _voteType, uint _topicId) public hasNotVoted(_topicId) {... */\n      pop\n      pop\n      pop\n      pop\n      jump\t// out\n        /* \"contracts/Voting.sol\":2538:2644  function closeVoting(uint _topicId) public isCreator{... */\n    tag_47:\n        /* \"contracts/Voting.sol\":456:463  creator */\n      0x00\n      dup1\n      sload\n      swap1\n      0x0100\n      exp\n      swap1\n      div\n      0xffffffffffffffffffffffffffffffffffffffff\n      and\n        /* \"contracts/Voting.sol\":442:463  msg.sender == creator */\n      0xffffffffffffffffffffffffffffffffffffffff\n      and\n        /* \"contracts/Voting.sol\":442:452  msg.sender */\n      caller\n        /* \"contracts/Voting.sol\":442:463  msg.sender == creator */\n      0xffffffffffffffffffffffffffffffffffffffff\n      and\n      eq\n        /* \"contracts/Voting.sol\":434:502  require(msg.sender == creator, \"You have insufficient permissions.\") */\n      tag_112\n      jumpi\n      mload(0x40)\n      0x08c379a000000000000000000000000000000000000000000000000000000000\n      dup2\n      mstore\n      0x04\n      add\n      tag_113\n      swap1\n      tag_55\n      jump\t// in\n    tag_113:\n      mload(0x40)\n      dup1\n      swap2\n      sub\n      swap1\n      revert\n    tag_112:\n        /* \"contracts/Voting.sol\":2632:2637  false */\n      0x00\n        /* \"contracts/Voting.sol\":2600:2612  voteMetadata */\n      0x05\n        /* \"contracts/Voting.sol\":2600:2622  voteMetadata[_topicId] */\n      0x00\n        /* \"contracts/Voting.sol\":2613:2621  _topicId */\n      dup4\n        /* \"contracts/Voting.sol\":2600:2622  voteMetadata[_topicId] */\n      dup2\n      mstore\n      0x20\n      add\n      swap1\n      dup2\n      mstore\n      0x20\n      add\n      0x00\n      keccak256\n        /* \"contracts/Voting.sol\":2600:2629  voteMetadata[_topicId].isOpen */\n      0x04\n      add\n      0x00\n        /* \"contracts/Voting.sol\":2600:2637  voteMetadata[_topicId].isOpen = false */\n      0x0100\n      exp\n      dup2\n      sload\n      dup2\n      0xff\n      mul\n      not\n      and\n      swap1\n      dup4\n      iszero\n      iszero\n      mul\n      or\n      swap1\n      sstore\n      pop\n        /* \"contracts/Voting.sol\":2538:2644  function closeVoting(uint _topicId) public isCreator{... */\n      pop\n      jump\t// out\n        /* \"contracts/Voting.sol\":1994:2125  function getRejectedVotesByTopicId(uint _topicId) public view returns (uint){... */\n    tag_50:\n        /* \"contracts/Voting.sol\":2065:2069  uint */\n      0x00\n        /* \"contracts/Voting.sol\":2087:2099  voteMetadata */\n      0x05\n        /* \"contracts/Voting.sol\":2087:2109  voteMetadata[_topicId] */\n      0x00\n        /* \"contracts/Voting.sol\":2100:2108  _topicId */\n      dup4\n        /* \"contracts/Voting.sol\":2087:2109  voteMetadata[_topicId] */\n      dup2\n      mstore\n      0x20\n      add\n      swap1\n      dup2\n      mstore\n      0x20\n      add\n      0x00\n      keccak256\n        /* \"contracts/Voting.sol\":2087:2118  voteMetadata[_topicId].rejected */\n      0x03\n      add\n      sload\n        /* \"contracts/Voting.sol\":2080:2118  return voteMetadata[_topicId].rejected */\n      swap1\n      pop\n        /* \"contracts/Voting.sol\":1994:2125  function getRejectedVotesByTopicId(uint _topicId) public view returns (uint){... */\n      swap2\n      swap1\n      pop\n      jump\t// out\n        /* \"contracts/Voting.sol\":2650:3271  function parseStringToVoteTypeEnum(string calldata _voteType) private pure returns(VoteType){... */\n    tag_90:\n        /* \"contracts/Voting.sol\":2733:2741  VoteType */\n      0x00\n        /* \"contracts/Voting.sol\":2752:2771  bytes32 hashedValue */\n      dup1\n        /* \"contracts/Voting.sol\":2801:2810  _voteType */\n      dup4\n      dup4\n        /* \"contracts/Voting.sol\":2784:2811  abi.encodePacked(_voteType) */\n      add(0x20, mload(0x40))\n      tag_117\n      swap3\n      swap2\n      swap1\n      tag_118\n      jump\t// in\n    tag_117:\n      mload(0x40)\n      0x20\n      dup2\n      dup4\n      sub\n      sub\n      dup2\n      mstore\n      swap1\n      0x40\n      mstore\n        /* \"contracts/Voting.sol\":2774:2812  keccak256(abi.encodePacked(_voteType)) */\n      dup1\n      mload\n      swap1\n      0x20\n      add\n      keccak256\n        /* \"contracts/Voting.sol\":2752:2812  bytes32 hashedValue = keccak256(abi.encodePacked(_voteType)) */\n      swap1\n      pop\n        /* \"contracts/Voting.sol\":2822:2839  VoteType voteType */\n      0x00\n        /* \"contracts/Voting.sol\":2858:2878  bytes32 acceptedHash */\n      dup1\n        /* \"contracts/Voting.sol\":2891:2919  abi.encodePacked(\"Accepted\") */\n      add(0x20, mload(0x40))\n      tag_119\n      swap1\n      tag_120\n      jump\t// in\n    tag_119:\n      mload(0x40)\n      0x20\n      dup2\n      dup4\n      sub\n      sub\n      dup2\n      mstore\n      swap1\n      0x40\n      mstore\n        /* \"contracts/Voting.sol\":2881:2920  keccak256(abi.encodePacked(\"Accepted\")) */\n      dup1\n      mload\n      swap1\n      0x20\n      add\n      keccak256\n        /* \"contracts/Voting.sol\":2858:2920  bytes32 acceptedHash = keccak256(abi.encodePacked(\"Accepted\")) */\n      swap1\n      pop\n        /* \"contracts/Voting.sol\":2930:2950  bytes32 rejectedHash */\n      0x00\n        /* \"contracts/Voting.sol\":2963:2991  abi.encodePacked(\"Rejected\") */\n      add(0x20, mload(0x40))\n      tag_121\n      swap1\n      tag_122\n      jump\t// in\n    tag_121:\n      mload(0x40)\n      0x20\n      dup2\n      dup4\n      sub\n      sub\n      dup2\n      mstore\n      swap1\n      0x40\n      mstore\n        /* \"contracts/Voting.sol\":2953:2992  keccak256(abi.encodePacked(\"Rejected\")) */\n      dup1\n      mload\n      swap1\n      0x20\n      add\n      keccak256\n        /* \"contracts/Voting.sol\":2930:2992  bytes32 rejectedHash = keccak256(abi.encodePacked(\"Rejected\")) */\n      swap1\n      pop\n        /* \"contracts/Voting.sol\":3022:3034  acceptedHash */\n      dup2\n        /* \"contracts/Voting.sol\":3007:3018  hashedValue */\n      dup5\n        /* \"contracts/Voting.sol\":3007:3034  hashedValue == acceptedHash */\n      sub\n        /* \"contracts/Voting.sol\":3003:3239  if (hashedValue == acceptedHash) {... */\n      tag_123\n      jumpi\n        /* \"contracts/Voting.sol\":3061:3078  VoteType.Accepted */\n      0x00\n        /* \"contracts/Voting.sol\":3050:3078  voteType = VoteType.Accepted */\n      swap3\n      pop\n        /* \"contracts/Voting.sol\":3003:3239  if (hashedValue == acceptedHash) {... */\n      jump(tag_124)\n    tag_123:\n        /* \"contracts/Voting.sol\":3114:3126  rejectedHash */\n      dup1\n        /* \"contracts/Voting.sol\":3099:3110  hashedValue */\n      dup5\n        /* \"contracts/Voting.sol\":3099:3126  hashedValue == rejectedHash */\n      sub\n        /* \"contracts/Voting.sol\":3095:3239  if (hashedValue == rejectedHash) {... */\n      tag_125\n      jumpi\n        /* \"contracts/Voting.sol\":3153:3170  VoteType.Rejected */\n      0x01\n        /* \"contracts/Voting.sol\":3142:3170  voteType = VoteType.Rejected */\n      swap3\n      pop\n        /* \"contracts/Voting.sol\":3095:3239  if (hashedValue == rejectedHash) {... */\n      jump(tag_126)\n    tag_125:\n        /* \"contracts/Voting.sol\":3201:3228  revert(\"Invalid Vote Type\") */\n      mload(0x40)\n      0x08c379a000000000000000000000000000000000000000000000000000000000\n      dup2\n      mstore\n      0x04\n      add\n      tag_127\n      swap1\n      tag_128\n      jump\t// in\n    tag_127:\n      mload(0x40)\n      dup1\n      swap2\n      sub\n      swap1\n      revert\n        /* \"contracts/Voting.sol\":3095:3239  if (hashedValue == rejectedHash) {... */\n    tag_126:\n        /* \"contracts/Voting.sol\":3003:3239  if (hashedValue == acceptedHash) {... */\n    tag_124:\n        /* \"contracts/Voting.sol\":3256:3264  voteType */\n      dup3\n        /* \"contracts/Voting.sol\":3249:3264  return voteType */\n      swap5\n      pop\n      pop\n      pop\n      pop\n      pop\n        /* \"contracts/Voting.sol\":2650:3271  function parseStringToVoteTypeEnum(string calldata _voteType) private pure returns(VoteType){... */\n      swap3\n      swap2\n      pop\n      pop\n      jump\t// out\n    tag_64:\n      mload(0x40)\n      dup1\n      0x80\n      add\n      0x40\n      mstore\n      dup1\n      tag_129\n      tag_130\n      jump\t// in\n    tag_129:\n      dup2\n      mstore\n      0x20\n      add\n      0x00\n      dup2\n      mstore\n      0x20\n      add\n      0x00\n      dup2\n      mstore\n      0x20\n      add\n      iszero(iszero(0x00))\n      dup2\n      mstore\n      pop\n      swap1\n      jump\t// out\n    tag_130:\n      mload(0x40)\n      dup1\n      0x40\n      add\n      0x40\n      mstore\n      dup1\n      0x00\n      dup2\n      mstore\n      0x20\n      add\n      0x60\n      dup2\n      mstore\n      pop\n      swap1\n      jump\t// out\n        /* \"#utility.yul\":7:133   */\n    tag_131:\n        /* \"#utility.yul\":44:51   */\n      0x00\n        /* \"#utility.yul\":84:126   */\n      0xffffffffffffffffffffffffffffffffffffffff\n        /* \"#utility.yul\":77:82   */\n      dup3\n        /* \"#utility.yul\":73:127   */\n      and\n        /* \"#utility.yul\":62:127   */\n      swap1\n      pop\n        /* \"#utility.yul\":7:133   */\n      swap2\n      swap1\n      pop\n      jump\t// out\n        /* \"#utility.yul\":139:235   */\n    tag_132:\n        /* \"#utility.yul\":176:183   */\n      0x00\n        /* \"#utility.yul\":205:229   */\n      tag_193\n        /* \"#utility.yul\":223:228   */\n      dup3\n        /* \"#utility.yul\":205:229   */\n      tag_131\n      jump\t// in\n    tag_193:\n        /* \"#utility.yul\":194:229   */\n      swap1\n      pop\n        /* \"#utility.yul\":139:235   */\n      swap2\n      swap1\n      pop\n      jump\t// out\n        /* \"#utility.yul\":241:359   */\n    tag_133:\n        /* \"#utility.yul\":328:352   */\n      tag_195\n        /* \"#utility.yul\":346:351   */\n      dup2\n        /* \"#utility.yul\":328:352   */\n      tag_132\n      jump\t// in\n    tag_195:\n        /* \"#utility.yul\":323:326   */\n      dup3\n        /* \"#utility.yul\":316:353   */\n      mstore\n        /* \"#utility.yul\":241:359   */\n      pop\n      pop\n      jump\t// out\n        /* \"#utility.yul\":365:587   */\n    tag_16:\n        /* \"#utility.yul\":458:462   */\n      0x00\n        /* \"#utility.yul\":496:498   */\n      0x20\n        /* \"#utility.yul\":485:494   */\n      dup3\n        /* \"#utility.yul\":481:499   */\n      add\n        /* \"#utility.yul\":473:499   */\n      swap1\n      pop\n        /* \"#utility.yul\":509:580   */\n      tag_197\n        /* \"#utility.yul\":577:578   */\n      0x00\n        /* \"#utility.yul\":566:575   */\n      dup4\n        /* \"#utility.yul\":562:579   */\n      add\n        /* \"#utility.yul\":553:559   */\n      dup5\n        /* \"#utility.yul\":509:580   */\n      tag_133\n      jump\t// in\n    tag_197:\n        /* \"#utility.yul\":365:587   */\n      swap3\n      swap2\n      pop\n      pop\n      jump\t// out\n        /* \"#utility.yul\":674:791   */\n    tag_135:\n        /* \"#utility.yul\":783:784   */\n      0x00\n        /* \"#utility.yul\":780:781   */\n      dup1\n        /* \"#utility.yul\":773:785   */\n      revert\n        /* \"#utility.yul\":797:914   */\n    tag_136:\n        /* \"#utility.yul\":906:907   */\n      0x00\n        /* \"#utility.yul\":903:904   */\n      dup1\n        /* \"#utility.yul\":896:908   */\n      revert\n        /* \"#utility.yul\":920:1037   */\n    tag_137:\n        /* \"#utility.yul\":1029:1030   */\n      0x00\n        /* \"#utility.yul\":1026:1027   */\n      dup1\n        /* \"#utility.yul\":1019:1031   */\n      revert\n        /* \"#utility.yul\":1043:1160   */\n    tag_138:\n        /* \"#utility.yul\":1152:1153   */\n      0x00\n        /* \"#utility.yul\":1149:1150   */\n      dup1\n        /* \"#utility.yul\":1142:1154   */\n      revert\n        /* \"#utility.yul\":1166:1283   */\n    tag_139:\n        /* \"#utility.yul\":1275:1276   */\n      0x00\n        /* \"#utility.yul\":1272:1273   */\n      dup1\n        /* \"#utility.yul\":1265:1277   */\n      revert\n        /* \"#utility.yul\":1303:1856   */\n    tag_140:\n        /* \"#utility.yul\":1361:1369   */\n      0x00\n        /* \"#utility.yul\":1371:1377   */\n      dup1\n        /* \"#utility.yul\":1421:1424   */\n      dup4\n        /* \"#utility.yul\":1414:1418   */\n      0x1f\n        /* \"#utility.yul\":1406:1412   */\n      dup5\n        /* \"#utility.yul\":1402:1419   */\n      add\n        /* \"#utility.yul\":1398:1425   */\n      slt\n        /* \"#utility.yul\":1388:1510   */\n      tag_205\n      jumpi\n        /* \"#utility.yul\":1429:1508   */\n      tag_206\n      tag_137\n      jump\t// in\n    tag_206:\n        /* \"#utility.yul\":1388:1510   */\n    tag_205:\n        /* \"#utility.yul\":1542:1548   */\n      dup3\n        /* \"#utility.yul\":1529:1549   */\n      calldataload\n        /* \"#utility.yul\":1519:1549   */\n      swap1\n      pop\n        /* \"#utility.yul\":1572:1590   */\n      0xffffffffffffffff\n        /* \"#utility.yul\":1564:1570   */\n      dup2\n        /* \"#utility.yul\":1561:1591   */\n      gt\n        /* \"#utility.yul\":1558:1675   */\n      iszero\n      tag_207\n      jumpi\n        /* \"#utility.yul\":1594:1673   */\n      tag_208\n      tag_138\n      jump\t// in\n    tag_208:\n        /* \"#utility.yul\":1558:1675   */\n    tag_207:\n        /* \"#utility.yul\":1708:1712   */\n      0x20\n        /* \"#utility.yul\":1700:1706   */\n      dup4\n        /* \"#utility.yul\":1696:1713   */\n      add\n        /* \"#utility.yul\":1684:1713   */\n      swap2\n      pop\n        /* \"#utility.yul\":1762:1765   */\n      dup4\n        /* \"#utility.yul\":1754:1758   */\n      0x01\n        /* \"#utility.yul\":1746:1752   */\n      dup3\n        /* \"#utility.yul\":1742:1759   */\n      mul\n        /* \"#utility.yul\":1732:1740   */\n      dup4\n        /* \"#utility.yul\":1728:1760   */\n      add\n        /* \"#utility.yul\":1725:1766   */\n      gt\n        /* \"#utility.yul\":1722:1850   */\n      iszero\n      tag_209\n      jumpi\n        /* \"#utility.yul\":1769:1848   */\n      tag_210\n      tag_139\n      jump\t// in\n    tag_210:\n        /* \"#utility.yul\":1722:1850   */\n    tag_209:\n        /* \"#utility.yul\":1303:1856   */\n      swap3\n      pop\n      swap3\n      swap1\n      pop\n      jump\t// out\n        /* \"#utility.yul\":1862:2391   */\n    tag_19:\n        /* \"#utility.yul\":1933:1939   */\n      0x00\n        /* \"#utility.yul\":1941:1947   */\n      dup1\n        /* \"#utility.yul\":1990:1992   */\n      0x20\n        /* \"#utility.yul\":1978:1987   */\n      dup4\n        /* \"#utility.yul\":1969:1976   */\n      dup6\n        /* \"#utility.yul\":1965:1988   */\n      sub\n        /* \"#utility.yul\":1961:1993   */\n      slt\n        /* \"#utility.yul\":1958:2077   */\n      iszero\n      tag_212\n      jumpi\n        /* \"#utility.yul\":1996:2075   */\n      tag_213\n      tag_135\n      jump\t// in\n    tag_213:\n        /* \"#utility.yul\":1958:2077   */\n    tag_212:\n        /* \"#utility.yul\":2144:2145   */\n      0x00\n        /* \"#utility.yul\":2133:2142   */\n      dup4\n        /* \"#utility.yul\":2129:2146   */\n      add\n        /* \"#utility.yul\":2116:2147   */\n      calldataload\n        /* \"#utility.yul\":2174:2192   */\n      0xffffffffffffffff\n        /* \"#utility.yul\":2166:2172   */\n      dup2\n        /* \"#utility.yul\":2163:2193   */\n      gt\n        /* \"#utility.yul\":2160:2277   */\n      iszero\n      tag_214\n      jumpi\n        /* \"#utility.yul\":2196:2275   */\n      tag_215\n      tag_136\n      jump\t// in\n    tag_215:\n        /* \"#utility.yul\":2160:2277   */\n    tag_214:\n        /* \"#utility.yul\":2309:2374   */\n      tag_216\n        /* \"#utility.yul\":2366:2373   */\n      dup6\n        /* \"#utility.yul\":2357:2363   */\n      dup3\n        /* \"#utility.yul\":2346:2355   */\n      dup7\n        /* \"#utility.yul\":2342:2364   */\n      add\n        /* \"#utility.yul\":2309:2374   */\n      tag_140\n      jump\t// in\n    tag_216:\n        /* \"#utility.yul\":2291:2374   */\n      swap3\n      pop\n      swap3\n      pop\n        /* \"#utility.yul\":2087:2384   */\n      pop\n        /* \"#utility.yul\":1862:2391   */\n      swap3\n      pop\n      swap3\n      swap1\n      pop\n      jump\t// out\n        /* \"#utility.yul\":2397:2487   */\n    tag_141:\n        /* \"#utility.yul\":2431:2438   */\n      0x00\n        /* \"#utility.yul\":2474:2479   */\n      dup2\n        /* \"#utility.yul\":2467:2480   */\n      iszero\n        /* \"#utility.yul\":2460:2481   */\n      iszero\n        /* \"#utility.yul\":2449:2481   */\n      swap1\n      pop\n        /* \"#utility.yul\":2397:2487   */\n      swap2\n      swap1\n      pop\n      jump\t// out\n        /* \"#utility.yul\":2493:2602   */\n    tag_142:\n        /* \"#utility.yul\":2574:2595   */\n      tag_219\n        /* \"#utility.yul\":2589:2594   */\n      dup2\n        /* \"#utility.yul\":2574:2595   */\n      tag_141\n      jump\t// in\n    tag_219:\n        /* \"#utility.yul\":2569:2572   */\n      dup3\n        /* \"#utility.yul\":2562:2596   */\n      mstore\n        /* \"#utility.yul\":2493:2602   */\n      pop\n      pop\n      jump\t// out\n        /* \"#utility.yul\":2608:2818   */\n    tag_22:\n        /* \"#utility.yul\":2695:2699   */\n      0x00\n        /* \"#utility.yul\":2733:2735   */\n      0x20\n        /* \"#utility.yul\":2722:2731   */\n      dup3\n        /* \"#utility.yul\":2718:2736   */\n      add\n        /* \"#utility.yul\":2710:2736   */\n      swap1\n      pop\n        /* \"#utility.yul\":2746:2811   */\n      tag_221\n        /* \"#utility.yul\":2808:2809   */\n      0x00\n        /* \"#utility.yul\":2797:2806   */\n      dup4\n        /* \"#utility.yul\":2793:2810   */\n      add\n        /* \"#utility.yul\":2784:2790   */\n      dup5\n        /* \"#utility.yul\":2746:2811   */\n      tag_142\n      jump\t// in\n    tag_221:\n        /* \"#utility.yul\":2608:2818   */\n      swap3\n      swap2\n      pop\n      pop\n      jump\t// out\n        /* \"#utility.yul\":2824:2901   */\n    tag_143:\n        /* \"#utility.yul\":2861:2868   */\n      0x00\n        /* \"#utility.yul\":2890:2895   */\n      dup2\n        /* \"#utility.yul\":2879:2895   */\n      swap1\n      pop\n        /* \"#utility.yul\":2824:2901   */\n      swap2\n      swap1\n      pop\n      jump\t// out\n        /* \"#utility.yul\":2907:3029   */\n    tag_144:\n        /* \"#utility.yul\":2980:3004   */\n      tag_224\n        /* \"#utility.yul\":2998:3003   */\n      dup2\n        /* \"#utility.yul\":2980:3004   */\n      tag_143\n      jump\t// in\n    tag_224:\n        /* \"#utility.yul\":2973:2978   */\n      dup2\n        /* \"#utility.yul\":2970:3005   */\n      eq\n        /* \"#utility.yul\":2960:3023   */\n      tag_225\n      jumpi\n        /* \"#utility.yul\":3019:3020   */\n      0x00\n        /* \"#utility.yul\":3016:3017   */\n      dup1\n        /* \"#utility.yul\":3009:3021   */\n      revert\n        /* \"#utility.yul\":2960:3023   */\n    tag_225:\n        /* \"#utility.yul\":2907:3029   */\n      pop\n      jump\t// out\n        /* \"#utility.yul\":3035:3174   */\n    tag_145:\n        /* \"#utility.yul\":3081:3086   */\n      0x00\n        /* \"#utility.yul\":3119:3125   */\n      dup2\n        /* \"#utility.yul\":3106:3126   */\n      calldataload\n        /* \"#utility.yul\":3097:3126   */\n      swap1\n      pop\n        /* \"#utility.yul\":3135:3168   */\n      tag_227\n        /* \"#utility.yul\":3162:3167   */\n      dup2\n        /* \"#utility.yul\":3135:3168   */\n      tag_144\n      jump\t// in\n    tag_227:\n        /* \"#utility.yul\":3035:3174   */\n      swap3\n      swap2\n      pop\n      pop\n      jump\t// out\n        /* \"#utility.yul\":3180:3509   */\n    tag_25:\n        /* \"#utility.yul\":3239:3245   */\n      0x00\n        /* \"#utility.yul\":3288:3290   */\n      0x20\n        /* \"#utility.yul\":3276:3285   */\n      dup3\n        /* \"#utility.yul\":3267:3274   */\n      dup5\n        /* \"#utility.yul\":3263:3286   */\n      sub\n        /* \"#utility.yul\":3259:3291   */\n      slt\n        /* \"#utility.yul\":3256:3375   */\n      iszero\n      tag_229\n      jumpi\n        /* \"#utility.yul\":3294:3373   */\n      tag_230\n      tag_135\n      jump\t// in\n    tag_230:\n        /* \"#utility.yul\":3256:3375   */\n    tag_229:\n        /* \"#utility.yul\":3414:3415   */\n      0x00\n        /* \"#utility.yul\":3439:3492   */\n      tag_231\n        /* \"#utility.yul\":3484:3491   */\n      dup5\n        /* \"#utility.yul\":3475:3481   */\n      dup3\n        /* \"#utility.yul\":3464:3473   */\n      dup6\n        /* \"#utility.yul\":3460:3482   */\n      add\n        /* \"#utility.yul\":3439:3492   */\n      tag_145\n      jump\t// in\n    tag_231:\n        /* \"#utility.yul\":3429:3492   */\n      swap2\n      pop\n        /* \"#utility.yul\":3385:3502   */\n      pop\n        /* \"#utility.yul\":3180:3509   */\n      swap3\n      swap2\n      pop\n      pop\n      jump\t// out\n        /* \"#utility.yul\":3515:3633   */\n    tag_146:\n        /* \"#utility.yul\":3602:3626   */\n      tag_233\n        /* \"#utility.yul\":3620:3625   */\n      dup2\n        /* \"#utility.yul\":3602:3626   */\n      tag_143\n      jump\t// in\n    tag_233:\n        /* \"#utility.yul\":3597:3600   */\n      dup3\n        /* \"#utility.yul\":3590:3627   */\n      mstore\n        /* \"#utility.yul\":3515:3633   */\n      pop\n      pop\n      jump\t// out\n        /* \"#utility.yul\":3639:3861   */\n    tag_32:\n        /* \"#utility.yul\":3732:3736   */\n      0x00\n        /* \"#utility.yul\":3770:3772   */\n      0x20\n        /* \"#utility.yul\":3759:3768   */\n      dup3\n        /* \"#utility.yul\":3755:3773   */\n      add\n        /* \"#utility.yul\":3747:3773   */\n      swap1\n      pop\n        /* \"#utility.yul\":3783:3854   */\n      tag_235\n        /* \"#utility.yul\":3851:3852   */\n      0x00\n        /* \"#utility.yul\":3840:3849   */\n      dup4\n        /* \"#utility.yul\":3836:3853   */\n      add\n        /* \"#utility.yul\":3827:3833   */\n      dup5\n        /* \"#utility.yul\":3783:3854   */\n      tag_146\n      jump\t// in\n    tag_235:\n        /* \"#utility.yul\":3639:3861   */\n      swap3\n      swap2\n      pop\n      pop\n      jump\t// out\n        /* \"#utility.yul\":3867:3975   */\n    tag_147:\n        /* \"#utility.yul\":3944:3968   */\n      tag_237\n        /* \"#utility.yul\":3962:3967   */\n      dup2\n        /* \"#utility.yul\":3944:3968   */\n      tag_143\n      jump\t// in\n    tag_237:\n        /* \"#utility.yul\":3939:3942   */\n      dup3\n        /* \"#utility.yul\":3932:3969   */\n      mstore\n        /* \"#utility.yul\":3867:3975   */\n      pop\n      pop\n      jump\t// out\n        /* \"#utility.yul\":3981:4080   */\n    tag_148:\n        /* \"#utility.yul\":4033:4039   */\n      0x00\n        /* \"#utility.yul\":4067:4072   */\n      dup2\n        /* \"#utility.yul\":4061:4073   */\n      mload\n        /* \"#utility.yul\":4051:4073   */\n      swap1\n      pop\n        /* \"#utility.yul\":3981:4080   */\n      swap2\n      swap1\n      pop\n      jump\t// out\n        /* \"#utility.yul\":4086:4245   */\n    tag_149:\n        /* \"#utility.yul\":4160:4171   */\n      0x00\n        /* \"#utility.yul\":4194:4200   */\n      dup3\n        /* \"#utility.yul\":4189:4192   */\n      dup3\n        /* \"#utility.yul\":4182:4201   */\n      mstore\n        /* \"#utility.yul\":4234:4238   */\n      0x20\n        /* \"#utility.yul\":4229:4232   */\n      dup3\n        /* \"#utility.yul\":4225:4239   */\n      add\n        /* \"#utility.yul\":4210:4239   */\n      swap1\n      pop\n        /* \"#utility.yul\":4086:4245   */\n      swap3\n      swap2\n      pop\n      pop\n      jump\t// out\n        /* \"#utility.yul\":4251:4497   */\n    tag_150:\n        /* \"#utility.yul\":4332:4333   */\n      0x00\n        /* \"#utility.yul\":4342:4455   */\n    tag_241:\n        /* \"#utility.yul\":4356:4362   */\n      dup4\n        /* \"#utility.yul\":4353:4354   */\n      dup2\n        /* \"#utility.yul\":4350:4363   */\n      lt\n        /* \"#utility.yul\":4342:4455   */\n      iszero\n      tag_243\n      jumpi\n        /* \"#utility.yul\":4441:4442   */\n      dup1\n        /* \"#utility.yul\":4436:4439   */\n      dup3\n        /* \"#utility.yul\":4432:4443   */\n      add\n        /* \"#utility.yul\":4426:4444   */\n      mload\n        /* \"#utility.yul\":4422:4423   */\n      dup2\n        /* \"#utility.yul\":4417:4420   */\n      dup5\n        /* \"#utility.yul\":4413:4424   */\n      add\n        /* \"#utility.yul\":4406:4445   */\n      mstore\n        /* \"#utility.yul\":4378:4380   */\n      0x20\n        /* \"#utility.yul\":4375:4376   */\n      dup2\n        /* \"#utility.yul\":4371:4381   */\n      add\n        /* \"#utility.yul\":4366:4381   */\n      swap1\n      pop\n        /* \"#utility.yul\":4342:4455   */\n      jump(tag_241)\n    tag_243:\n        /* \"#utility.yul\":4489:4490   */\n      0x00\n        /* \"#utility.yul\":4480:4486   */\n      dup5\n        /* \"#utility.yul\":4475:4478   */\n      dup5\n        /* \"#utility.yul\":4471:4487   */\n      add\n        /* \"#utility.yul\":4464:4491   */\n      mstore\n        /* \"#utility.yul\":4313:4497   */\n      pop\n        /* \"#utility.yul\":4251:4497   */\n      pop\n      pop\n      pop\n      jump\t// out\n        /* \"#utility.yul\":4503:4605   */\n    tag_151:\n        /* \"#utility.yul\":4544:4550   */\n      0x00\n        /* \"#utility.yul\":4595:4597   */\n      0x1f\n        /* \"#utility.yul\":4591:4598   */\n      not\n        /* \"#utility.yul\":4586:4588   */\n      0x1f\n        /* \"#utility.yul\":4579:4584   */\n      dup4\n        /* \"#utility.yul\":4575:4589   */\n      add\n        /* \"#utility.yul\":4571:4599   */\n      and\n        /* \"#utility.yul\":4561:4599   */\n      swap1\n      pop\n        /* \"#utility.yul\":4503:4605   */\n      swap2\n      swap1\n      pop\n      jump\t// out\n        /* \"#utility.yul\":4611:4968   */\n    tag_152:\n        /* \"#utility.yul\":4689:4692   */\n      0x00\n        /* \"#utility.yul\":4717:4756   */\n      tag_246\n        /* \"#utility.yul\":4750:4755   */\n      dup3\n        /* \"#utility.yul\":4717:4756   */\n      tag_148\n      jump\t// in\n    tag_246:\n        /* \"#utility.yul\":4772:4833   */\n      tag_247\n        /* \"#utility.yul\":4826:4832   */\n      dup2\n        /* \"#utility.yul\":4821:4824   */\n      dup6\n        /* \"#utility.yul\":4772:4833   */\n      tag_149\n      jump\t// in\n    tag_247:\n        /* \"#utility.yul\":4765:4833   */\n      swap4\n      pop\n        /* \"#utility.yul\":4842:4907   */\n      tag_248\n        /* \"#utility.yul\":4900:4906   */\n      dup2\n        /* \"#utility.yul\":4895:4898   */\n      dup6\n        /* \"#utility.yul\":4888:4892   */\n      0x20\n        /* \"#utility.yul\":4881:4886   */\n      dup7\n        /* \"#utility.yul\":4877:4893   */\n      add\n        /* \"#utility.yul\":4842:4907   */\n      tag_150\n      jump\t// in\n    tag_248:\n        /* \"#utility.yul\":4932:4961   */\n      tag_249\n        /* \"#utility.yul\":4954:4960   */\n      dup2\n        /* \"#utility.yul\":4932:4961   */\n      tag_151\n      jump\t// in\n    tag_249:\n        /* \"#utility.yul\":4927:4930   */\n      dup5\n        /* \"#utility.yul\":4923:4962   */\n      add\n        /* \"#utility.yul\":4916:4962   */\n      swap2\n      pop\n        /* \"#utility.yul\":4693:4968   */\n      pop\n        /* \"#utility.yul\":4611:4968   */\n      swap3\n      swap2\n      pop\n      pop\n      jump\t// out\n        /* \"#utility.yul\":5024:5613   */\n    tag_153:\n        /* \"#utility.yul\":5127:5130   */\n      0x00\n        /* \"#utility.yul\":5163:5167   */\n      0x40\n        /* \"#utility.yul\":5158:5161   */\n      dup4\n        /* \"#utility.yul\":5154:5168   */\n      add\n        /* \"#utility.yul\":5248:5252   */\n      0x00\n        /* \"#utility.yul\":5241:5246   */\n      dup4\n        /* \"#utility.yul\":5237:5253   */\n      add\n        /* \"#utility.yul\":5231:5254   */\n      mload\n        /* \"#utility.yul\":5267:5330   */\n      tag_251\n        /* \"#utility.yul\":5324:5328   */\n      0x00\n        /* \"#utility.yul\":5319:5322   */\n      dup7\n        /* \"#utility.yul\":5315:5329   */\n      add\n        /* \"#utility.yul\":5301:5313   */\n      dup3\n        /* \"#utility.yul\":5267:5330   */\n      tag_147\n      jump\t// in\n    tag_251:\n        /* \"#utility.yul\":5178:5340   */\n      pop\n        /* \"#utility.yul\":5423:5427   */\n      0x20\n        /* \"#utility.yul\":5416:5421   */\n      dup4\n        /* \"#utility.yul\":5412:5428   */\n      add\n        /* \"#utility.yul\":5406:5429   */\n      mload\n        /* \"#utility.yul\":5476:5479   */\n      dup5\n        /* \"#utility.yul\":5470:5474   */\n      dup3\n        /* \"#utility.yul\":5466:5480   */\n      sub\n        /* \"#utility.yul\":5459:5463   */\n      0x20\n        /* \"#utility.yul\":5454:5457   */\n      dup7\n        /* \"#utility.yul\":5450:5464   */\n      add\n        /* \"#utility.yul\":5443:5481   */\n      mstore\n        /* \"#utility.yul\":5502:5575   */\n      tag_252\n        /* \"#utility.yul\":5570:5574   */\n      dup3\n        /* \"#utility.yul\":5556:5568   */\n      dup3\n        /* \"#utility.yul\":5502:5575   */\n      tag_152\n      jump\t// in\n    tag_252:\n        /* \"#utility.yul\":5494:5575   */\n      swap2\n      pop\n        /* \"#utility.yul\":5350:5586   */\n      pop\n        /* \"#utility.yul\":5603:5607   */\n      dup1\n        /* \"#utility.yul\":5596:5607   */\n      swap2\n      pop\n        /* \"#utility.yul\":5132:5613   */\n      pop\n        /* \"#utility.yul\":5024:5613   */\n      swap3\n      swap2\n      pop\n      pop\n      jump\t// out\n        /* \"#utility.yul\":5619:5718   */\n    tag_154:\n        /* \"#utility.yul\":5690:5711   */\n      tag_254\n        /* \"#utility.yul\":5705:5710   */\n      dup2\n        /* \"#utility.yul\":5690:5711   */\n      tag_141\n      jump\t// in\n    tag_254:\n        /* \"#utility.yul\":5685:5688   */\n      dup3\n        /* \"#utility.yul\":5678:5712   */\n      mstore\n        /* \"#utility.yul\":5619:5718   */\n      pop\n      pop\n      jump\t// out\n        /* \"#utility.yul\":5788:6777   */\n    tag_155:\n        /* \"#utility.yul\":5913:5916   */\n      0x00\n        /* \"#utility.yul\":5949:5953   */\n      0x80\n        /* \"#utility.yul\":5944:5947   */\n      dup4\n        /* \"#utility.yul\":5940:5954   */\n      add\n        /* \"#utility.yul\":6037:6041   */\n      0x00\n        /* \"#utility.yul\":6030:6035   */\n      dup4\n        /* \"#utility.yul\":6026:6042   */\n      add\n        /* \"#utility.yul\":6020:6043   */\n      mload\n        /* \"#utility.yul\":6090:6093   */\n      dup5\n        /* \"#utility.yul\":6084:6088   */\n      dup3\n        /* \"#utility.yul\":6080:6094   */\n      sub\n        /* \"#utility.yul\":6073:6077   */\n      0x00\n        /* \"#utility.yul\":6068:6071   */\n      dup7\n        /* \"#utility.yul\":6064:6078   */\n      add\n        /* \"#utility.yul\":6057:6095   */\n      mstore\n        /* \"#utility.yul\":6116:6213   */\n      tag_256\n        /* \"#utility.yul\":6208:6212   */\n      dup3\n        /* \"#utility.yul\":6194:6206   */\n      dup3\n        /* \"#utility.yul\":6116:6213   */\n      tag_153\n      jump\t// in\n    tag_256:\n        /* \"#utility.yul\":6108:6213   */\n      swap2\n      pop\n        /* \"#utility.yul\":5964:6224   */\n      pop\n        /* \"#utility.yul\":6310:6314   */\n      0x20\n        /* \"#utility.yul\":6303:6308   */\n      dup4\n        /* \"#utility.yul\":6299:6315   */\n      add\n        /* \"#utility.yul\":6293:6316   */\n      mload\n        /* \"#utility.yul\":6329:6392   */\n      tag_257\n        /* \"#utility.yul\":6386:6390   */\n      0x20\n        /* \"#utility.yul\":6381:6384   */\n      dup7\n        /* \"#utility.yul\":6377:6391   */\n      add\n        /* \"#utility.yul\":6363:6375   */\n      dup3\n        /* \"#utility.yul\":6329:6392   */\n      tag_147\n      jump\t// in\n    tag_257:\n        /* \"#utility.yul\":6234:6402   */\n      pop\n        /* \"#utility.yul\":6488:6492   */\n      0x40\n        /* \"#utility.yul\":6481:6486   */\n      dup4\n        /* \"#utility.yul\":6477:6493   */\n      add\n        /* \"#utility.yul\":6471:6494   */\n      mload\n        /* \"#utility.yul\":6507:6570   */\n      tag_258\n        /* \"#utility.yul\":6564:6568   */\n      0x40\n        /* \"#utility.yul\":6559:6562   */\n      dup7\n        /* \"#utility.yul\":6555:6569   */\n      add\n        /* \"#utility.yul\":6541:6553   */\n      dup3\n        /* \"#utility.yul\":6507:6570   */\n      tag_147\n      jump\t// in\n    tag_258:\n        /* \"#utility.yul\":6412:6580   */\n      pop\n        /* \"#utility.yul\":6664:6668   */\n      0x60\n        /* \"#utility.yul\":6657:6662   */\n      dup4\n        /* \"#utility.yul\":6653:6669   */\n      add\n        /* \"#utility.yul\":6647:6670   */\n      mload\n        /* \"#utility.yul\":6683:6740   */\n      tag_259\n        /* \"#utility.yul\":6734:6738   */\n      0x60\n        /* \"#utility.yul\":6729:6732   */\n      dup7\n        /* \"#utility.yul\":6725:6739   */\n      add\n        /* \"#utility.yul\":6711:6723   */\n      dup3\n        /* \"#utility.yul\":6683:6740   */\n      tag_154\n      jump\t// in\n    tag_259:\n        /* \"#utility.yul\":6590:6750   */\n      pop\n        /* \"#utility.yul\":6767:6771   */\n      dup1\n        /* \"#utility.yul\":6760:6771   */\n      swap2\n      pop\n        /* \"#utility.yul\":5918:6777   */\n      pop\n        /* \"#utility.yul\":5788:6777   */\n      swap3\n      swap2\n      pop\n      pop\n      jump\t// out\n        /* \"#utility.yul\":6783:7168   */\n    tag_40:\n        /* \"#utility.yul\":6932:6936   */\n      0x00\n        /* \"#utility.yul\":6970:6972   */\n      0x20\n        /* \"#utility.yul\":6959:6968   */\n      dup3\n        /* \"#utility.yul\":6955:6973   */\n      add\n        /* \"#utility.yul\":6947:6973   */\n      swap1\n      pop\n        /* \"#utility.yul\":7019:7028   */\n      dup2\n        /* \"#utility.yul\":7013:7017   */\n      dup2\n        /* \"#utility.yul\":7009:7029   */\n      sub\n        /* \"#utility.yul\":7005:7006   */\n      0x00\n        /* \"#utility.yul\":6994:7003   */\n      dup4\n        /* \"#utility.yul\":6990:7007   */\n      add\n        /* \"#utility.yul\":6983:7030   */\n      mstore\n        /* \"#utility.yul\":7047:7161   */\n      tag_261\n        /* \"#utility.yul\":7156:7160   */\n      dup2\n        /* \"#utility.yul\":7147:7153   */\n      dup5\n        /* \"#utility.yul\":7047:7161   */\n      tag_155\n      jump\t// in\n    tag_261:\n        /* \"#utility.yul\":7039:7161   */\n      swap1\n      pop\n        /* \"#utility.yul\":6783:7168   */\n      swap3\n      swap2\n      pop\n      pop\n      jump\t// out\n        /* \"#utility.yul\":7174:7848   */\n    tag_43:\n        /* \"#utility.yul\":7254:7260   */\n      0x00\n        /* \"#utility.yul\":7262:7268   */\n      dup1\n        /* \"#utility.yul\":7270:7276   */\n      0x00\n        /* \"#utility.yul\":7319:7321   */\n      0x40\n        /* \"#utility.yul\":7307:7316   */\n      dup5\n        /* \"#utility.yul\":7298:7305   */\n      dup7\n        /* \"#utility.yul\":7294:7317   */\n      sub\n        /* \"#utility.yul\":7290:7322   */\n      slt\n        /* \"#utility.yul\":7287:7406   */\n      iszero\n      tag_263\n      jumpi\n        /* \"#utility.yul\":7325:7404   */\n      tag_264\n      tag_135\n      jump\t// in\n    tag_264:\n        /* \"#utility.yul\":7287:7406   */\n    tag_263:\n        /* \"#utility.yul\":7473:7474   */\n      0x00\n        /* \"#utility.yul\":7462:7471   */\n      dup5\n        /* \"#utility.yul\":7458:7475   */\n      add\n        /* \"#utility.yul\":7445:7476   */\n      calldataload\n        /* \"#utility.yul\":7503:7521   */\n      0xffffffffffffffff\n        /* \"#utility.yul\":7495:7501   */\n      dup2\n        /* \"#utility.yul\":7492:7522   */\n      gt\n        /* \"#utility.yul\":7489:7606   */\n      iszero\n      tag_265\n      jumpi\n        /* \"#utility.yul\":7525:7604   */\n      tag_266\n      tag_136\n      jump\t// in\n    tag_266:\n        /* \"#utility.yul\":7489:7606   */\n    tag_265:\n        /* \"#utility.yul\":7638:7703   */\n      tag_267\n        /* \"#utility.yul\":7695:7702   */\n      dup7\n        /* \"#utility.yul\":7686:7692   */\n      dup3\n        /* \"#utility.yul\":7675:7684   */\n      dup8\n        /* \"#utility.yul\":7671:7693   */\n      add\n        /* \"#utility.yul\":7638:7703   */\n      tag_140\n      jump\t// in\n    tag_267:\n        /* \"#utility.yul\":7620:7703   */\n      swap4\n      pop\n      swap4\n      pop\n        /* \"#utility.yul\":7416:7713   */\n      pop\n        /* \"#utility.yul\":7752:7754   */\n      0x20\n        /* \"#utility.yul\":7778:7831   */\n      tag_268\n        /* \"#utility.yul\":7823:7830   */\n      dup7\n        /* \"#utility.yul\":7814:7820   */\n      dup3\n        /* \"#utility.yul\":7803:7812   */\n      dup8\n        /* \"#utility.yul\":7799:7821   */\n      add\n        /* \"#utility.yul\":7778:7831   */\n      tag_145\n      jump\t// in\n    tag_268:\n        /* \"#utility.yul\":7768:7831   */\n      swap2\n      pop\n        /* \"#utility.yul\":7723:7841   */\n      pop\n        /* \"#utility.yul\":7174:7848   */\n      swap3\n      pop\n      swap3\n      pop\n      swap3\n      jump\t// out\n        /* \"#utility.yul\":7854:8023   */\n    tag_156:\n        /* \"#utility.yul\":7938:7949   */\n      0x00\n        /* \"#utility.yul\":7972:7978   */\n      dup3\n        /* \"#utility.yul\":7967:7970   */\n      dup3\n        /* \"#utility.yul\":7960:7979   */\n      mstore\n        /* \"#utility.yul\":8012:8016   */\n      0x20\n        /* \"#utility.yul\":8007:8010   */\n      dup3\n        /* \"#utility.yul\":8003:8017   */\n      add\n        /* \"#utility.yul\":7988:8017   */\n      swap1\n      pop\n        /* \"#utility.yul\":7854:8023   */\n      swap3\n      swap2\n      pop\n      pop\n      jump\t// out\n        /* \"#utility.yul\":8029:8250   */\n    tag_157:\n        /* \"#utility.yul\":8169:8203   */\n      0x596f75206861766520696e73756666696369656e74207065726d697373696f6e\n        /* \"#utility.yul\":8165:8166   */\n      0x00\n        /* \"#utility.yul\":8157:8163   */\n      dup3\n        /* \"#utility.yul\":8153:8167   */\n      add\n        /* \"#utility.yul\":8146:8204   */\n      mstore\n        /* \"#utility.yul\":8238:8242   */\n      0x732e000000000000000000000000000000000000000000000000000000000000\n        /* \"#utility.yul\":8233:8235   */\n      0x20\n        /* \"#utility.yul\":8225:8231   */\n      dup3\n        /* \"#utility.yul\":8221:8236   */\n      add\n        /* \"#utility.yul\":8214:8243   */\n      mstore\n        /* \"#utility.yul\":8029:8250   */\n      pop\n      jump\t// out\n        /* \"#utility.yul\":8256:8622   */\n    tag_158:\n        /* \"#utility.yul\":8398:8401   */\n      0x00\n        /* \"#utility.yul\":8419:8486   */\n      tag_272\n        /* \"#utility.yul\":8483:8485   */\n      0x22\n        /* \"#utility.yul\":8478:8481   */\n      dup4\n        /* \"#utility.yul\":8419:8486   */\n      tag_156\n      jump\t// in\n    tag_272:\n        /* \"#utility.yul\":8412:8486   */\n      swap2\n      pop\n        /* \"#utility.yul\":8495:8588   */\n      tag_273\n        /* \"#utility.yul\":8584:8587   */\n      dup3\n        /* \"#utility.yul\":8495:8588   */\n      tag_157\n      jump\t// in\n    tag_273:\n        /* \"#utility.yul\":8613:8615   */\n      0x40\n        /* \"#utility.yul\":8608:8611   */\n      dup3\n        /* \"#utility.yul\":8604:8616   */\n      add\n        /* \"#utility.yul\":8597:8616   */\n      swap1\n      pop\n        /* \"#utility.yul\":8256:8622   */\n      swap2\n      swap1\n      pop\n      jump\t// out\n        /* \"#utility.yul\":8628:9047   */\n    tag_55:\n        /* \"#utility.yul\":8794:8798   */\n      0x00\n        /* \"#utility.yul\":8832:8834   */\n      0x20\n        /* \"#utility.yul\":8821:8830   */\n      dup3\n        /* \"#utility.yul\":8817:8835   */\n      add\n        /* \"#utility.yul\":8809:8835   */\n      swap1\n      pop\n        /* \"#utility.yul\":8881:8890   */\n      dup2\n        /* \"#utility.yul\":8875:8879   */\n      dup2\n        /* \"#utility.yul\":8871:8891   */\n      sub\n        /* \"#utility.yul\":8867:8868   */\n      0x00\n        /* \"#utility.yul\":8856:8865   */\n      dup4\n        /* \"#utility.yul\":8852:8869   */\n      add\n        /* \"#utility.yul\":8845:8892   */\n      mstore\n        /* \"#utility.yul\":8909:9040   */\n      tag_275\n        /* \"#utility.yul\":9035:9039   */\n      dup2\n        /* \"#utility.yul\":8909:9040   */\n      tag_158\n      jump\t// in\n    tag_275:\n        /* \"#utility.yul\":8901:9040   */\n      swap1\n      pop\n        /* \"#utility.yul\":8628:9047   */\n      swap2\n      swap1\n      pop\n      jump\t// out\n        /* \"#utility.yul\":9053:9233   */\n    tag_159:\n        /* \"#utility.yul\":9101:9178   */\n      0x4e487b7100000000000000000000000000000000000000000000000000000000\n        /* \"#utility.yul\":9098:9099   */\n      0x00\n        /* \"#utility.yul\":9091:9179   */\n      mstore\n        /* \"#utility.yul\":9198:9202   */\n      0x41\n        /* \"#utility.yul\":9195:9196   */\n      0x04\n        /* \"#utility.yul\":9188:9203   */\n      mstore\n        /* \"#utility.yul\":9222:9226   */\n      0x24\n        /* \"#utility.yul\":9219:9220   */\n      0x00\n        /* \"#utility.yul\":9212:9227   */\n      revert\n        /* \"#utility.yul\":9239:9419   */\n    tag_160:\n        /* \"#utility.yul\":9287:9364   */\n      0x4e487b7100000000000000000000000000000000000000000000000000000000\n        /* \"#utility.yul\":9284:9285   */\n      0x00\n        /* \"#utility.yul\":9277:9365   */\n      mstore\n        /* \"#utility.yul\":9384:9388   */\n      0x22\n        /* \"#utility.yul\":9381:9382   */\n      0x04\n        /* \"#utility.yul\":9374:9389   */\n      mstore\n        /* \"#utility.yul\":9408:9412   */\n      0x24\n        /* \"#utility.yul\":9405:9406   */\n      0x00\n        /* \"#utility.yul\":9398:9413   */\n      revert\n        /* \"#utility.yul\":9425:9745   */\n    tag_67:\n        /* \"#utility.yul\":9469:9475   */\n      0x00\n        /* \"#utility.yul\":9506:9507   */\n      0x02\n        /* \"#utility.yul\":9500:9504   */\n      dup3\n        /* \"#utility.yul\":9496:9508   */\n      div\n        /* \"#utility.yul\":9486:9508   */\n      swap1\n      pop\n        /* \"#utility.yul\":9553:9554   */\n      0x01\n        /* \"#utility.yul\":9547:9551   */\n      dup3\n        /* \"#utility.yul\":9543:9555   */\n      and\n        /* \"#utility.yul\":9574:9592   */\n      dup1\n        /* \"#utility.yul\":9564:9645   */\n      tag_279\n      jumpi\n        /* \"#utility.yul\":9630:9634   */\n      0x7f\n        /* \"#utility.yul\":9622:9628   */\n      dup3\n        /* \"#utility.yul\":9618:9635   */\n      and\n        /* \"#utility.yul\":9608:9635   */\n      swap2\n      pop\n        /* \"#utility.yul\":9564:9645   */\n    tag_279:\n        /* \"#utility.yul\":9692:9694   */\n      0x20\n        /* \"#utility.yul\":9684:9690   */\n      dup3\n        /* \"#utility.yul\":9681:9695   */\n      lt\n        /* \"#utility.yul\":9661:9679   */\n      dup2\n        /* \"#utility.yul\":9658:9696   */\n      sub\n        /* \"#utility.yul\":9655:9739   */\n      tag_280\n      jumpi\n        /* \"#utility.yul\":9711:9729   */\n      tag_281\n      tag_160\n      jump\t// in\n    tag_281:\n        /* \"#utility.yul\":9655:9739   */\n    tag_280:\n        /* \"#utility.yul\":9476:9745   */\n      pop\n        /* \"#utility.yul\":9425:9745   */\n      swap2\n      swap1\n      pop\n      jump\t// out\n        /* \"#utility.yul\":9751:9892   */\n    tag_161:\n        /* \"#utility.yul\":9800:9804   */\n      0x00\n        /* \"#utility.yul\":9823:9826   */\n      dup2\n        /* \"#utility.yul\":9815:9826   */\n      swap1\n      pop\n        /* \"#utility.yul\":9846:9849   */\n      dup2\n        /* \"#utility.yul\":9843:9844   */\n      0x00\n        /* \"#utility.yul\":9836:9850   */\n      mstore\n        /* \"#utility.yul\":9880:9884   */\n      0x20\n        /* \"#utility.yul\":9877:9878   */\n      0x00\n        /* \"#utility.yul\":9867:9885   */\n      keccak256\n        /* \"#utility.yul\":9859:9885   */\n      swap1\n      pop\n        /* \"#utility.yul\":9751:9892   */\n      swap2\n      swap1\n      pop\n      jump\t// out\n        /* \"#utility.yul\":9898:9991   */\n    tag_162:\n        /* \"#utility.yul\":9935:9941   */\n      0x00\n        /* \"#utility.yul\":9982:9984   */\n      0x20\n        /* \"#utility.yul\":9977:9979   */\n      0x1f\n        /* \"#utility.yul\":9970:9975   */\n      dup4\n        /* \"#utility.yul\":9966:9980   */\n      add\n        /* \"#utility.yul\":9962:9985   */\n      div\n        /* \"#utility.yul\":9952:9985   */\n      swap1\n      pop\n        /* \"#utility.yul\":9898:9991   */\n      swap2\n      swap1\n      pop\n      jump\t// out\n        /* \"#utility.yul\":9997:10104   */\n    tag_163:\n        /* \"#utility.yul\":10041:10049   */\n      0x00\n        /* \"#utility.yul\":10091:10096   */\n      dup3\n        /* \"#utility.yul\":10085:10089   */\n      dup3\n        /* \"#utility.yul\":10081:10097   */\n      shl\n        /* \"#utility.yul\":10060:10097   */\n      swap1\n      pop\n        /* \"#utility.yul\":9997:10104   */\n      swap3\n      swap2\n      pop\n      pop\n      jump\t// out\n        /* \"#utility.yul\":10110:10503   */\n    tag_164:\n        /* \"#utility.yul\":10179:10185   */\n      0x00\n        /* \"#utility.yul\":10229:10230   */\n      0x08\n        /* \"#utility.yul\":10217:10227   */\n      dup4\n        /* \"#utility.yul\":10213:10231   */\n      mul\n        /* \"#utility.yul\":10252:10349   */\n      tag_286\n        /* \"#utility.yul\":10282:10348   */\n      0xffffffffffffffffffffffffffffffffffffffffffffffffffffffffffffffff\n        /* \"#utility.yul\":10271:10280   */\n      dup3\n        /* \"#utility.yul\":10252:10349   */\n      tag_163\n      jump\t// in\n    tag_286:\n        /* \"#utility.yul\":10370:10409   */\n      tag_287\n        /* \"#utility.yul\":10400:10408   */\n      dup7\n        /* \"#utility.yul\":10389:10398   */\n      dup4\n        /* \"#utility.yul\":10370:10409   */\n      tag_163\n      jump\t// in\n    tag_287:\n        /* \"#utility.yul\":10358:10409   */\n      swap6\n      pop\n        /* \"#utility.yul\":10442:10446   */\n      dup1\n        /* \"#utility.yul\":10438:10447   */\n      not\n        /* \"#utility.yul\":10431:10436   */\n      dup5\n        /* \"#utility.yul\":10427:10448   */\n      and\n        /* \"#utility.yul\":10418:10448   */\n      swap4\n      pop\n        /* \"#utility.yul\":10491:10495   */\n      dup1\n        /* \"#utility.yul\":10481:10489   */\n      dup7\n        /* \"#utility.yul\":10477:10496   */\n      and\n        /* \"#utility.yul\":10470:10475   */\n      dup5\n        /* \"#utility.yul\":10467:10497   */\n      or\n        /* \"#utility.yul\":10457:10497   */\n      swap3\n      pop\n        /* \"#utility.yul\":10186:10503   */\n      pop\n      pop\n        /* \"#utility.yul\":10110:10503   */\n      swap4\n      swap3\n      pop\n      pop\n      pop\n      jump\t// out\n        /* \"#utility.yul\":10509:10569   */\n    tag_165:\n        /* \"#utility.yul\":10537:10540   */\n      0x00\n        /* \"#utility.yul\":10558:10563   */\n      dup2\n        /* \"#utility.yul\":10551:10563   */\n      swap1\n      pop\n        /* \"#utility.yul\":10509:10569   */\n      swap2\n      swap1\n      pop\n      jump\t// out\n        /* \"#utility.yul\":10575:10717   */\n    tag_166:\n        /* \"#utility.yul\":10625:10634   */\n      0x00\n        /* \"#utility.yul\":10658:10711   */\n      tag_290\n        /* \"#utility.yul\":10676:10710   */\n      tag_291\n        /* \"#utility.yul\":10685:10709   */\n      tag_292\n        /* \"#utility.yul\":10703:10708   */\n      dup5\n        /* \"#utility.yul\":10685:10709   */\n      tag_143\n      jump\t// in\n    tag_292:\n        /* \"#utility.yul\":10676:10710   */\n      tag_165\n      jump\t// in\n    tag_291:\n        /* \"#utility.yul\":10658:10711   */\n      tag_143\n      jump\t// in\n    tag_290:\n        /* \"#utility.yul\":10645:10711   */\n      swap1\n      pop\n        /* \"#utility.yul\":10575:10717   */\n      swap2\n      swap1\n      pop\n      jump\t// out\n        /* \"#utility.yul\":10723:10798   */\n    tag_167:\n        /* \"#utility.yul\":10766:10769   */\n      0x00\n        /* \"#utility.yul\":10787:10792   */\n      dup2\n        /* \"#utility.yul\":10780:10792   */\n      swap1\n      pop\n        /* \"#utility.yul\":10723:10798   */\n      swap2\n      swap1\n      pop\n      jump\t// out\n        /* \"#utility.yul\":10804:11073   */\n    tag_168:\n        /* \"#utility.yul\":10914:10953   */\n      tag_295\n        /* \"#utility.yul\":10945:10952   */\n      dup4\n        /* \"#utility.yul\":10914:10953   */\n      tag_166\n      jump\t// in\n    tag_295:\n        /* \"#utility.yul\":10975:11066   */\n      tag_296\n        /* \"#utility.yul\":11024:11065   */\n      tag_297\n        /* \"#utility.yul\":11048:11064   */\n      dup3\n        /* \"#utility.yul\":11024:11065   */\n      tag_167\n      jump\t// in\n    tag_297:\n        /* \"#utility.yul\":11016:11022   */\n      dup5\n        /* \"#utility.yul\":11009:11013   */\n      dup5\n        /* \"#utility.yul\":11003:11014   */\n      sload\n        /* \"#utility.yul\":10975:11066   */\n      tag_164\n      jump\t// in\n    tag_296:\n        /* \"#utility.yul\":10969:10973   */\n      dup3\n        /* \"#utility.yul\":10962:11067   */\n      sstore\n        /* \"#utility.yul\":10880:11073   */\n      pop\n        /* \"#utility.yul\":10804:11073   */\n      pop\n      pop\n      pop\n      jump\t// out\n        /* \"#utility.yul\":11079:11152   */\n    tag_169:\n        /* \"#utility.yul\":11124:11127   */\n      0x00\n        /* \"#utility.yul\":11079:11152   */\n      swap1\n      jump\t// out\n        /* \"#utility.yul\":11158:11347   */\n    tag_170:\n        /* \"#utility.yul\":11235:11267   */\n      tag_300\n      tag_169\n      jump\t// in\n    tag_300:\n        /* \"#utility.yul\":11276:11341   */\n      tag_301\n        /* \"#utility.yul\":11334:11340   */\n      dup2\n        /* \"#utility.yul\":11326:11332   */\n      dup5\n        /* \"#utility.yul\":11320:11324   */\n      dup5\n        /* \"#utility.yul\":11276:11341   */\n      tag_168\n      jump\t// in\n    tag_301:\n        /* \"#utility.yul\":11211:11347   */\n      pop\n        /* \"#utility.yul\":11158:11347   */\n      pop\n      pop\n      jump\t// out\n        /* \"#utility.yul\":11353:11539   */\n    tag_171:\n        /* \"#utility.yul\":11413:11533   */\n    tag_303:\n        /* \"#utility.yul\":11430:11433   */\n      dup2\n        /* \"#utility.yul\":11423:11428   */\n      dup2\n        /* \"#utility.yul\":11420:11434   */\n      lt\n        /* \"#utility.yul\":11413:11533   */\n      iszero\n      tag_305\n      jumpi\n        /* \"#utility.yul\":11484:11523   */\n      tag_306\n        /* \"#utility.yul\":11521:11522   */\n      0x00\n        /* \"#utility.yul\":11514:11519   */\n      dup3\n        /* \"#utility.yul\":11484:11523   */\n      tag_170\n      jump\t// in\n    tag_306:\n        /* \"#utility.yul\":11457:11458   */\n      0x01\n        /* \"#utility.yul\":11450:11455   */\n      dup2\n        /* \"#utility.yul\":11446:11459   */\n      add\n        /* \"#utility.yul\":11437:11459   */\n      swap1\n      pop\n        /* \"#utility.yul\":11413:11533   */\n      jump(tag_303)\n    tag_305:\n        /* \"#utility.yul\":11353:11539   */\n      pop\n      pop\n      jump\t// out\n        /* \"#utility.yul\":11545:12088   */\n    tag_172:\n        /* \"#utility.yul\":11646:11648   */\n      0x1f\n        /* \"#utility.yul\":11641:11644   */\n      dup3\n        /* \"#utility.yul\":11638:11649   */\n      gt\n        /* \"#utility.yul\":11635:12081   */\n      iszero\n      tag_308\n      jumpi\n        /* \"#utility.yul\":11680:11718   */\n      tag_309\n        /* \"#utility.yul\":11712:11717   */\n      dup2\n        /* \"#utility.yul\":11680:11718   */\n      tag_161\n      jump\t// in\n    tag_309:\n        /* \"#utility.yul\":11764:11793   */\n      tag_310\n        /* \"#utility.yul\":11782:11792   */\n      dup5\n        /* \"#utility.yul\":11764:11793   */\n      tag_162\n      jump\t// in\n    tag_310:\n        /* \"#utility.yul\":11754:11762   */\n      dup2\n        /* \"#utility.yul\":11750:11794   */\n      add\n        /* \"#utility.yul\":11947:11949   */\n      0x20\n        /* \"#utility.yul\":11935:11945   */\n      dup6\n        /* \"#utility.yul\":11932:11950   */\n      lt\n        /* \"#utility.yul\":11929:11978   */\n      iszero\n      tag_311\n      jumpi\n        /* \"#utility.yul\":11968:11976   */\n      dup2\n        /* \"#utility.yul\":11953:11976   */\n      swap1\n      pop\n        /* \"#utility.yul\":11929:11978   */\n    tag_311:\n        /* \"#utility.yul\":11991:12071   */\n      tag_312\n        /* \"#utility.yul\":12047:12069   */\n      tag_313\n        /* \"#utility.yul\":12065:12068   */\n      dup6\n        /* \"#utility.yul\":12047:12069   */\n      tag_162\n      jump\t// in\n    tag_313:\n        /* \"#utility.yul\":12037:12045   */\n      dup4\n        /* \"#utility.yul\":12033:12070   */\n      add\n        /* \"#utility.yul\":12020:12031   */\n      dup3\n        /* \"#utility.yul\":11991:12071   */\n      tag_171\n      jump\t// in\n    tag_312:\n        /* \"#utility.yul\":11650:12081   */\n      pop\n      pop\n        /* \"#utility.yul\":11635:12081   */\n    tag_308:\n        /* \"#utility.yul\":11545:12088   */\n      pop\n      pop\n      pop\n      jump\t// out\n        /* \"#utility.yul\":12094:12211   */\n    tag_173:\n        /* \"#utility.yul\":12148:12156   */\n      0x00\n        /* \"#utility.yul\":12198:12203   */\n      dup3\n        /* \"#utility.yul\":12192:12196   */\n      dup3\n        /* \"#utility.yul\":12188:12204   */\n      shr\n        /* \"#utility.yul\":12167:12204   */\n      swap1\n      pop\n        /* \"#utility.yul\":12094:12211   */\n      swap3\n      swap2\n      pop\n      pop\n      jump\t// out\n        /* \"#utility.yul\":12217:12386   */\n    tag_174:\n        /* \"#utility.yul\":12261:12267   */\n      0x00\n        /* \"#utility.yul\":12294:12345   */\n      tag_316\n        /* \"#utility.yul\":12342:12343   */\n      0x00\n        /* \"#utility.yul\":12338:12344   */\n      not\n        /* \"#utility.yul\":12330:12335   */\n      dup5\n        /* \"#utility.yul\":12327:12328   */\n      0x08\n        /* \"#utility.yul\":12323:12336   */\n      mul\n        /* \"#utility.yul\":12294:12345   */\n      tag_173\n      jump\t// in\n    tag_316:\n        /* \"#utility.yul\":12290:12346   */\n      not\n        /* \"#utility.yul\":12375:12379   */\n      dup1\n        /* \"#utility.yul\":12369:12373   */\n      dup4\n        /* \"#utility.yul\":12365:12380   */\n      and\n        /* \"#utility.yul\":12355:12380   */\n      swap2\n      pop\n        /* \"#utility.yul\":12268:12386   */\n      pop\n        /* \"#utility.yul\":12217:12386   */\n      swap3\n      swap2\n      pop\n      pop\n      jump\t// out\n        /* \"#utility.yul\":12391:12686   */\n    tag_175:\n        /* \"#utility.yul\":12467:12471   */\n      0x00\n        /* \"#utility.yul\":12613:12642   */\n      tag_318\n        /* \"#utility.yul\":12638:12641   */\n      dup4\n        /* \"#utility.yul\":12632:12636   */\n      dup4\n        /* \"#utility.yul\":12613:12642   */\n      tag_174\n      jump\t// in\n    tag_318:\n        /* \"#utility.yul\":12605:12642   */\n      swap2\n      pop\n        /* \"#utility.yul\":12675:12678   */\n      dup3\n        /* \"#utility.yul\":12672:12673   */\n      0x02\n        /* \"#utility.yul\":12668:12679   */\n      mul\n        /* \"#utility.yul\":12662:12666   */\n      dup3\n        /* \"#utility.yul\":12659:12680   */\n      or\n        /* \"#utility.yul\":12651:12680   */\n      swap1\n      pop\n        /* \"#utility.yul\":12391:12686   */\n      swap3\n      swap2\n      pop\n      pop\n      jump\t// out\n        /* \"#utility.yul\":12691:14086   */\n    tag_58:\n        /* \"#utility.yul\":12808:12845   */\n      tag_320\n        /* \"#utility.yul\":12841:12844   */\n      dup3\n        /* \"#utility.yul\":12808:12845   */\n      tag_148\n      jump\t// in\n    tag_320:\n        /* \"#utility.yul\":12910:12928   */\n      0xffffffffffffffff\n        /* \"#utility.yul\":12902:12908   */\n      dup2\n        /* \"#utility.yul\":12899:12929   */\n      gt\n        /* \"#utility.yul\":12896:12952   */\n      iszero\n      tag_321\n      jumpi\n        /* \"#utility.yul\":12932:12950   */\n      tag_322\n      tag_159\n      jump\t// in\n    tag_322:\n        /* \"#utility.yul\":12896:12952   */\n    tag_321:\n        /* \"#utility.yul\":12976:13014   */\n      tag_323\n        /* \"#utility.yul\":13008:13012   */\n      dup3\n        /* \"#utility.yul\":13002:13013   */\n      sload\n        /* \"#utility.yul\":12976:13014   */\n      tag_67\n      jump\t// in\n    tag_323:\n        /* \"#utility.yul\":13061:13128   */\n      tag_324\n        /* \"#utility.yul\":13121:13127   */\n      dup3\n        /* \"#utility.yul\":13113:13119   */\n      dup3\n        /* \"#utility.yul\":13107:13111   */\n      dup6\n        /* \"#utility.yul\":13061:13128   */\n      tag_172\n      jump\t// in\n    tag_324:\n        /* \"#utility.yul\":13155:13156   */\n      0x00\n        /* \"#utility.yul\":13179:13183   */\n      0x20\n        /* \"#utility.yul\":13166:13183   */\n      swap1\n      pop\n        /* \"#utility.yul\":13211:13213   */\n      0x1f\n        /* \"#utility.yul\":13203:13209   */\n      dup4\n        /* \"#utility.yul\":13200:13214   */\n      gt\n        /* \"#utility.yul\":13228:13229   */\n      0x01\n        /* \"#utility.yul\":13223:13841   */\n      dup2\n      eq\n      tag_326\n      jumpi\n        /* \"#utility.yul\":13885:13886   */\n      0x00\n        /* \"#utility.yul\":13902:13908   */\n      dup5\n        /* \"#utility.yul\":13899:13976   */\n      iszero\n      tag_327\n      jumpi\n        /* \"#utility.yul\":13951:13960   */\n      dup3\n        /* \"#utility.yul\":13946:13949   */\n      dup8\n        /* \"#utility.yul\":13942:13961   */\n      add\n        /* \"#utility.yul\":13936:13962   */\n      mload\n        /* \"#utility.yul\":13927:13962   */\n      swap1\n      pop\n        /* \"#utility.yul\":13899:13976   */\n    tag_327:\n        /* \"#utility.yul\":14002:14069   */\n      tag_328\n        /* \"#utility.yul\":14062:14068   */\n      dup6\n        /* \"#utility.yul\":14055:14060   */\n      dup3\n        /* \"#utility.yul\":14002:14069   */\n      tag_175\n      jump\t// in\n    tag_328:\n        /* \"#utility.yul\":13996:14000   */\n      dup7\n        /* \"#utility.yul\":13989:14070   */\n      sstore\n        /* \"#utility.yul\":13858:14080   */\n      pop\n        /* \"#utility.yul\":13193:14080   */\n      jump(tag_325)\n        /* \"#utility.yul\":13223:13841   */\n    tag_326:\n        /* \"#utility.yul\":13275:13279   */\n      0x1f\n        /* \"#utility.yul\":13271:13280   */\n      not\n        /* \"#utility.yul\":13263:13269   */\n      dup5\n        /* \"#utility.yul\":13259:13281   */\n      and\n        /* \"#utility.yul\":13309:13346   */\n      tag_329\n        /* \"#utility.yul\":13341:13345   */\n      dup7\n        /* \"#utility.yul\":13309:13346   */\n      tag_161\n      jump\t// in\n    tag_329:\n        /* \"#utility.yul\":13368:13369   */\n      0x00\n        /* \"#utility.yul\":13382:13590   */\n    tag_330:\n        /* \"#utility.yul\":13396:13403   */\n      dup3\n        /* \"#utility.yul\":13393:13394   */\n      dup2\n        /* \"#utility.yul\":13390:13404   */\n      lt\n        /* \"#utility.yul\":13382:13590   */\n      iszero\n      tag_332\n      jumpi\n        /* \"#utility.yul\":13475:13484   */\n      dup5\n        /* \"#utility.yul\":13470:13473   */\n      dup10\n        /* \"#utility.yul\":13466:13485   */\n      add\n        /* \"#utility.yul\":13460:13486   */\n      mload\n        /* \"#utility.yul\":13452:13458   */\n      dup3\n        /* \"#utility.yul\":13445:13487   */\n      sstore\n        /* \"#utility.yul\":13526:13527   */\n      0x01\n        /* \"#utility.yul\":13518:13524   */\n      dup3\n        /* \"#utility.yul\":13514:13528   */\n      add\n        /* \"#utility.yul\":13504:13528   */\n      swap2\n      pop\n        /* \"#utility.yul\":13573:13575   */\n      0x20\n        /* \"#utility.yul\":13562:13571   */\n      dup6\n        /* \"#utility.yul\":13558:13576   */\n      add\n        /* \"#utility.yul\":13545:13576   */\n      swap5\n      pop\n        /* \"#utility.yul\":13419:13423   */\n      0x20\n        /* \"#utility.yul\":13416:13417   */\n      dup2\n        /* \"#utility.yul\":13412:13424   */\n      add\n        /* \"#utility.yul\":13407:13424   */\n      swap1\n      pop\n        /* \"#utility.yul\":13382:13590   */\n      jump(tag_330)\n    tag_332:\n        /* \"#utility.yul\":13618:13624   */\n      dup7\n        /* \"#utility.yul\":13609:13616   */\n      dup4\n        /* \"#utility.yul\":13606:13625   */\n      lt\n        /* \"#utility.yul\":13603:13782   */\n      iszero\n      tag_333\n      jumpi\n        /* \"#utility.yul\":13676:13685   */\n      dup5\n        /* \"#utility.yul\":13671:13674   */\n      dup10\n        /* \"#utility.yul\":13667:13686   */\n      add\n        /* \"#utility.yul\":13661:13687   */\n      mload\n        /* \"#utility.yul\":13719:13767   */\n      tag_334\n        /* \"#utility.yul\":13761:13765   */\n      0x1f\n        /* \"#utility.yul\":13753:13759   */\n      dup10\n        /* \"#utility.yul\":13749:13766   */\n      and\n        /* \"#utility.yul\":13738:13747   */\n      dup3\n        /* \"#utility.yul\":13719:13767   */\n      tag_174\n      jump\t// in\n    tag_334:\n        /* \"#utility.yul\":13711:13717   */\n      dup4\n        /* \"#utility.yul\":13704:13768   */\n      sstore\n        /* \"#utility.yul\":13626:13782   */\n      pop\n        /* \"#utility.yul\":13603:13782   */\n    tag_333:\n        /* \"#utility.yul\":13828:13829   */\n      0x01\n        /* \"#utility.yul\":13824:13825   */\n      0x02\n        /* \"#utility.yul\":13816:13822   */\n      dup9\n        /* \"#utility.yul\":13812:13826   */\n      mul\n        /* \"#utility.yul\":13808:13830   */\n      add\n        /* \"#utility.yul\":13802:13806   */\n      dup9\n        /* \"#utility.yul\":13795:13831   */\n      sstore\n        /* \"#utility.yul\":13230:13841   */\n      pop\n      pop\n      pop\n        /* \"#utility.yul\":13193:14080   */\n    tag_325:\n      pop\n        /* \"#utility.yul\":12783:14086   */\n      pop\n      pop\n      pop\n        /* \"#utility.yul\":12691:14086   */\n      pop\n      pop\n      jump\t// out\n        /* \"#utility.yul\":14092:14272   */\n    tag_176:\n        /* \"#utility.yul\":14140:14217   */\n      0x4e487b7100000000000000000000000000000000000000000000000000000000\n        /* \"#utility.yul\":14137:14138   */\n      0x00\n        /* \"#utility.yul\":14130:14218   */\n      mstore\n        /* \"#utility.yul\":14237:14241   */\n      0x11\n        /* \"#utility.yul\":14234:14235   */\n      0x04\n        /* \"#utility.yul\":14227:14242   */\n      mstore\n        /* \"#utility.yul\":14261:14265   */\n      0x24\n        /* \"#utility.yul\":14258:14259   */\n      0x00\n        /* \"#utility.yul\":14251:14266   */\n      revert\n        /* \"#utility.yul\":14278:14511   */\n    tag_60:\n        /* \"#utility.yul\":14317:14320   */\n      0x00\n        /* \"#utility.yul\":14340:14364   */\n      tag_337\n        /* \"#utility.yul\":14358:14363   */\n      dup3\n        /* \"#utility.yul\":14340:14364   */\n      tag_143\n      jump\t// in\n    tag_337:\n        /* \"#utility.yul\":14331:14364   */\n      swap2\n      pop\n        /* \"#utility.yul\":14386:14452   */\n      0xffffffffffffffffffffffffffffffffffffffffffffffffffffffffffffffff\n        /* \"#utility.yul\":14379:14384   */\n      dup3\n        /* \"#utility.yul\":14376:14453   */\n      sub\n        /* \"#utility.yul\":14373:14476   */\n      tag_338\n      jumpi\n        /* \"#utility.yul\":14456:14474   */\n      tag_339\n      tag_176\n      jump\t// in\n    tag_339:\n        /* \"#utility.yul\":14373:14476   */\n    tag_338:\n        /* \"#utility.yul\":14503:14504   */\n      0x01\n        /* \"#utility.yul\":14496:14501   */\n      dup3\n        /* \"#utility.yul\":14492:14505   */\n      add\n        /* \"#utility.yul\":14485:14505   */\n      swap1\n      pop\n        /* \"#utility.yul\":14278:14511   */\n      swap2\n      swap1\n      pop\n      jump\t// out\n        /* \"#utility.yul\":14517:14697   */\n    tag_78:\n        /* \"#utility.yul\":14565:14642   */\n      0x4e487b7100000000000000000000000000000000000000000000000000000000\n        /* \"#utility.yul\":14562:14563   */\n      0x00\n        /* \"#utility.yul\":14555:14643   */\n      mstore\n        /* \"#utility.yul\":14662:14666   */\n      0x32\n        /* \"#utility.yul\":14659:14660   */\n      0x04\n        /* \"#utility.yul\":14652:14667   */\n      mstore\n        /* \"#utility.yul\":14686:14690   */\n      0x24\n        /* \"#utility.yul\":14683:14684   */\n      0x00\n        /* \"#utility.yul\":14676:14691   */\n      revert\n        /* \"#utility.yul\":14703:14871   */\n    tag_177:\n        /* \"#utility.yul\":14843:14863   */\n      0x5573657220616c726561647920766f7465640000000000000000000000000000\n        /* \"#utility.yul\":14839:14840   */\n      0x00\n        /* \"#utility.yul\":14831:14837   */\n      dup3\n        /* \"#utility.yul\":14827:14841   */\n      add\n        /* \"#utility.yul\":14820:14864   */\n      mstore\n        /* \"#utility.yul\":14703:14871   */\n      pop\n      jump\t// out\n        /* \"#utility.yul\":14877:15243   */\n    tag_178:\n        /* \"#utility.yul\":15019:15022   */\n      0x00\n        /* \"#utility.yul\":15040:15107   */\n      tag_343\n        /* \"#utility.yul\":15104:15106   */\n      0x12\n        /* \"#utility.yul\":15099:15102   */\n      dup4\n        /* \"#utility.yul\":15040:15107   */\n      tag_156\n      jump\t// in\n    tag_343:\n        /* \"#utility.yul\":15033:15107   */\n      swap2\n      pop\n        /* \"#utility.yul\":15116:15209   */\n      tag_344\n        /* \"#utility.yul\":15205:15208   */\n      dup3\n        /* \"#utility.yul\":15116:15209   */\n      tag_177\n      jump\t// in\n    tag_344:\n        /* \"#utility.yul\":15234:15236   */\n      0x20\n        /* \"#utility.yul\":15229:15232   */\n      dup3\n        /* \"#utility.yul\":15225:15237   */\n      add\n        /* \"#utility.yul\":15218:15237   */\n      swap1\n      pop\n        /* \"#utility.yul\":14877:15243   */\n      swap2\n      swap1\n      pop\n      jump\t// out\n        /* \"#utility.yul\":15249:15668   */\n    tag_82:\n        /* \"#utility.yul\":15415:15419   */\n      0x00\n        /* \"#utility.yul\":15453:15455   */\n      0x20\n        /* \"#utility.yul\":15442:15451   */\n      dup3\n        /* \"#utility.yul\":15438:15456   */\n      add\n        /* \"#utility.yul\":15430:15456   */\n      swap1\n      pop\n        /* \"#utility.yul\":15502:15511   */\n      dup2\n        /* \"#utility.yul\":15496:15500   */\n      dup2\n        /* \"#utility.yul\":15492:15512   */\n      sub\n        /* \"#utility.yul\":15488:15489   */\n      0x00\n        /* \"#utility.yul\":15477:15486   */\n      dup4\n        /* \"#utility.yul\":15473:15490   */\n      add\n        /* \"#utility.yul\":15466:15513   */\n      mstore\n        /* \"#utility.yul\":15530:15661   */\n      tag_346\n        /* \"#utility.yul\":15656:15660   */\n      dup2\n        /* \"#utility.yul\":15530:15661   */\n      tag_178\n      jump\t// in\n    tag_346:\n        /* \"#utility.yul\":15522:15661   */\n      swap1\n      pop\n        /* \"#utility.yul\":15249:15668   */\n      swap2\n      swap1\n      pop\n      jump\t// out\n        /* \"#utility.yul\":15674:15840   */\n    tag_179:\n        /* \"#utility.yul\":15814:15832   */\n      0x566f74696e6720697320636c6f73656400000000000000000000000000000000\n        /* \"#utility.yul\":15810:15811   */\n      0x00\n        /* \"#utility.yul\":15802:15808   */\n      dup3\n        /* \"#utility.yul\":15798:15812   */\n      add\n        /* \"#utility.yul\":15791:15833   */\n      mstore\n        /* \"#utility.yul\":15674:15840   */\n      pop\n      jump\t// out\n        /* \"#utility.yul\":15846:16212   */\n    tag_180:\n        /* \"#utility.yul\":15988:15991   */\n      0x00\n        /* \"#utility.yul\":16009:16076   */\n      tag_349\n        /* \"#utility.yul\":16073:16075   */\n      0x10\n        /* \"#utility.yul\":16068:16071   */\n      dup4\n        /* \"#utility.yul\":16009:16076   */\n      tag_156\n      jump\t// in\n    tag_349:\n        /* \"#utility.yul\":16002:16076   */\n      swap2\n      pop\n        /* \"#utility.yul\":16085:16178   */\n      tag_350\n        /* \"#utility.yul\":16174:16177   */\n      dup3\n        /* \"#utility.yul\":16085:16178   */\n      tag_179\n      jump\t// in\n    tag_350:\n        /* \"#utility.yul\":16203:16205   */\n      0x20\n        /* \"#utility.yul\":16198:16201   */\n      dup3\n        /* \"#utility.yul\":16194:16206   */\n      add\n        /* \"#utility.yul\":16187:16206   */\n      swap1\n      pop\n        /* \"#utility.yul\":15846:16212   */\n      swap2\n      swap1\n      pop\n      jump\t// out\n        /* \"#utility.yul\":16218:16637   */\n    tag_87:\n        /* \"#utility.yul\":16384:16388   */\n      0x00\n        /* \"#utility.yul\":16422:16424   */\n      0x20\n        /* \"#utility.yul\":16411:16420   */\n      dup3\n        /* \"#utility.yul\":16407:16425   */\n      add\n        /* \"#utility.yul\":16399:16425   */\n      swap1\n      pop\n        /* \"#utility.yul\":16471:16480   */\n      dup2\n        /* \"#utility.yul\":16465:16469   */\n      dup2\n        /* \"#utility.yul\":16461:16481   */\n      sub\n        /* \"#utility.yul\":16457:16458   */\n      0x00\n        /* \"#utility.yul\":16446:16455   */\n      dup4\n        /* \"#utility.yul\":16442:16459   */\n      add\n        /* \"#utility.yul\":16435:16482   */\n      mstore\n        /* \"#utility.yul\":16499:16630   */\n      tag_352\n        /* \"#utility.yul\":16625:16629   */\n      dup2\n        /* \"#utility.yul\":16499:16630   */\n      tag_180\n      jump\t// in\n    tag_352:\n        /* \"#utility.yul\":16491:16630   */\n      swap1\n      pop\n        /* \"#utility.yul\":16218:16637   */\n      swap2\n      swap1\n      pop\n      jump\t// out\n        /* \"#utility.yul\":16643:16823   */\n    tag_93:\n        /* \"#utility.yul\":16691:16768   */\n      0x4e487b7100000000000000000000000000000000000000000000000000000000\n        /* \"#utility.yul\":16688:16689   */\n      0x00\n        /* \"#utility.yul\":16681:16769   */\n      mstore\n        /* \"#utility.yul\":16788:16792   */\n      0x21\n        /* \"#utility.yul\":16785:16786   */\n      0x04\n        /* \"#utility.yul\":16778:16793   */\n      mstore\n        /* \"#utility.yul\":16812:16816   */\n      0x24\n        /* \"#utility.yul\":16809:16810   */\n      0x00\n        /* \"#utility.yul\":16802:16817   */\n      revert\n        /* \"#utility.yul\":16829:17020   */\n    tag_103:\n        /* \"#utility.yul\":16869:16872   */\n      0x00\n        /* \"#utility.yul\":16888:16908   */\n      tag_355\n        /* \"#utility.yul\":16906:16907   */\n      dup3\n        /* \"#utility.yul\":16888:16908   */\n      tag_143\n      jump\t// in\n    tag_355:\n        /* \"#utility.yul\":16883:16908   */\n      swap2\n      pop\n        /* \"#utility.yul\":16922:16942   */\n      tag_356\n        /* \"#utility.yul\":16940:16941   */\n      dup4\n        /* \"#utility.yul\":16922:16942   */\n      tag_143\n      jump\t// in\n    tag_356:\n        /* \"#utility.yul\":16917:16942   */\n      swap3\n      pop\n        /* \"#utility.yul\":16965:16966   */\n      dup3\n        /* \"#utility.yul\":16962:16963   */\n      dup3\n        /* \"#utility.yul\":16958:16967   */\n      add\n        /* \"#utility.yul\":16951:16967   */\n      swap1\n      pop\n        /* \"#utility.yul\":16986:16989   */\n      dup1\n        /* \"#utility.yul\":16983:16984   */\n      dup3\n        /* \"#utility.yul\":16980:16990   */\n      gt\n        /* \"#utility.yul\":16977:17013   */\n      iszero\n      tag_357\n      jumpi\n        /* \"#utility.yul\":16993:17011   */\n      tag_358\n      tag_176\n      jump\t// in\n    tag_358:\n        /* \"#utility.yul\":16977:17013   */\n    tag_357:\n        /* \"#utility.yul\":16829:17020   */\n      swap3\n      swap2\n      pop\n      pop\n      jump\t// out\n        /* \"#utility.yul\":17026:17174   */\n    tag_181:\n        /* \"#utility.yul\":17128:17139   */\n      0x00\n        /* \"#utility.yul\":17165:17168   */\n      dup2\n        /* \"#utility.yul\":17150:17168   */\n      swap1\n      pop\n        /* \"#utility.yul\":17026:17174   */\n      swap3\n      swap2\n      pop\n      pop\n      jump\t// out\n        /* \"#utility.yul\":17180:17326   */\n    tag_182:\n        /* \"#utility.yul\":17277:17283   */\n      dup3\n        /* \"#utility.yul\":17272:17275   */\n      dup2\n        /* \"#utility.yul\":17267:17270   */\n      dup4\n        /* \"#utility.yul\":17254:17284   */\n      calldatacopy\n        /* \"#utility.yul\":17318:17319   */\n      0x00\n        /* \"#utility.yul\":17309:17315   */\n      dup4\n        /* \"#utility.yul\":17304:17307   */\n      dup4\n        /* \"#utility.yul\":17300:17316   */\n      add\n        /* \"#utility.yul\":17293:17320   */\n      mstore\n        /* \"#utility.yul\":17180:17326   */\n      pop\n      pop\n      pop\n      jump\t// out\n        /* \"#utility.yul\":17356:17686   */\n    tag_183:\n        /* \"#utility.yul\":17472:17475   */\n      0x00\n        /* \"#utility.yul\":17493:17582   */\n      tag_362\n        /* \"#utility.yul\":17575:17581   */\n      dup4\n        /* \"#utility.yul\":17570:17573   */\n      dup6\n        /* \"#utility.yul\":17493:17582   */\n      tag_181\n      jump\t// in\n    tag_362:\n        /* \"#utility.yul\":17486:17582   */\n      swap4\n      pop\n        /* \"#utility.yul\":17592:17648   */\n      tag_363\n        /* \"#utility.yul\":17641:17647   */\n      dup4\n        /* \"#utility.yul\":17636:17639   */\n      dup6\n        /* \"#utility.yul\":17629:17634   */\n      dup5\n        /* \"#utility.yul\":17592:17648   */\n      tag_182\n      jump\t// in\n    tag_363:\n        /* \"#utility.yul\":17673:17679   */\n      dup3\n        /* \"#utility.yul\":17668:17671   */\n      dup5\n        /* \"#utility.yul\":17664:17680   */\n      add\n        /* \"#utility.yul\":17657:17680   */\n      swap1\n      pop\n        /* \"#utility.yul\":17356:17686   */\n      swap4\n      swap3\n      pop\n      pop\n      pop\n      jump\t// out\n        /* \"#utility.yul\":17692:17987   */\n    tag_118:\n        /* \"#utility.yul\":17834:17837   */\n      0x00\n        /* \"#utility.yul\":17856:17961   */\n      tag_365\n        /* \"#utility.yul\":17957:17960   */\n      dup3\n        /* \"#utility.yul\":17948:17954   */\n      dup5\n        /* \"#utility.yul\":17940:17946   */\n      dup7\n        /* \"#utility.yul\":17856:17961   */\n      tag_183\n      jump\t// in\n    tag_365:\n        /* \"#utility.yul\":17849:17961   */\n      swap2\n      pop\n        /* \"#utility.yul\":17978:17981   */\n      dup2\n        /* \"#utility.yul\":17971:17981   */\n      swap1\n      pop\n        /* \"#utility.yul\":17692:17987   */\n      swap4\n      swap3\n      pop\n      pop\n      pop\n      jump\t// out\n        /* \"#utility.yul\":17993:18151   */\n    tag_184:\n        /* \"#utility.yul\":18133:18143   */\n      0x4163636570746564000000000000000000000000000000000000000000000000\n        /* \"#utility.yul\":18129:18130   */\n      0x00\n        /* \"#utility.yul\":18121:18127   */\n      dup3\n        /* \"#utility.yul\":18117:18131   */\n      add\n        /* \"#utility.yul\":18110:18144   */\n      mstore\n        /* \"#utility.yul\":17993:18151   */\n      pop\n      jump\t// out\n        /* \"#utility.yul\":18157:18557   */\n    tag_185:\n        /* \"#utility.yul\":18317:18320   */\n      0x00\n        /* \"#utility.yul\":18338:18422   */\n      tag_368\n        /* \"#utility.yul\":18420:18421   */\n      0x08\n        /* \"#utility.yul\":18415:18418   */\n      dup4\n        /* \"#utility.yul\":18338:18422   */\n      tag_181\n      jump\t// in\n    tag_368:\n        /* \"#utility.yul\":18331:18422   */\n      swap2\n      pop\n        /* \"#utility.yul\":18431:18524   */\n      tag_369\n        /* \"#utility.yul\":18520:18523   */\n      dup3\n        /* \"#utility.yul\":18431:18524   */\n      tag_184\n      jump\t// in\n    tag_369:\n        /* \"#utility.yul\":18549:18550   */\n      0x08\n        /* \"#utility.yul\":18544:18547   */\n      dup3\n        /* \"#utility.yul\":18540:18551   */\n      add\n        /* \"#utility.yul\":18533:18551   */\n      swap1\n      pop\n        /* \"#utility.yul\":18157:18557   */\n      swap2\n      swap1\n      pop\n      jump\t// out\n        /* \"#utility.yul\":18563:18944   */\n    tag_120:\n        /* \"#utility.yul\":18748:18751   */\n      0x00\n        /* \"#utility.yul\":18770:18918   */\n      tag_371\n        /* \"#utility.yul\":18914:18917   */\n      dup3\n        /* \"#utility.yul\":18770:18918   */\n      tag_185\n      jump\t// in\n    tag_371:\n        /* \"#utility.yul\":18763:18918   */\n      swap2\n      pop\n        /* \"#utility.yul\":18935:18938   */\n      dup2\n        /* \"#utility.yul\":18928:18938   */\n      swap1\n      pop\n        /* \"#utility.yul\":18563:18944   */\n      swap2\n      swap1\n      pop\n      jump\t// out\n        /* \"#utility.yul\":18950:19108   */\n    tag_186:\n        /* \"#utility.yul\":19090:19100   */\n      0x52656a6563746564000000000000000000000000000000000000000000000000\n        /* \"#utility.yul\":19086:19087   */\n      0x00\n        /* \"#utility.yul\":19078:19084   */\n      dup3\n        /* \"#utility.yul\":19074:19088   */\n      add\n        /* \"#utility.yul\":19067:19101   */\n      mstore\n        /* \"#utility.yul\":18950:19108   */\n      pop\n      jump\t// out\n        /* \"#utility.yul\":19114:19514   */\n    tag_187:\n        /* \"#utility.yul\":19274:19277   */\n      0x00\n        /* \"#utility.yul\":19295:19379   */\n      tag_374\n        /* \"#utility.yul\":19377:19378   */\n      0x08\n        /* \"#utility.yul\":19372:19375   */\n      dup4\n        /* \"#utility.yul\":19295:19379   */\n      tag_181\n      jump\t// in\n    tag_374:\n        /* \"#utility.yul\":19288:19379   */\n      swap2\n      pop\n        /* \"#utility.yul\":19388:19481   */\n      tag_375\n        /* \"#utility.yul\":19477:19480   */\n      dup3\n        /* \"#utility.yul\":19388:19481   */\n      tag_186\n      jump\t// in\n    tag_375:\n        /* \"#utility.yul\":19506:19507   */\n      0x08\n        /* \"#utility.yul\":19501:19504   */\n      dup3\n        /* \"#utility.yul\":19497:19508   */\n      add\n        /* \"#utility.yul\":19490:19508   */\n      swap1\n      pop\n        /* \"#utility.yul\":19114:19514   */\n      swap2\n      swap1\n      pop\n      jump\t// out\n        /* \"#utility.yul\":19520:19901   */\n    tag_122:\n        /* \"#utility.yul\":19705:19708   */\n      0x00\n        /* \"#utility.yul\":19727:19875   */\n      tag_377\n        /* \"#utility.yul\":19871:19874   */\n      dup3\n        /* \"#utility.yul\":19727:19875   */\n      tag_187\n      jump\t// in\n    tag_377:\n        /* \"#utility.yul\":19720:19875   */\n      swap2\n      pop\n        /* \"#utility.yul\":19892:19895   */\n      dup2\n        /* \"#utility.yul\":19885:19895   */\n      swap1\n      pop\n        /* \"#utility.yul\":19520:19901   */\n      swap2\n      swap1\n      pop\n      jump\t// out\n        /* \"#utility.yul\":19907:20074   */\n    tag_188:\n        /* \"#utility.yul\":20047:20066   */\n      0x496e76616c696420566f74652054797065000000000000000000000000000000\n        /* \"#utility.yul\":20043:20044   */\n      0x00\n        /* \"#utility.yul\":20035:20041   */\n      dup3\n        /* \"#utility.yul\":20031:20045   */\n      add\n        /* \"#utility.yul\":20024:20067   */\n      mstore\n        /* \"#utility.yul\":19907:20074   */\n      pop\n      jump\t// out\n        /* \"#utility.yul\":20080:20446   */\n    tag_189:\n        /* \"#utility.yul\":20222:20225   */\n      0x00\n        /* \"#utility.yul\":20243:20310   */\n      tag_380\n        /* \"#utility.yul\":20307:20309   */\n      0x11\n        /* \"#utility.yul\":20302:20305   */\n      dup4\n        /* \"#utility.yul\":20243:20310   */\n      tag_156\n      jump\t// in\n    tag_380:\n        /* \"#utility.yul\":20236:20310   */\n      swap2\n      pop\n        /* \"#utility.yul\":20319:20412   */\n      tag_381\n        /* \"#utility.yul\":20408:20411   */\n      dup3\n        /* \"#utility.yul\":20319:20412   */\n      tag_188\n      jump\t// in\n    tag_381:\n        /* \"#utility.yul\":20437:20439   */\n      0x20\n        /* \"#utility.yul\":20432:20435   */\n      dup3\n        /* \"#utility.yul\":20428:20440   */\n      add\n        /* \"#utility.yul\":20421:20440   */\n      swap1\n      pop\n        /* \"#utility.yul\":20080:20446   */\n      swap2\n      swap1\n      pop\n      jump\t// out\n        /* \"#utility.yul\":20452:20871   */\n    tag_128:\n        /* \"#utility.yul\":20618:20622   */\n      0x00\n        /* \"#utility.yul\":20656:20658   */\n      0x20\n        /* \"#utility.yul\":20645:20654   */\n      dup3\n        /* \"#utility.yul\":20641:20659   */\n      add\n        /* \"#utility.yul\":20633:20659   */\n      swap1\n      pop\n        /* \"#utility.yul\":20705:20714   */\n      dup2\n        /* \"#utility.yul\":20699:20703   */\n      dup2\n        /* \"#utility.yul\":20695:20715   */\n      sub\n        /* \"#utility.yul\":20691:20692   */\n      0x00\n        /* \"#utility.yul\":20680:20689   */\n      dup4\n        /* \"#utility.yul\":20676:20693   */\n      add\n        /* \"#utility.yul\":20669:20716   */\n      mstore\n        /* \"#utility.yul\":20733:20864   */\n      tag_383\n        /* \"#utility.yul\":20859:20863   */\n      dup2\n        /* \"#utility.yul\":20733:20864   */\n      tag_189\n      jump\t// in\n    tag_383:\n        /* \"#utility.yul\":20725:20864   */\n      swap1\n      pop\n        /* \"#utility.yul\":20452:20871   */\n      swap2\n      swap1\n      pop\n      jump\t// out\n\n    auxdata: 0xa26469706673582212202d3e0e6fdcf370a5816a20002ba9c845f9aedf2f5625a802bdfc56b090d438ea64736f6c63430008120033\n}\n",
				"bytecode": {
					"linkReferences": {},
					"object": "6080604052600060025534801561001557600080fd5b50336000806101000a81548173ffffffffffffffffffffffffffffffffffffffff021916908373ffffffffffffffffffffffffffffffffffffffff160217905550600180819055506115ea8061006c6000396000f3fe608060405234801561001057600080fd5b50600436106100935760003560e01c80639bcc3361116100665780639bcc336114610146578063a574cea414610164578063a638580314610194578063d2111a72146101b0578063e120bd55146101cc57610093565b806302d05d3f146100985780637b84a88e146100b65780638f33f4bd146100e657806391ec31ef14610116575b600080fd5b6100a06101fc565b6040516100ad9190610b33565b60405180910390f35b6100d060048036038101906100cb9190610bbd565b610220565b6040516100dd9190610c25565b60405180910390f35b61010060048036038101906100fb9190610c76565b6103d0565b60405161010d9190610c25565b60405180910390f35b610130600480360381019061012b9190610c76565b610408565b60405161013d9190610cb2565b60405180910390f35b61014e610428565b60405161015b9190610cb2565b60405180910390f35b61017e60048036038101906101799190610c76565b61042e565b60405161018b9190610e1b565b60405180910390f35b6101ae60048036038101906101a99190610e3d565b61053a565b005b6101ca60048036038101906101c59190610c76565b6108de565b005b6101e660048036038101906101e19190610c76565b61099e565b6040516101f39190610cb2565b60405180910390f35b60008054906101000a900473ffffffffffffffffffffffffffffffffffffffff1681565b60008060009054906101000a900473ffffffffffffffffffffffffffffffffffffffff1673ffffffffffffffffffffffffffffffffffffffff163373ffffffffffffffffffffffffffffffffffffffff16146102b1576040517f08c379a00000000000000000000000000000000000000000000000000000000081526004016102a890610f20565b60405180910390fd5b60006040518060400160405280600154815260200185858080601f016020809104026020016040519081016040528093929190818152602001838380828437600081840152601f19601f8201169050808301925050505050505081525090506040518060800160405280828152602001600081526020016000815260200160011515815250600560006001548152602001908152602001600020600082015181600001600082015181600001556020820151816001019081610373919061117b565b505050602082015181600201556040820151816003015560608201518160040160006101000a81548160ff021916908315150217905550905050600160008154809291906103c09061127c565b9190505550600191505092915050565b600060056000838152602001908152602001600020600301546005600084815260200190815260200160002060020154119050919050565b600060056000838152602001908152602001600020600201549050919050565b60025481565b610436610aa8565b60056000838152602001908152602001600020604051806080016040529081600082016040518060400160405290816000820154815260200160018201805461047e90610f9e565b80601f01602080910402602001604051908101604052809291908181526020018280546104aa90610f9e565b80156104f75780601f106104cc576101008083540402835291602001916104f7565b820191906000526020600020905b8154815290600101906020018083116104da57829003601f168201915b505050505081525050815260200160028201548152602001600382015481526020016004820160009054906101000a900460ff1615151515815250509050919050565b8060005b600360008381526020019081526020016000208054905081101561062c573373ffffffffffffffffffffffffffffffffffffffff16600360008481526020019081526020016000208281548110610598576105976112c4565b5b9060005260206000200160009054906101000a900473ffffffffffffffffffffffffffffffffffffffff1673ffffffffffffffffffffffffffffffffffffffff1603610619576040517fa1805f1a0000000000000000000000000000000000000000000000000000000081526004016106109061133f565b60405180910390fd5b80806106249061127c565b91505061053e565b506005600083815260200190815260200160002060040160009054906101000a900460ff16610690576040517f08c379a0000000000000000000000000000000000000000000000000000000008152600401610687906113ab565b60405180910390fd5b60036000838152602001908152602001600020339080600181540180825580915050600190039060005260206000200160009091909190916101000a81548173ffffffffffffffffffffffffffffffffffffffff021916908373ffffffffffffffffffffffffffffffffffffffff1602179055506003600083815260200190815260200160002080549050600281905550600061072d85856109be565b90506004600084815260200190815260200160002060405180604001604052803373ffffffffffffffffffffffffffffffffffffffff16815260200183600181111561077c5761077b6113cb565b5b8152509080600181540180825580915050600190039060005260206000200160009091909190915060008201518160000160006101000a81548173ffffffffffffffffffffffffffffffffffffffff021916908373ffffffffffffffffffffffffffffffffffffffff16021790555060208201518160000160146101000a81548160ff02191690836001811115610816576108156113cb565b5b0217905550505060006001811115610831576108306113cb565b5b816001811115610844576108436113cb565b5b0361087c57600160056000858152602001908152602001600020600201600082825461087091906113fa565b925050819055506108d7565b60018081111561088f5761088e6113cb565b5b8160018111156108a2576108a16113cb565b5b036108d65760016005600085815260200190815260200160002060030160008282546108ce91906113fa565b925050819055505b5b5050505050565b60008054906101000a900473ffffffffffffffffffffffffffffffffffffffff1673ffffffffffffffffffffffffffffffffffffffff163373ffffffffffffffffffffffffffffffffffffffff161461096c576040517f08c379a000000000000000000000000000000000000000000000000000000000815260040161096390610f20565b60405180910390fd5b60006005600083815260200190815260200160002060040160006101000a81548160ff02191690831515021790555050565b600060056000838152602001908152602001600020600301549050919050565b60008083836040516020016109d492919061146d565b6040516020818303038152906040528051906020012090506000806040516020016109fe906114d2565b6040516020818303038152906040528051906020012090506000604051602001610a2790611533565b604051602081830303815290604052805190602001209050818403610a4f5760009250610a9b565b808403610a5f5760019250610a9a565b6040517f08c379a0000000000000000000000000000000000000000000000000000000008152600401610a9190611594565b60405180910390fd5b5b8294505050505092915050565b6040518060800160405280610abb610ad8565b815260200160008152602001600081526020016000151581525090565b604051806040016040528060008152602001606081525090565b600073ffffffffffffffffffffffffffffffffffffffff82169050919050565b6000610b1d82610af2565b9050919050565b610b2d81610b12565b82525050565b6000602082019050610b486000830184610b24565b92915050565b600080fd5b600080fd5b600080fd5b600080fd5b600080fd5b60008083601f840112610b7d57610b7c610b58565b5b8235905067ffffffffffffffff811115610b9a57610b99610b5d565b5b602083019150836001820283011115610bb657610bb5610b62565b5b9250929050565b60008060208385031215610bd457610bd3610b4e565b5b600083013567ffffffffffffffff811115610bf257610bf1610b53565b5b610bfe85828601610b67565b92509250509250929050565b60008115159050919050565b610c1f81610c0a565b82525050565b6000602082019050610c3a6000830184610c16565b92915050565b6000819050919050565b610c5381610c40565b8114610c5e57600080fd5b50565b600081359050610c7081610c4a565b92915050565b600060208284031215610c8c57610c8b610b4e565b5b6000610c9a84828501610c61565b91505092915050565b610cac81610c40565b82525050565b6000602082019050610cc76000830184610ca3565b92915050565b610cd681610c40565b82525050565b600081519050919050565b600082825260208201905092915050565b60005b83811015610d16578082015181840152602081019050610cfb565b60008484015250505050565b6000601f19601f8301169050919050565b6000610d3e82610cdc565b610d488185610ce7565b9350610d58818560208601610cf8565b610d6181610d22565b840191505092915050565b6000604083016000830151610d846000860182610ccd565b5060208301518482036020860152610d9c8282610d33565b9150508091505092915050565b610db281610c0a565b82525050565b60006080830160008301518482036000860152610dd58282610d6c565b9150506020830151610dea6020860182610ccd565b506040830151610dfd6040860182610ccd565b506060830151610e106060860182610da9565b508091505092915050565b60006020820190508181036000830152610e358184610db8565b905092915050565b600080600060408486031215610e5657610e55610b4e565b5b600084013567ffffffffffffffff811115610e7457610e73610b53565b5b610e8086828701610b67565b93509350506020610e9386828701610c61565b9150509250925092565b600082825260208201905092915050565b7f596f75206861766520696e73756666696369656e74207065726d697373696f6e60008201527f732e000000000000000000000000000000000000000000000000000000000000602082015250565b6000610f0a602283610e9d565b9150610f1582610eae565b604082019050919050565b60006020820190508181036000830152610f3981610efd565b9050919050565b7f4e487b7100000000000000000000000000000000000000000000000000000000600052604160045260246000fd5b7f4e487b7100000000000000000000000000000000000000000000000000000000600052602260045260246000fd5b60006002820490506001821680610fb657607f821691505b602082108103610fc957610fc8610f6f565b5b50919050565b60008190508160005260206000209050919050565b60006020601f8301049050919050565b600082821b905092915050565b6000600883026110317fffffffffffffffffffffffffffffffffffffffffffffffffffffffffffffffff82610ff4565b61103b8683610ff4565b95508019841693508086168417925050509392505050565b6000819050919050565b600061107861107361106e84610c40565b611053565b610c40565b9050919050565b6000819050919050565b6110928361105d565b6110a661109e8261107f565b848454611001565b825550505050565b600090565b6110bb6110ae565b6110c6818484611089565b505050565b5b818110156110ea576110df6000826110b3565b6001810190506110cc565b5050565b601f82111561112f5761110081610fcf565b61110984610fe4565b81016020851015611118578190505b61112c61112485610fe4565b8301826110cb565b50505b505050565b600082821c905092915050565b600061115260001984600802611134565b1980831691505092915050565b600061116b8383611141565b9150826002028217905092915050565b61118482610cdc565b67ffffffffffffffff81111561119d5761119c610f40565b5b6111a78254610f9e565b6111b28282856110ee565b600060209050601f8311600181146111e557600084156111d3578287015190505b6111dd858261115f565b865550611245565b601f1984166111f386610fcf565b60005b8281101561121b578489015182556001820191506020850194506020810190506111f6565b868310156112385784890151611234601f891682611141565b8355505b6001600288020188555050505b505050505050565b7f4e487b7100000000000000000000000000000000000000000000000000000000600052601160045260246000fd5b600061128782610c40565b91507fffffffffffffffffffffffffffffffffffffffffffffffffffffffffffffffff82036112b9576112b861124d565b5b600182019050919050565b7f4e487b7100000000000000000000000000000000000000000000000000000000600052603260045260246000fd5b7f5573657220616c726561647920766f7465640000000000000000000000000000600082015250565b6000611329601283610e9d565b9150611334826112f3565b602082019050919050565b600060208201905081810360008301526113588161131c565b9050919050565b7f566f74696e6720697320636c6f73656400000000000000000000000000000000600082015250565b6000611395601083610e9d565b91506113a08261135f565b602082019050919050565b600060208201905081810360008301526113c481611388565b9050919050565b7f4e487b7100000000000000000000000000000000000000000000000000000000600052602160045260246000fd5b600061140582610c40565b915061141083610c40565b92508282019050808211156114285761142761124d565b5b92915050565b600081905092915050565b82818337600083830152505050565b6000611454838561142e565b9350611461838584611439565b82840190509392505050565b600061147a828486611448565b91508190509392505050565b7f4163636570746564000000000000000000000000000000000000000000000000600082015250565b60006114bc60088361142e565b91506114c782611486565b600882019050919050565b60006114dd826114af565b9150819050919050565b7f52656a6563746564000000000000000000000000000000000000000000000000600082015250565b600061151d60088361142e565b9150611528826114e7565b600882019050919050565b600061153e82611510565b9150819050919050565b7f496e76616c696420566f74652054797065000000000000000000000000000000600082015250565b600061157e601183610e9d565b915061158982611548565b602082019050919050565b600060208201905081810360008301526115ad81611571565b905091905056fea26469706673582212202d3e0e6fdcf370a5816a20002ba9c845f9aedf2f5625a802bdfc56b090d438ea64736f6c63430008120033",
					"opcodes": "PUSH1 0x80 PUSH1 0x40 MSTORE PUSH1 0x0 PUSH1 0x2 SSTORE CALLVALUE DUP1 ISZERO PUSH2 0x15 JUMPI PUSH1 0x0 DUP1 REVERT JUMPDEST POP CALLER PUSH1 0x0 DUP1 PUSH2 0x100 EXP DUP2 SLOAD DUP2 PUSH20 0xFFFFFFFFFFFFFFFFFFFFFFFFFFFFFFFFFFFFFFFF MUL NOT AND SWAP1 DUP4 PUSH20 0xFFFFFFFFFFFFFFFFFFFFFFFFFFFFFFFFFFFFFFFF AND MUL OR SWAP1 SSTORE POP PUSH1 0x1 DUP1 DUP2 SWAP1 SSTORE POP PUSH2 0x15EA DUP1 PUSH2 0x6C PUSH1 0x0 CODECOPY PUSH1 0x0 RETURN INVALID PUSH1 0x80 PUSH1 0x40 MSTORE CALLVALUE DUP1 ISZERO PUSH2 0x10 JUMPI PUSH1 0x0 DUP1 REVERT JUMPDEST POP PUSH1 0x4 CALLDATASIZE LT PUSH2 0x93 JUMPI PUSH1 0x0 CALLDATALOAD PUSH1 0xE0 SHR DUP1 PUSH4 0x9BCC3361 GT PUSH2 0x66 JUMPI DUP1 PUSH4 0x9BCC3361 EQ PUSH2 0x146 JUMPI DUP1 PUSH4 0xA574CEA4 EQ PUSH2 0x164 JUMPI DUP1 PUSH4 0xA6385803 EQ PUSH2 0x194 JUMPI DUP1 PUSH4 0xD2111A72 EQ PUSH2 0x1B0 JUMPI DUP1 PUSH4 0xE120BD55 EQ PUSH2 0x1CC JUMPI PUSH2 0x93 JUMP JUMPDEST DUP1 PUSH4 0x2D05D3F EQ PUSH2 0x98 JUMPI DUP1 PUSH4 0x7B84A88E EQ PUSH2 0xB6 JUMPI DUP1 PUSH4 0x8F33F4BD EQ PUSH2 0xE6 JUMPI DUP1 PUSH4 0x91EC31EF EQ PUSH2 0x116 JUMPI JUMPDEST PUSH1 0x0 DUP1 REVERT JUMPDEST PUSH2 0xA0 PUSH2 0x1FC JUMP JUMPDEST PUSH1 0x40 MLOAD PUSH2 0xAD SWAP2 SWAP1 PUSH2 0xB33 JUMP JUMPDEST PUSH1 0x40 MLOAD DUP1 SWAP2 SUB SWAP1 RETURN JUMPDEST PUSH2 0xD0 PUSH1 0x4 DUP1 CALLDATASIZE SUB DUP2 ADD SWAP1 PUSH2 0xCB SWAP2 SWAP1 PUSH2 0xBBD JUMP JUMPDEST PUSH2 0x220 JUMP JUMPDEST PUSH1 0x40 MLOAD PUSH2 0xDD SWAP2 SWAP1 PUSH2 0xC25 JUMP JUMPDEST PUSH1 0x40 MLOAD DUP1 SWAP2 SUB SWAP1 RETURN JUMPDEST PUSH2 0x100 PUSH1 0x4 DUP1 CALLDATASIZE SUB DUP2 ADD SWAP1 PUSH2 0xFB SWAP2 SWAP1 PUSH2 0xC76 JUMP JUMPDEST PUSH2 0x3D0 JUMP JUMPDEST PUSH1 0x40 MLOAD PUSH2 0x10D SWAP2 SWAP1 PUSH2 0xC25 JUMP JUMPDEST PUSH1 0x40 MLOAD DUP1 SWAP2 SUB SWAP1 RETURN JUMPDEST PUSH2 0x130 PUSH1 0x4 DUP1 CALLDATASIZE SUB DUP2 ADD SWAP1 PUSH2 0x12B SWAP2 SWAP1 PUSH2 0xC76 JUMP JUMPDEST PUSH2 0x408 JUMP JUMPDEST PUSH1 0x40 MLOAD PUSH2 0x13D SWAP2 SWAP1 PUSH2 0xCB2 JUMP JUMPDEST PUSH1 0x40 MLOAD DUP1 SWAP2 SUB SWAP1 RETURN JUMPDEST PUSH2 0x14E PUSH2 0x428 JUMP JUMPDEST PUSH1 0x40 MLOAD PUSH2 0x15B SWAP2 SWAP1 PUSH2 0xCB2 JUMP JUMPDEST PUSH1 0x40 MLOAD DUP1 SWAP2 SUB SWAP1 RETURN JUMPDEST PUSH2 0x17E PUSH1 0x4 DUP1 CALLDATASIZE SUB DUP2 ADD SWAP1 PUSH2 0x179 SWAP2 SWAP1 PUSH2 0xC76 JUMP JUMPDEST PUSH2 0x42E JUMP JUMPDEST PUSH1 0x40 MLOAD PUSH2 0x18B SWAP2 SWAP1 PUSH2 0xE1B JUMP JUMPDEST PUSH1 0x40 MLOAD DUP1 SWAP2 SUB SWAP1 RETURN JUMPDEST PUSH2 0x1AE PUSH1 0x4 DUP1 CALLDATASIZE SUB DUP2 ADD SWAP1 PUSH2 0x1A9 SWAP2 SWAP1 PUSH2 0xE3D JUMP JUMPDEST PUSH2 0x53A JUMP JUMPDEST STOP JUMPDEST PUSH2 0x1CA PUSH1 0x4 DUP1 CALLDATASIZE SUB DUP2 ADD SWAP1 PUSH2 0x1C5 SWAP2 SWAP1 PUSH2 0xC76 JUMP JUMPDEST PUSH2 0x8DE JUMP JUMPDEST STOP JUMPDEST PUSH2 0x1E6 PUSH1 0x4 DUP1 CALLDATASIZE SUB DUP2 ADD SWAP1 PUSH2 0x1E1 SWAP2 SWAP1 PUSH2 0xC76 JUMP JUMPDEST PUSH2 0x99E JUMP JUMPDEST PUSH1 0x40 MLOAD PUSH2 0x1F3 SWAP2 SWAP1 PUSH2 0xCB2 JUMP JUMPDEST PUSH1 0x40 MLOAD DUP1 SWAP2 SUB SWAP1 RETURN JUMPDEST PUSH1 0x0 DUP1 SLOAD SWAP1 PUSH2 0x100 EXP SWAP1 DIV PUSH20 0xFFFFFFFFFFFFFFFFFFFFFFFFFFFFFFFFFFFFFFFF AND DUP2 JUMP JUMPDEST PUSH1 0x0 DUP1 PUSH1 0x0 SWAP1 SLOAD SWAP1 PUSH2 0x100 EXP SWAP1 DIV PUSH20 0xFFFFFFFFFFFFFFFFFFFFFFFFFFFFFFFFFFFFFFFF AND PUSH20 0xFFFFFFFFFFFFFFFFFFFFFFFFFFFFFFFFFFFFFFFF AND CALLER PUSH20 0xFFFFFFFFFFFFFFFFFFFFFFFFFFFFFFFFFFFFFFFF AND EQ PUSH2 0x2B1 JUMPI PUSH1 0x40 MLOAD PUSH32 0x8C379A000000000000000000000000000000000000000000000000000000000 DUP2 MSTORE PUSH1 0x4 ADD PUSH2 0x2A8 SWAP1 PUSH2 0xF20 JUMP JUMPDEST PUSH1 0x40 MLOAD DUP1 SWAP2 SUB SWAP1 REVERT JUMPDEST PUSH1 0x0 PUSH1 0x40 MLOAD DUP1 PUSH1 0x40 ADD PUSH1 0x40 MSTORE DUP1 PUSH1 0x1 SLOAD DUP2 MSTORE PUSH1 0x20 ADD DUP6 DUP6 DUP1 DUP1 PUSH1 0x1F ADD PUSH1 0x20 DUP1 SWAP2 DIV MUL PUSH1 0x20 ADD PUSH1 0x40 MLOAD SWAP1 DUP2 ADD PUSH1 0x40 MSTORE DUP1 SWAP4 SWAP3 SWAP2 SWAP1 DUP2 DUP2 MSTORE PUSH1 0x20 ADD DUP4 DUP4 DUP1 DUP3 DUP5 CALLDATACOPY PUSH1 0x0 DUP2 DUP5 ADD MSTORE PUSH1 0x1F NOT PUSH1 0x1F DUP3 ADD AND SWAP1 POP DUP1 DUP4 ADD SWAP3 POP POP POP POP POP POP POP DUP2 MSTORE POP SWAP1 POP PUSH1 0x40 MLOAD DUP1 PUSH1 0x80 ADD PUSH1 0x40 MSTORE DUP1 DUP3 DUP2 MSTORE PUSH1 0x20 ADD PUSH1 0x0 DUP2 MSTORE PUSH1 0x20 ADD PUSH1 0x0 DUP2 MSTORE PUSH1 0x20 ADD PUSH1 0x1 ISZERO ISZERO DUP2 MSTORE POP PUSH1 0x5 PUSH1 0x0 PUSH1 0x1 SLOAD DUP2 MSTORE PUSH1 0x20 ADD SWAP1 DUP2 MSTORE PUSH1 0x20 ADD PUSH1 0x0 KECCAK256 PUSH1 0x0 DUP3 ADD MLOAD DUP2 PUSH1 0x0 ADD PUSH1 0x0 DUP3 ADD MLOAD DUP2 PUSH1 0x0 ADD SSTORE PUSH1 0x20 DUP3 ADD MLOAD DUP2 PUSH1 0x1 ADD SWAP1 DUP2 PUSH2 0x373 SWAP2 SWAP1 PUSH2 0x117B JUMP JUMPDEST POP POP POP PUSH1 0x20 DUP3 ADD MLOAD DUP2 PUSH1 0x2 ADD SSTORE PUSH1 0x40 DUP3 ADD MLOAD DUP2 PUSH1 0x3 ADD SSTORE PUSH1 0x60 DUP3 ADD MLOAD DUP2 PUSH1 0x4 ADD PUSH1 0x0 PUSH2 0x100 EXP DUP2 SLOAD DUP2 PUSH1 0xFF MUL NOT AND SWAP1 DUP4 ISZERO ISZERO MUL OR SWAP1 SSTORE POP SWAP1 POP POP PUSH1 0x1 PUSH1 0x0 DUP2 SLOAD DUP1 SWAP3 SWAP2 SWAP1 PUSH2 0x3C0 SWAP1 PUSH2 0x127C JUMP JUMPDEST SWAP2 SWAP1 POP SSTORE POP PUSH1 0x1 SWAP2 POP POP SWAP3 SWAP2 POP POP JUMP JUMPDEST PUSH1 0x0 PUSH1 0x5 PUSH1 0x0 DUP4 DUP2 MSTORE PUSH1 0x20 ADD SWAP1 DUP2 MSTORE PUSH1 0x20 ADD PUSH1 0x0 KECCAK256 PUSH1 0x3 ADD SLOAD PUSH1 0x5 PUSH1 0x0 DUP5 DUP2 MSTORE PUSH1 0x20 ADD SWAP1 DUP2 MSTORE PUSH1 0x20 ADD PUSH1 0x0 KECCAK256 PUSH1 0x2 ADD SLOAD GT SWAP1 POP SWAP2 SWAP1 POP JUMP JUMPDEST PUSH1 0x0 PUSH1 0x5 PUSH1 0x0 DUP4 DUP2 MSTORE PUSH1 0x20 ADD SWAP1 DUP2 MSTORE PUSH1 0x20 ADD PUSH1 0x0 KECCAK256 PUSH1 0x2 ADD SLOAD SWAP1 POP SWAP2 SWAP1 POP JUMP JUMPDEST PUSH1 0x2 SLOAD DUP2 JUMP JUMPDEST PUSH2 0x436 PUSH2 0xAA8 JUMP JUMPDEST PUSH1 0x5 PUSH1 0x0 DUP4 DUP2 MSTORE PUSH1 0x20 ADD SWAP1 DUP2 MSTORE PUSH1 0x20 ADD PUSH1 0x0 KECCAK256 PUSH1 0x40 MLOAD DUP1 PUSH1 0x80 ADD PUSH1 0x40 MSTORE SWAP1 DUP2 PUSH1 0x0 DUP3 ADD PUSH1 0x40 MLOAD DUP1 PUSH1 0x40 ADD PUSH1 0x40 MSTORE SWAP1 DUP2 PUSH1 0x0 DUP3 ADD SLOAD DUP2 MSTORE PUSH1 0x20 ADD PUSH1 0x1 DUP3 ADD DUP1 SLOAD PUSH2 0x47E SWAP1 PUSH2 0xF9E JUMP JUMPDEST DUP1 PUSH1 0x1F ADD PUSH1 0x20 DUP1 SWAP2 DIV MUL PUSH1 0x20 ADD PUSH1 0x40 MLOAD SWAP1 DUP2 ADD PUSH1 0x40 MSTORE DUP1 SWAP3 SWAP2 SWAP1 DUP2 DUP2 MSTORE PUSH1 0x20 ADD DUP3 DUP1 SLOAD PUSH2 0x4AA SWAP1 PUSH2 0xF9E JUMP JUMPDEST DUP1 ISZERO PUSH2 0x4F7 JUMPI DUP1 PUSH1 0x1F LT PUSH2 0x4CC JUMPI PUSH2 0x100 DUP1 DUP4 SLOAD DIV MUL DUP4 MSTORE SWAP2 PUSH1 0x20 ADD SWAP2 PUSH2 0x4F7 JUMP JUMPDEST DUP3 ADD SWAP2 SWAP1 PUSH1 0x0 MSTORE PUSH1 0x20 PUSH1 0x0 KECCAK256 SWAP1 JUMPDEST DUP2 SLOAD DUP2 MSTORE SWAP1 PUSH1 0x1 ADD SWAP1 PUSH1 0x20 ADD DUP1 DUP4 GT PUSH2 0x4DA JUMPI DUP3 SWAP1 SUB PUSH1 0x1F AND DUP3 ADD SWAP2 JUMPDEST POP POP POP POP POP DUP2 MSTORE POP POP DUP2 MSTORE PUSH1 0x20 ADD PUSH1 0x2 DUP3 ADD SLOAD DUP2 MSTORE PUSH1 0x20 ADD PUSH1 0x3 DUP3 ADD SLOAD DUP2 MSTORE PUSH1 0x20 ADD PUSH1 0x4 DUP3 ADD PUSH1 0x0 SWAP1 SLOAD SWAP1 PUSH2 0x100 EXP SWAP1 DIV PUSH1 0xFF AND ISZERO ISZERO ISZERO ISZERO DUP2 MSTORE POP POP SWAP1 POP SWAP2 SWAP1 POP JUMP JUMPDEST DUP1 PUSH1 0x0 JUMPDEST PUSH1 0x3 PUSH1 0x0 DUP4 DUP2 MSTORE PUSH1 0x20 ADD SWAP1 DUP2 MSTORE PUSH1 0x20 ADD PUSH1 0x0 KECCAK256 DUP1 SLOAD SWAP1 POP DUP2 LT ISZERO PUSH2 0x62C JUMPI CALLER PUSH20 0xFFFFFFFFFFFFFFFFFFFFFFFFFFFFFFFFFFFFFFFF AND PUSH1 0x3 PUSH1 0x0 DUP5 DUP2 MSTORE PUSH1 0x20 ADD SWAP1 DUP2 MSTORE PUSH1 0x20 ADD PUSH1 0x0 KECCAK256 DUP3 DUP2 SLOAD DUP2 LT PUSH2 0x598 JUMPI PUSH2 0x597 PUSH2 0x12C4 JUMP JUMPDEST JUMPDEST SWAP1 PUSH1 0x0 MSTORE PUSH1 0x20 PUSH1 0x0 KECCAK256 ADD PUSH1 0x0 SWAP1 SLOAD SWAP1 PUSH2 0x100 EXP SWAP1 DIV PUSH20 0xFFFFFFFFFFFFFFFFFFFFFFFFFFFFFFFFFFFFFFFF AND PUSH20 0xFFFFFFFFFFFFFFFFFFFFFFFFFFFFFFFFFFFFFFFF AND SUB PUSH2 0x619 JUMPI PUSH1 0x40 MLOAD PUSH32 0xA1805F1A00000000000000000000000000000000000000000000000000000000 DUP2 MSTORE PUSH1 0x4 ADD PUSH2 0x610 SWAP1 PUSH2 0x133F JUMP JUMPDEST PUSH1 0x40 MLOAD DUP1 SWAP2 SUB SWAP1 REVERT JUMPDEST DUP1 DUP1 PUSH2 0x624 SWAP1 PUSH2 0x127C JUMP JUMPDEST SWAP2 POP POP PUSH2 0x53E JUMP JUMPDEST POP PUSH1 0x5 PUSH1 0x0 DUP4 DUP2 MSTORE PUSH1 0x20 ADD SWAP1 DUP2 MSTORE PUSH1 0x20 ADD PUSH1 0x0 KECCAK256 PUSH1 0x4 ADD PUSH1 0x0 SWAP1 SLOAD SWAP1 PUSH2 0x100 EXP SWAP1 DIV PUSH1 0xFF AND PUSH2 0x690 JUMPI PUSH1 0x40 MLOAD PUSH32 0x8C379A000000000000000000000000000000000000000000000000000000000 DUP2 MSTORE PUSH1 0x4 ADD PUSH2 0x687 SWAP1 PUSH2 0x13AB JUMP JUMPDEST PUSH1 0x40 MLOAD DUP1 SWAP2 SUB SWAP1 REVERT JUMPDEST PUSH1 0x3 PUSH1 0x0 DUP4 DUP2 MSTORE PUSH1 0x20 ADD SWAP1 DUP2 MSTORE PUSH1 0x20 ADD PUSH1 0x0 KECCAK256 CALLER SWAP1 DUP1 PUSH1 0x1 DUP2 SLOAD ADD DUP1 DUP3 SSTORE DUP1 SWAP2 POP POP PUSH1 0x1 SWAP1 SUB SWAP1 PUSH1 0x0 MSTORE PUSH1 0x20 PUSH1 0x0 KECCAK256 ADD PUSH1 0x0 SWAP1 SWAP2 SWAP1 SWAP2 SWAP1 SWAP2 PUSH2 0x100 EXP DUP2 SLOAD DUP2 PUSH20 0xFFFFFFFFFFFFFFFFFFFFFFFFFFFFFFFFFFFFFFFF MUL NOT AND SWAP1 DUP4 PUSH20 0xFFFFFFFFFFFFFFFFFFFFFFFFFFFFFFFFFFFFFFFF AND MUL OR SWAP1 SSTORE POP PUSH1 0x3 PUSH1 0x0 DUP4 DUP2 MSTORE PUSH1 0x20 ADD SWAP1 DUP2 MSTORE PUSH1 0x20 ADD PUSH1 0x0 KECCAK256 DUP1 SLOAD SWAP1 POP PUSH1 0x2 DUP2 SWAP1 SSTORE POP PUSH1 0x0 PUSH2 0x72D DUP6 DUP6 PUSH2 0x9BE JUMP JUMPDEST SWAP1 POP PUSH1 0x4 PUSH1 0x0 DUP5 DUP2 MSTORE PUSH1 0x20 ADD SWAP1 DUP2 MSTORE PUSH1 0x20 ADD PUSH1 0x0 KECCAK256 PUSH1 0x40 MLOAD DUP1 PUSH1 0x40 ADD PUSH1 0x40 MSTORE DUP1 CALLER PUSH20 0xFFFFFFFFFFFFFFFFFFFFFFFFFFFFFFFFFFFFFFFF AND DUP2 MSTORE PUSH1 0x20 ADD DUP4 PUSH1 0x1 DUP2 GT ISZERO PUSH2 0x77C JUMPI PUSH2 0x77B PUSH2 0x13CB JUMP JUMPDEST JUMPDEST DUP2 MSTORE POP SWAP1 DUP1 PUSH1 0x1 DUP2 SLOAD ADD DUP1 DUP3 SSTORE DUP1 SWAP2 POP POP PUSH1 0x1 SWAP1 SUB SWAP1 PUSH1 0x0 MSTORE PUSH1 0x20 PUSH1 0x0 KECCAK256 ADD PUSH1 0x0 SWAP1 SWAP2 SWAP1 SWAP2 SWAP1 SWAP2 POP PUSH1 0x0 DUP3 ADD MLOAD DUP2 PUSH1 0x0 ADD PUSH1 0x0 PUSH2 0x100 EXP DUP2 SLOAD DUP2 PUSH20 0xFFFFFFFFFFFFFFFFFFFFFFFFFFFFFFFFFFFFFFFF MUL NOT AND SWAP1 DUP4 PUSH20 0xFFFFFFFFFFFFFFFFFFFFFFFFFFFFFFFFFFFFFFFF AND MUL OR SWAP1 SSTORE POP PUSH1 0x20 DUP3 ADD MLOAD DUP2 PUSH1 0x0 ADD PUSH1 0x14 PUSH2 0x100 EXP DUP2 SLOAD DUP2 PUSH1 0xFF MUL NOT AND SWAP1 DUP4 PUSH1 0x1 DUP2 GT ISZERO PUSH2 0x816 JUMPI PUSH2 0x815 PUSH2 0x13CB JUMP JUMPDEST JUMPDEST MUL OR SWAP1 SSTORE POP POP POP PUSH1 0x0 PUSH1 0x1 DUP2 GT ISZERO PUSH2 0x831 JUMPI PUSH2 0x830 PUSH2 0x13CB JUMP JUMPDEST JUMPDEST DUP2 PUSH1 0x1 DUP2 GT ISZERO PUSH2 0x844 JUMPI PUSH2 0x843 PUSH2 0x13CB JUMP JUMPDEST JUMPDEST SUB PUSH2 0x87C JUMPI PUSH1 0x1 PUSH1 0x5 PUSH1 0x0 DUP6 DUP2 MSTORE PUSH1 0x20 ADD SWAP1 DUP2 MSTORE PUSH1 0x20 ADD PUSH1 0x0 KECCAK256 PUSH1 0x2 ADD PUSH1 0x0 DUP3 DUP3 SLOAD PUSH2 0x870 SWAP2 SWAP1 PUSH2 0x13FA JUMP JUMPDEST SWAP3 POP POP DUP2 SWAP1 SSTORE POP PUSH2 0x8D7 JUMP JUMPDEST PUSH1 0x1 DUP1 DUP2 GT ISZERO PUSH2 0x88F JUMPI PUSH2 0x88E PUSH2 0x13CB JUMP JUMPDEST JUMPDEST DUP2 PUSH1 0x1 DUP2 GT ISZERO PUSH2 0x8A2 JUMPI PUSH2 0x8A1 PUSH2 0x13CB JUMP JUMPDEST JUMPDEST SUB PUSH2 0x8D6 JUMPI PUSH1 0x1 PUSH1 0x5 PUSH1 0x0 DUP6 DUP2 MSTORE PUSH1 0x20 ADD SWAP1 DUP2 MSTORE PUSH1 0x20 ADD PUSH1 0x0 KECCAK256 PUSH1 0x3 ADD PUSH1 0x0 DUP3 DUP3 SLOAD PUSH2 0x8CE SWAP2 SWAP1 PUSH2 0x13FA JUMP JUMPDEST SWAP3 POP POP DUP2 SWAP1 SSTORE POP JUMPDEST JUMPDEST POP POP POP POP POP JUMP JUMPDEST PUSH1 0x0 DUP1 SLOAD SWAP1 PUSH2 0x100 EXP SWAP1 DIV PUSH20 0xFFFFFFFFFFFFFFFFFFFFFFFFFFFFFFFFFFFFFFFF AND PUSH20 0xFFFFFFFFFFFFFFFFFFFFFFFFFFFFFFFFFFFFFFFF AND CALLER PUSH20 0xFFFFFFFFFFFFFFFFFFFFFFFFFFFFFFFFFFFFFFFF AND EQ PUSH2 0x96C JUMPI PUSH1 0x40 MLOAD PUSH32 0x8C379A000000000000000000000000000000000000000000000000000000000 DUP2 MSTORE PUSH1 0x4 ADD PUSH2 0x963 SWAP1 PUSH2 0xF20 JUMP JUMPDEST PUSH1 0x40 MLOAD DUP1 SWAP2 SUB SWAP1 REVERT JUMPDEST PUSH1 0x0 PUSH1 0x5 PUSH1 0x0 DUP4 DUP2 MSTORE PUSH1 0x20 ADD SWAP1 DUP2 MSTORE PUSH1 0x20 ADD PUSH1 0x0 KECCAK256 PUSH1 0x4 ADD PUSH1 0x0 PUSH2 0x100 EXP DUP2 SLOAD DUP2 PUSH1 0xFF MUL NOT AND SWAP1 DUP4 ISZERO ISZERO MUL OR SWAP1 SSTORE POP POP JUMP JUMPDEST PUSH1 0x0 PUSH1 0x5 PUSH1 0x0 DUP4 DUP2 MSTORE PUSH1 0x20 ADD SWAP1 DUP2 MSTORE PUSH1 0x20 ADD PUSH1 0x0 KECCAK256 PUSH1 0x3 ADD SLOAD SWAP1 POP SWAP2 SWAP1 POP JUMP JUMPDEST PUSH1 0x0 DUP1 DUP4 DUP4 PUSH1 0x40 MLOAD PUSH1 0x20 ADD PUSH2 0x9D4 SWAP3 SWAP2 SWAP1 PUSH2 0x146D JUMP JUMPDEST PUSH1 0x40 MLOAD PUSH1 0x20 DUP2 DUP4 SUB SUB DUP2 MSTORE SWAP1 PUSH1 0x40 MSTORE DUP1 MLOAD SWAP1 PUSH1 0x20 ADD KECCAK256 SWAP1 POP PUSH1 0x0 DUP1 PUSH1 0x40 MLOAD PUSH1 0x20 ADD PUSH2 0x9FE SWAP1 PUSH2 0x14D2 JUMP JUMPDEST PUSH1 0x40 MLOAD PUSH1 0x20 DUP2 DUP4 SUB SUB DUP2 MSTORE SWAP1 PUSH1 0x40 MSTORE DUP1 MLOAD SWAP1 PUSH1 0x20 ADD KECCAK256 SWAP1 POP PUSH1 0x0 PUSH1 0x40 MLOAD PUSH1 0x20 ADD PUSH2 0xA27 SWAP1 PUSH2 0x1533 JUMP JUMPDEST PUSH1 0x40 MLOAD PUSH1 0x20 DUP2 DUP4 SUB SUB DUP2 MSTORE SWAP1 PUSH1 0x40 MSTORE DUP1 MLOAD SWAP1 PUSH1 0x20 ADD KECCAK256 SWAP1 POP DUP2 DUP5 SUB PUSH2 0xA4F JUMPI PUSH1 0x0 SWAP3 POP PUSH2 0xA9B JUMP JUMPDEST DUP1 DUP5 SUB PUSH2 0xA5F JUMPI PUSH1 0x1 SWAP3 POP PUSH2 0xA9A JUMP JUMPDEST PUSH1 0x40 MLOAD PUSH32 0x8C379A000000000000000000000000000000000000000000000000000000000 DUP2 MSTORE PUSH1 0x4 ADD PUSH2 0xA91 SWAP1 PUSH2 0x1594 JUMP JUMPDEST PUSH1 0x40 MLOAD DUP1 SWAP2 SUB SWAP1 REVERT JUMPDEST JUMPDEST DUP3 SWAP5 POP POP POP POP POP SWAP3 SWAP2 POP POP JUMP JUMPDEST PUSH1 0x40 MLOAD DUP1 PUSH1 0x80 ADD PUSH1 0x40 MSTORE DUP1 PUSH2 0xABB PUSH2 0xAD8 JUMP JUMPDEST DUP2 MSTORE PUSH1 0x20 ADD PUSH1 0x0 DUP2 MSTORE PUSH1 0x20 ADD PUSH1 0x0 DUP2 MSTORE PUSH1 0x20 ADD PUSH1 0x0 ISZERO ISZERO DUP2 MSTORE POP SWAP1 JUMP JUMPDEST PUSH1 0x40 MLOAD DUP1 PUSH1 0x40 ADD PUSH1 0x40 MSTORE DUP1 PUSH1 0x0 DUP2 MSTORE PUSH1 0x20 ADD PUSH1 0x60 DUP2 MSTORE POP SWAP1 JUMP JUMPDEST PUSH1 0x0 PUSH20 0xFFFFFFFFFFFFFFFFFFFFFFFFFFFFFFFFFFFFFFFF DUP3 AND SWAP1 POP SWAP2 SWAP1 POP JUMP JUMPDEST PUSH1 0x0 PUSH2 0xB1D DUP3 PUSH2 0xAF2 JUMP JUMPDEST SWAP1 POP SWAP2 SWAP1 POP JUMP JUMPDEST PUSH2 0xB2D DUP2 PUSH2 0xB12 JUMP JUMPDEST DUP3 MSTORE POP POP JUMP JUMPDEST PUSH1 0x0 PUSH1 0x20 DUP3 ADD SWAP1 POP PUSH2 0xB48 PUSH1 0x0 DUP4 ADD DUP5 PUSH2 0xB24 JUMP JUMPDEST SWAP3 SWAP2 POP POP JUMP JUMPDEST PUSH1 0x0 DUP1 REVERT JUMPDEST PUSH1 0x0 DUP1 REVERT JUMPDEST PUSH1 0x0 DUP1 REVERT JUMPDEST PUSH1 0x0 DUP1 REVERT JUMPDEST PUSH1 0x0 DUP1 REVERT JUMPDEST PUSH1 0x0 DUP1 DUP4 PUSH1 0x1F DUP5 ADD SLT PUSH2 0xB7D JUMPI PUSH2 0xB7C PUSH2 0xB58 JUMP JUMPDEST JUMPDEST DUP3 CALLDATALOAD SWAP1 POP PUSH8 0xFFFFFFFFFFFFFFFF DUP2 GT ISZERO PUSH2 0xB9A JUMPI PUSH2 0xB99 PUSH2 0xB5D JUMP JUMPDEST JUMPDEST PUSH1 0x20 DUP4 ADD SWAP2 POP DUP4 PUSH1 0x1 DUP3 MUL DUP4 ADD GT ISZERO PUSH2 0xBB6 JUMPI PUSH2 0xBB5 PUSH2 0xB62 JUMP JUMPDEST JUMPDEST SWAP3 POP SWAP3 SWAP1 POP JUMP JUMPDEST PUSH1 0x0 DUP1 PUSH1 0x20 DUP4 DUP6 SUB SLT ISZERO PUSH2 0xBD4 JUMPI PUSH2 0xBD3 PUSH2 0xB4E JUMP JUMPDEST JUMPDEST PUSH1 0x0 DUP4 ADD CALLDATALOAD PUSH8 0xFFFFFFFFFFFFFFFF DUP2 GT ISZERO PUSH2 0xBF2 JUMPI PUSH2 0xBF1 PUSH2 0xB53 JUMP JUMPDEST JUMPDEST PUSH2 0xBFE DUP6 DUP3 DUP7 ADD PUSH2 0xB67 JUMP JUMPDEST SWAP3 POP SWAP3 POP POP SWAP3 POP SWAP3 SWAP1 POP JUMP JUMPDEST PUSH1 0x0 DUP2 ISZERO ISZERO SWAP1 POP SWAP2 SWAP1 POP JUMP JUMPDEST PUSH2 0xC1F DUP2 PUSH2 0xC0A JUMP JUMPDEST DUP3 MSTORE POP POP JUMP JUMPDEST PUSH1 0x0 PUSH1 0x20 DUP3 ADD SWAP1 POP PUSH2 0xC3A PUSH1 0x0 DUP4 ADD DUP5 PUSH2 0xC16 JUMP JUMPDEST SWAP3 SWAP2 POP POP JUMP JUMPDEST PUSH1 0x0 DUP2 SWAP1 POP SWAP2 SWAP1 POP JUMP JUMPDEST PUSH2 0xC53 DUP2 PUSH2 0xC40 JUMP JUMPDEST DUP2 EQ PUSH2 0xC5E JUMPI PUSH1 0x0 DUP1 REVERT JUMPDEST POP JUMP JUMPDEST PUSH1 0x0 DUP2 CALLDATALOAD SWAP1 POP PUSH2 0xC70 DUP2 PUSH2 0xC4A JUMP JUMPDEST SWAP3 SWAP2 POP POP JUMP JUMPDEST PUSH1 0x0 PUSH1 0x20 DUP3 DUP5 SUB SLT ISZERO PUSH2 0xC8C JUMPI PUSH2 0xC8B PUSH2 0xB4E JUMP JUMPDEST JUMPDEST PUSH1 0x0 PUSH2 0xC9A DUP5 DUP3 DUP6 ADD PUSH2 0xC61 JUMP JUMPDEST SWAP2 POP POP SWAP3 SWAP2 POP POP JUMP JUMPDEST PUSH2 0xCAC DUP2 PUSH2 0xC40 JUMP JUMPDEST DUP3 MSTORE POP POP JUMP JUMPDEST PUSH1 0x0 PUSH1 0x20 DUP3 ADD SWAP1 POP PUSH2 0xCC7 PUSH1 0x0 DUP4 ADD DUP5 PUSH2 0xCA3 JUMP JUMPDEST SWAP3 SWAP2 POP POP JUMP JUMPDEST PUSH2 0xCD6 DUP2 PUSH2 0xC40 JUMP JUMPDEST DUP3 MSTORE POP POP JUMP JUMPDEST PUSH1 0x0 DUP2 MLOAD SWAP1 POP SWAP2 SWAP1 POP JUMP JUMPDEST PUSH1 0x0 DUP3 DUP3 MSTORE PUSH1 0x20 DUP3 ADD SWAP1 POP SWAP3 SWAP2 POP POP JUMP JUMPDEST PUSH1 0x0 JUMPDEST DUP4 DUP2 LT ISZERO PUSH2 0xD16 JUMPI DUP1 DUP3 ADD MLOAD DUP2 DUP5 ADD MSTORE PUSH1 0x20 DUP2 ADD SWAP1 POP PUSH2 0xCFB JUMP JUMPDEST PUSH1 0x0 DUP5 DUP5 ADD MSTORE POP POP POP POP JUMP JUMPDEST PUSH1 0x0 PUSH1 0x1F NOT PUSH1 0x1F DUP4 ADD AND SWAP1 POP SWAP2 SWAP1 POP JUMP JUMPDEST PUSH1 0x0 PUSH2 0xD3E DUP3 PUSH2 0xCDC JUMP JUMPDEST PUSH2 0xD48 DUP2 DUP6 PUSH2 0xCE7 JUMP JUMPDEST SWAP4 POP PUSH2 0xD58 DUP2 DUP6 PUSH1 0x20 DUP7 ADD PUSH2 0xCF8 JUMP JUMPDEST PUSH2 0xD61 DUP2 PUSH2 0xD22 JUMP JUMPDEST DUP5 ADD SWAP2 POP POP SWAP3 SWAP2 POP POP JUMP JUMPDEST PUSH1 0x0 PUSH1 0x40 DUP4 ADD PUSH1 0x0 DUP4 ADD MLOAD PUSH2 0xD84 PUSH1 0x0 DUP7 ADD DUP3 PUSH2 0xCCD JUMP JUMPDEST POP PUSH1 0x20 DUP4 ADD MLOAD DUP5 DUP3 SUB PUSH1 0x20 DUP7 ADD MSTORE PUSH2 0xD9C DUP3 DUP3 PUSH2 0xD33 JUMP JUMPDEST SWAP2 POP POP DUP1 SWAP2 POP POP SWAP3 SWAP2 POP POP JUMP JUMPDEST PUSH2 0xDB2 DUP2 PUSH2 0xC0A JUMP JUMPDEST DUP3 MSTORE POP POP JUMP JUMPDEST PUSH1 0x0 PUSH1 0x80 DUP4 ADD PUSH1 0x0 DUP4 ADD MLOAD DUP5 DUP3 SUB PUSH1 0x0 DUP7 ADD MSTORE PUSH2 0xDD5 DUP3 DUP3 PUSH2 0xD6C JUMP JUMPDEST SWAP2 POP POP PUSH1 0x20 DUP4 ADD MLOAD PUSH2 0xDEA PUSH1 0x20 DUP7 ADD DUP3 PUSH2 0xCCD JUMP JUMPDEST POP PUSH1 0x40 DUP4 ADD MLOAD PUSH2 0xDFD PUSH1 0x40 DUP7 ADD DUP3 PUSH2 0xCCD JUMP JUMPDEST POP PUSH1 0x60 DUP4 ADD MLOAD PUSH2 0xE10 PUSH1 0x60 DUP7 ADD DUP3 PUSH2 0xDA9 JUMP JUMPDEST POP DUP1 SWAP2 POP POP SWAP3 SWAP2 POP POP JUMP JUMPDEST PUSH1 0x0 PUSH1 0x20 DUP3 ADD SWAP1 POP DUP2 DUP2 SUB PUSH1 0x0 DUP4 ADD MSTORE PUSH2 0xE35 DUP2 DUP5 PUSH2 0xDB8 JUMP JUMPDEST SWAP1 POP SWAP3 SWAP2 POP POP JUMP JUMPDEST PUSH1 0x0 DUP1 PUSH1 0x0 PUSH1 0x40 DUP5 DUP7 SUB SLT ISZERO PUSH2 0xE56 JUMPI PUSH2 0xE55 PUSH2 0xB4E JUMP JUMPDEST JUMPDEST PUSH1 0x0 DUP5 ADD CALLDATALOAD PUSH8 0xFFFFFFFFFFFFFFFF DUP2 GT ISZERO PUSH2 0xE74 JUMPI PUSH2 0xE73 PUSH2 0xB53 JUMP JUMPDEST JUMPDEST PUSH2 0xE80 DUP7 DUP3 DUP8 ADD PUSH2 0xB67 JUMP JUMPDEST SWAP4 POP SWAP4 POP POP PUSH1 0x20 PUSH2 0xE93 DUP7 DUP3 DUP8 ADD PUSH2 0xC61 JUMP JUMPDEST SWAP2 POP POP SWAP3 POP SWAP3 POP SWAP3 JUMP JUMPDEST PUSH1 0x0 DUP3 DUP3 MSTORE PUSH1 0x20 DUP3 ADD SWAP1 POP SWAP3 SWAP2 POP POP JUMP JUMPDEST PUSH32 0x596F75206861766520696E73756666696369656E74207065726D697373696F6E PUSH1 0x0 DUP3 ADD MSTORE PUSH32 0x732E000000000000000000000000000000000000000000000000000000000000 PUSH1 0x20 DUP3 ADD MSTORE POP JUMP JUMPDEST PUSH1 0x0 PUSH2 0xF0A PUSH1 0x22 DUP4 PUSH2 0xE9D JUMP JUMPDEST SWAP2 POP PUSH2 0xF15 DUP3 PUSH2 0xEAE JUMP JUMPDEST PUSH1 0x40 DUP3 ADD SWAP1 POP SWAP2 SWAP1 POP JUMP JUMPDEST PUSH1 0x0 PUSH1 0x20 DUP3 ADD SWAP1 POP DUP2 DUP2 SUB PUSH1 0x0 DUP4 ADD MSTORE PUSH2 0xF39 DUP2 PUSH2 0xEFD JUMP JUMPDEST SWAP1 POP SWAP2 SWAP1 POP JUMP JUMPDEST PUSH32 0x4E487B7100000000000000000000000000000000000000000000000000000000 PUSH1 0x0 MSTORE PUSH1 0x41 PUSH1 0x4 MSTORE PUSH1 0x24 PUSH1 0x0 REVERT JUMPDEST PUSH32 0x4E487B7100000000000000000000000000000000000000000000000000000000 PUSH1 0x0 MSTORE PUSH1 0x22 PUSH1 0x4 MSTORE PUSH1 0x24 PUSH1 0x0 REVERT JUMPDEST PUSH1 0x0 PUSH1 0x2 DUP3 DIV SWAP1 POP PUSH1 0x1 DUP3 AND DUP1 PUSH2 0xFB6 JUMPI PUSH1 0x7F DUP3 AND SWAP2 POP JUMPDEST PUSH1 0x20 DUP3 LT DUP2 SUB PUSH2 0xFC9 JUMPI PUSH2 0xFC8 PUSH2 0xF6F JUMP JUMPDEST JUMPDEST POP SWAP2 SWAP1 POP JUMP JUMPDEST PUSH1 0x0 DUP2 SWAP1 POP DUP2 PUSH1 0x0 MSTORE PUSH1 0x20 PUSH1 0x0 KECCAK256 SWAP1 POP SWAP2 SWAP1 POP JUMP JUMPDEST PUSH1 0x0 PUSH1 0x20 PUSH1 0x1F DUP4 ADD DIV SWAP1 POP SWAP2 SWAP1 POP JUMP JUMPDEST PUSH1 0x0 DUP3 DUP3 SHL SWAP1 POP SWAP3 SWAP2 POP POP JUMP JUMPDEST PUSH1 0x0 PUSH1 0x8 DUP4 MUL PUSH2 0x1031 PUSH32 0xFFFFFFFFFFFFFFFFFFFFFFFFFFFFFFFFFFFFFFFFFFFFFFFFFFFFFFFFFFFFFFFF DUP3 PUSH2 0xFF4 JUMP JUMPDEST PUSH2 0x103B DUP7 DUP4 PUSH2 0xFF4 JUMP JUMPDEST SWAP6 POP DUP1 NOT DUP5 AND SWAP4 POP DUP1 DUP7 AND DUP5 OR SWAP3 POP POP POP SWAP4 SWAP3 POP POP POP JUMP JUMPDEST PUSH1 0x0 DUP2 SWAP1 POP SWAP2 SWAP1 POP JUMP JUMPDEST PUSH1 0x0 PUSH2 0x1078 PUSH2 0x1073 PUSH2 0x106E DUP5 PUSH2 0xC40 JUMP JUMPDEST PUSH2 0x1053 JUMP JUMPDEST PUSH2 0xC40 JUMP JUMPDEST SWAP1 POP SWAP2 SWAP1 POP JUMP JUMPDEST PUSH1 0x0 DUP2 SWAP1 POP SWAP2 SWAP1 POP JUMP JUMPDEST PUSH2 0x1092 DUP4 PUSH2 0x105D JUMP JUMPDEST PUSH2 0x10A6 PUSH2 0x109E DUP3 PUSH2 0x107F JUMP JUMPDEST DUP5 DUP5 SLOAD PUSH2 0x1001 JUMP JUMPDEST DUP3 SSTORE POP POP POP POP JUMP JUMPDEST PUSH1 0x0 SWAP1 JUMP JUMPDEST PUSH2 0x10BB PUSH2 0x10AE JUMP JUMPDEST PUSH2 0x10C6 DUP2 DUP5 DUP5 PUSH2 0x1089 JUMP JUMPDEST POP POP POP JUMP JUMPDEST JUMPDEST DUP2 DUP2 LT ISZERO PUSH2 0x10EA JUMPI PUSH2 0x10DF PUSH1 0x0 DUP3 PUSH2 0x10B3 JUMP JUMPDEST PUSH1 0x1 DUP2 ADD SWAP1 POP PUSH2 0x10CC JUMP JUMPDEST POP POP JUMP JUMPDEST PUSH1 0x1F DUP3 GT ISZERO PUSH2 0x112F JUMPI PUSH2 0x1100 DUP2 PUSH2 0xFCF JUMP JUMPDEST PUSH2 0x1109 DUP5 PUSH2 0xFE4 JUMP JUMPDEST DUP2 ADD PUSH1 0x20 DUP6 LT ISZERO PUSH2 0x1118 JUMPI DUP2 SWAP1 POP JUMPDEST PUSH2 0x112C PUSH2 0x1124 DUP6 PUSH2 0xFE4 JUMP JUMPDEST DUP4 ADD DUP3 PUSH2 0x10CB JUMP JUMPDEST POP POP JUMPDEST POP POP POP JUMP JUMPDEST PUSH1 0x0 DUP3 DUP3 SHR SWAP1 POP SWAP3 SWAP2 POP POP JUMP JUMPDEST PUSH1 0x0 PUSH2 0x1152 PUSH1 0x0 NOT DUP5 PUSH1 0x8 MUL PUSH2 0x1134 JUMP JUMPDEST NOT DUP1 DUP4 AND SWAP2 POP POP SWAP3 SWAP2 POP POP JUMP JUMPDEST PUSH1 0x0 PUSH2 0x116B DUP4 DUP4 PUSH2 0x1141 JUMP JUMPDEST SWAP2 POP DUP3 PUSH1 0x2 MUL DUP3 OR SWAP1 POP SWAP3 SWAP2 POP POP JUMP JUMPDEST PUSH2 0x1184 DUP3 PUSH2 0xCDC JUMP JUMPDEST PUSH8 0xFFFFFFFFFFFFFFFF DUP2 GT ISZERO PUSH2 0x119D JUMPI PUSH2 0x119C PUSH2 0xF40 JUMP JUMPDEST JUMPDEST PUSH2 0x11A7 DUP3 SLOAD PUSH2 0xF9E JUMP JUMPDEST PUSH2 0x11B2 DUP3 DUP3 DUP6 PUSH2 0x10EE JUMP JUMPDEST PUSH1 0x0 PUSH1 0x20 SWAP1 POP PUSH1 0x1F DUP4 GT PUSH1 0x1 DUP2 EQ PUSH2 0x11E5 JUMPI PUSH1 0x0 DUP5 ISZERO PUSH2 0x11D3 JUMPI DUP3 DUP8 ADD MLOAD SWAP1 POP JUMPDEST PUSH2 0x11DD DUP6 DUP3 PUSH2 0x115F JUMP JUMPDEST DUP7 SSTORE POP PUSH2 0x1245 JUMP JUMPDEST PUSH1 0x1F NOT DUP5 AND PUSH2 0x11F3 DUP7 PUSH2 0xFCF JUMP JUMPDEST PUSH1 0x0 JUMPDEST DUP3 DUP2 LT ISZERO PUSH2 0x121B JUMPI DUP5 DUP10 ADD MLOAD DUP3 SSTORE PUSH1 0x1 DUP3 ADD SWAP2 POP PUSH1 0x20 DUP6 ADD SWAP5 POP PUSH1 0x20 DUP2 ADD SWAP1 POP PUSH2 0x11F6 JUMP JUMPDEST DUP7 DUP4 LT ISZERO PUSH2 0x1238 JUMPI DUP5 DUP10 ADD MLOAD PUSH2 0x1234 PUSH1 0x1F DUP10 AND DUP3 PUSH2 0x1141 JUMP JUMPDEST DUP4 SSTORE POP JUMPDEST PUSH1 0x1 PUSH1 0x2 DUP9 MUL ADD DUP9 SSTORE POP POP POP JUMPDEST POP POP POP POP POP POP JUMP JUMPDEST PUSH32 0x4E487B7100000000000000000000000000000000000000000000000000000000 PUSH1 0x0 MSTORE PUSH1 0x11 PUSH1 0x4 MSTORE PUSH1 0x24 PUSH1 0x0 REVERT JUMPDEST PUSH1 0x0 PUSH2 0x1287 DUP3 PUSH2 0xC40 JUMP JUMPDEST SWAP2 POP PUSH32 0xFFFFFFFFFFFFFFFFFFFFFFFFFFFFFFFFFFFFFFFFFFFFFFFFFFFFFFFFFFFFFFFF DUP3 SUB PUSH2 0x12B9 JUMPI PUSH2 0x12B8 PUSH2 0x124D JUMP JUMPDEST JUMPDEST PUSH1 0x1 DUP3 ADD SWAP1 POP SWAP2 SWAP1 POP JUMP JUMPDEST PUSH32 0x4E487B7100000000000000000000000000000000000000000000000000000000 PUSH1 0x0 MSTORE PUSH1 0x32 PUSH1 0x4 MSTORE PUSH1 0x24 PUSH1 0x0 REVERT JUMPDEST PUSH32 0x5573657220616C726561647920766F7465640000000000000000000000000000 PUSH1 0x0 DUP3 ADD MSTORE POP JUMP JUMPDEST PUSH1 0x0 PUSH2 0x1329 PUSH1 0x12 DUP4 PUSH2 0xE9D JUMP JUMPDEST SWAP2 POP PUSH2 0x1334 DUP3 PUSH2 0x12F3 JUMP JUMPDEST PUSH1 0x20 DUP3 ADD SWAP1 POP SWAP2 SWAP1 POP JUMP JUMPDEST PUSH1 0x0 PUSH1 0x20 DUP3 ADD SWAP1 POP DUP2 DUP2 SUB PUSH1 0x0 DUP4 ADD MSTORE PUSH2 0x1358 DUP2 PUSH2 0x131C JUMP JUMPDEST SWAP1 POP SWAP2 SWAP1 POP JUMP JUMPDEST PUSH32 0x566F74696E6720697320636C6F73656400000000000000000000000000000000 PUSH1 0x0 DUP3 ADD MSTORE POP JUMP JUMPDEST PUSH1 0x0 PUSH2 0x1395 PUSH1 0x10 DUP4 PUSH2 0xE9D JUMP JUMPDEST SWAP2 POP PUSH2 0x13A0 DUP3 PUSH2 0x135F JUMP JUMPDEST PUSH1 0x20 DUP3 ADD SWAP1 POP SWAP2 SWAP1 POP JUMP JUMPDEST PUSH1 0x0 PUSH1 0x20 DUP3 ADD SWAP1 POP DUP2 DUP2 SUB PUSH1 0x0 DUP4 ADD MSTORE PUSH2 0x13C4 DUP2 PUSH2 0x1388 JUMP JUMPDEST SWAP1 POP SWAP2 SWAP1 POP JUMP JUMPDEST PUSH32 0x4E487B7100000000000000000000000000000000000000000000000000000000 PUSH1 0x0 MSTORE PUSH1 0x21 PUSH1 0x4 MSTORE PUSH1 0x24 PUSH1 0x0 REVERT JUMPDEST PUSH1 0x0 PUSH2 0x1405 DUP3 PUSH2 0xC40 JUMP JUMPDEST SWAP2 POP PUSH2 0x1410 DUP4 PUSH2 0xC40 JUMP JUMPDEST SWAP3 POP DUP3 DUP3 ADD SWAP1 POP DUP1 DUP3 GT ISZERO PUSH2 0x1428 JUMPI PUSH2 0x1427 PUSH2 0x124D JUMP JUMPDEST JUMPDEST SWAP3 SWAP2 POP POP JUMP JUMPDEST PUSH1 0x0 DUP2 SWAP1 POP SWAP3 SWAP2 POP POP JUMP JUMPDEST DUP3 DUP2 DUP4 CALLDATACOPY PUSH1 0x0 DUP4 DUP4 ADD MSTORE POP POP POP JUMP JUMPDEST PUSH1 0x0 PUSH2 0x1454 DUP4 DUP6 PUSH2 0x142E JUMP JUMPDEST SWAP4 POP PUSH2 0x1461 DUP4 DUP6 DUP5 PUSH2 0x1439 JUMP JUMPDEST DUP3 DUP5 ADD SWAP1 POP SWAP4 SWAP3 POP POP POP JUMP JUMPDEST PUSH1 0x0 PUSH2 0x147A DUP3 DUP5 DUP7 PUSH2 0x1448 JUMP JUMPDEST SWAP2 POP DUP2 SWAP1 POP SWAP4 SWAP3 POP POP POP JUMP JUMPDEST PUSH32 0x4163636570746564000000000000000000000000000000000000000000000000 PUSH1 0x0 DUP3 ADD MSTORE POP JUMP JUMPDEST PUSH1 0x0 PUSH2 0x14BC PUSH1 0x8 DUP4 PUSH2 0x142E JUMP JUMPDEST SWAP2 POP PUSH2 0x14C7 DUP3 PUSH2 0x1486 JUMP JUMPDEST PUSH1 0x8 DUP3 ADD SWAP1 POP SWAP2 SWAP1 POP JUMP JUMPDEST PUSH1 0x0 PUSH2 0x14DD DUP3 PUSH2 0x14AF JUMP JUMPDEST SWAP2 POP DUP2 SWAP1 POP SWAP2 SWAP1 POP JUMP JUMPDEST PUSH32 0x52656A6563746564000000000000000000000000000000000000000000000000 PUSH1 0x0 DUP3 ADD MSTORE POP JUMP JUMPDEST PUSH1 0x0 PUSH2 0x151D PUSH1 0x8 DUP4 PUSH2 0x142E JUMP JUMPDEST SWAP2 POP PUSH2 0x1528 DUP3 PUSH2 0x14E7 JUMP JUMPDEST PUSH1 0x8 DUP3 ADD SWAP1 POP SWAP2 SWAP1 POP JUMP JUMPDEST PUSH1 0x0 PUSH2 0x153E DUP3 PUSH2 0x1510 JUMP JUMPDEST SWAP2 POP DUP2 SWAP1 POP SWAP2 SWAP1 POP JUMP JUMPDEST PUSH32 0x496E76616C696420566F74652054797065000000000000000000000000000000 PUSH1 0x0 DUP3 ADD MSTORE POP JUMP JUMPDEST PUSH1 0x0 PUSH2 0x157E PUSH1 0x11 DUP4 PUSH2 0xE9D JUMP JUMPDEST SWAP2 POP PUSH2 0x1589 DUP3 PUSH2 0x1548 JUMP JUMPDEST PUSH1 0x20 DUP3 ADD SWAP1 POP SWAP2 SWAP1 POP JUMP JUMPDEST PUSH1 0x0 PUSH1 0x20 DUP3 ADD SWAP1 POP DUP2 DUP2 SUB PUSH1 0x0 DUP4 ADD MSTORE PUSH2 0x15AD DUP2 PUSH2 0x1571 JUMP JUMPDEST SWAP1 POP SWAP2 SWAP1 POP JUMP INVALID LOG2 PUSH5 0x6970667358 0x22 SLT KECCAK256 0x2D RETURNDATACOPY 0xE PUSH16 0xDCF370A5816A20002BA9C845F9AEDF2F JUMP 0x25 0xA8 MUL 0xBD 0xFC JUMP 0xB0 SWAP1 0xD4 CODESIZE 0xEA PUSH5 0x736F6C6343 STOP ADDMOD SLT STOP CALLER "
				},
				"gasEstimates": {
					"creation": {
						"codeDepositCost": "1122000",
						"executionCost": "52553",
						"totalCost": "1174553"
					},
					"external": {
						"closeVoting(uint256)": "26990",
						"createTopic(string)": "infinite",
						"creator()": "2512",
						"getAcceptedVotesByTopicId(uint256)": "infinite",
						"getMetadata(uint256)": "infinite",
						"getRejectedVotesByTopicId(uint256)": "infinite",
						"getTopicApproval(uint256)": "5027",
						"numberOfVoters()": "2429",
						"vote(string,uint256)": "infinite"
					},
					"internal": {
						"parseStringToVoteTypeEnum(string calldata)": "infinite"
					}
				},
				"methodIdentifiers": {
					"closeVoting(uint256)": "d2111a72",
					"createTopic(string)": "7b84a88e",
					"creator()": "02d05d3f",
					"getAcceptedVotesByTopicId(uint256)": "91ec31ef",
					"getMetadata(uint256)": "a574cea4",
					"getRejectedVotesByTopicId(uint256)": "e120bd55",
					"getTopicApproval(uint256)": "8f33f4bd",
					"numberOfVoters()": "9bcc3361",
					"vote(string,uint256)": "a6385803"
				}
			},
			"storageLayout": {
				"storage": [
					{
						"astId": 7,
						"contract": "contracts/Voting.sol:Voting",
						"label": "creator",
						"offset": 0,
						"slot": "0",
						"type": "t_address"
					},
					{
						"astId": 9,
						"contract": "contracts/Voting.sol:Voting",
						"label": "topicId",
						"offset": 0,
						"slot": "1",
						"type": "t_uint256"
					},
					{
						"astId": 12,
						"contract": "contracts/Voting.sol:Voting",
						"label": "numberOfVoters",
						"offset": 0,
						"slot": "2",
						"type": "t_uint256"
					},
					{
						"astId": 17,
						"contract": "contracts/Voting.sol:Voting",
						"label": "voters",
						"offset": 0,
						"slot": "3",
						"type": "t_mapping(t_uint256,t_array(t_address)dyn_storage)"
					},
					{
						"astId": 23,
						"contract": "contracts/Voting.sol:Voting",
						"label": "votes",
						"offset": 0,
						"slot": "4",
						"type": "t_mapping(t_uint256,t_array(t_struct(Vote)109_storage)dyn_storage)"
					},
					{
						"astId": 28,
						"contract": "contracts/Voting.sol:Voting",
						"label": "voteMetadata",
						"offset": 0,
						"slot": "5",
						"type": "t_mapping(t_uint256,t_struct(VoteMetadata)98_storage)"
					}
				],
				"types": {
					"t_address": {
						"encoding": "inplace",
						"label": "address",
						"numberOfBytes": "20"
					},
					"t_array(t_address)dyn_storage": {
						"base": "t_address",
						"encoding": "dynamic_array",
						"label": "address[]",
						"numberOfBytes": "32"
					},
					"t_array(t_struct(Vote)109_storage)dyn_storage": {
						"base": "t_struct(Vote)109_storage",
						"encoding": "dynamic_array",
						"label": "struct Voting.Vote[]",
						"numberOfBytes": "32"
					},
					"t_bool": {
						"encoding": "inplace",
						"label": "bool",
						"numberOfBytes": "1"
					},
					"t_enum(VoteType)112": {
						"encoding": "inplace",
						"label": "enum Voting.VoteType",
						"numberOfBytes": "1"
					},
					"t_mapping(t_uint256,t_array(t_address)dyn_storage)": {
						"encoding": "mapping",
						"key": "t_uint256",
						"label": "mapping(uint256 => address[])",
						"numberOfBytes": "32",
						"value": "t_array(t_address)dyn_storage"
					},
					"t_mapping(t_uint256,t_array(t_struct(Vote)109_storage)dyn_storage)": {
						"encoding": "mapping",
						"key": "t_uint256",
						"label": "mapping(uint256 => struct Voting.Vote[])",
						"numberOfBytes": "32",
						"value": "t_array(t_struct(Vote)109_storage)dyn_storage"
					},
					"t_mapping(t_uint256,t_struct(VoteMetadata)98_storage)": {
						"encoding": "mapping",
						"key": "t_uint256",
						"label": "mapping(uint256 => struct Voting.VoteMetadata)",
						"numberOfBytes": "32",
						"value": "t_struct(VoteMetadata)98_storage"
					},
					"t_string_storage": {
						"encoding": "bytes",
						"label": "string",
						"numberOfBytes": "32"
					},
					"t_struct(Topic)103_storage": {
						"encoding": "inplace",
						"label": "struct Voting.Topic",
						"members": [
							{
								"astId": 100,
								"contract": "contracts/Voting.sol:Voting",
								"label": "id",
								"offset": 0,
								"slot": "0",
								"type": "t_uint256"
							},
							{
								"astId": 102,
								"contract": "contracts/Voting.sol:Voting",
								"label": "topic",
								"offset": 0,
								"slot": "1",
								"type": "t_string_storage"
							}
						],
						"numberOfBytes": "64"
					},
					"t_struct(Vote)109_storage": {
						"encoding": "inplace",
						"label": "struct Voting.Vote",
						"members": [
							{
								"astId": 105,
								"contract": "contracts/Voting.sol:Voting",
								"label": "voter",
								"offset": 0,
								"slot": "0",
								"type": "t_address"
							},
							{
								"astId": 108,
								"contract": "contracts/Voting.sol:Voting",
								"label": "voteType",
								"offset": 20,
								"slot": "0",
								"type": "t_enum(VoteType)112"
							}
						],
						"numberOfBytes": "32"
					},
					"t_struct(VoteMetadata)98_storage": {
						"encoding": "inplace",
						"label": "struct Voting.VoteMetadata",
						"members": [
							{
								"astId": 91,
								"contract": "contracts/Voting.sol:Voting",
								"label": "topic",
								"offset": 0,
								"slot": "0",
								"type": "t_struct(Topic)103_storage"
							},
							{
								"astId": 93,
								"contract": "contracts/Voting.sol:Voting",
								"label": "accepted",
								"offset": 0,
								"slot": "2",
								"type": "t_uint256"
							},
							{
								"astId": 95,
								"contract": "contracts/Voting.sol:Voting",
								"label": "rejected",
								"offset": 0,
								"slot": "3",
								"type": "t_uint256"
							},
							{
								"astId": 97,
								"contract": "contracts/Voting.sol:Voting",
								"label": "isOpen",
								"offset": 0,
								"slot": "4",
								"type": "t_bool"
							}
						],
						"numberOfBytes": "160"
					},
					"t_uint256": {
						"encoding": "inplace",
						"label": "uint256",
						"numberOfBytes": "32"
					}
				}
			},
			"userdoc": {
				"kind": "user",
				"methods": {},
				"version": 1
			}
		}
	}
}